:4000000000800020110000008D0F00008D0F000080B500AF024A034B1B68136000F0C0FFBC760040FA4600400100000000200040010000000048004001000000004801404E
:400040000100000001000000080002230000087608000323000028760800042300003076050005230000207005000623000060700500FE23000070703000FE220000405190
:40008000070009230000005207000A230000085207000B230000105207000C230000185206000D230000605207000E230000785208000F230000C85A0C0010230000004F22
:4000C0000C00112300000C4F4000122300000064200013230000706440001423000000652000FE2300007065080016230000005180001723000000008000182300008000E9
:40010000800019230000000280001A230000800280001B230000000480001C230000800480001D230000000680001E230000800680001F230000000880002023000080089B
:40014000800021230000000A800022230000800A800023230000000C800024230000800C800025230000000E800026230000800E80002723000000148000282300008014D3
:40018000800029230000001680002A230000801680002B230000001880002C230000801880002D230000001A80002E230000801A10002F23000010501000302300000050E3
:4001C000800031230000004D800032230000804D800033230000004C800034230000804C8000352300000047800036230000804780003723000000468000382300008046F7
:40020000800039230000004580003A230000804580003B230000004480003C230000804480003D230000001B80003E230000801B80003F2300000015800040230000801550
:4002400080004123000000198000422300008019800043230000001780004423000080178000452300000009800046230000800980004723000000078000482300008007C2
:40028000800049230000000B80004A230000800B80004B230000000580004C230000800580004D230000000D80004E230000800D80004F2300000003800050230000800382
:4002C000800051230000000F800052230000800F80005323000000018000542300008001800055230000004980005623000080498000572300000048800058230000804800
:40030000800059230000004380005A230000804380005B230000004280005C230000804280005D230000004180005E230000804180005F23000000408000FE230000804017
:4003400010B5054C237833B9044B13B10448AFF300800123237010BD5881FF1F00000000D8240000084B10B51BB108490848AFF300800848036803B910BD074B002BFBD0B5
:40038000BDE81040184700BF000000005C81FF1FD8240000C880FF1F0000000080B500AF294B1B78002B38D101F022F903461A46264B1A80254B1B88184600F04DF80346FF
:4003C0001A46234B1A7001F021F9214B1B78022B1BD01F4B1B78042B17D01D4B1B78052B13D01B4B1B78062B0FD0194B1B78082B0BD0174B1B78092B07D0154B1B780A2B2C
:4004000003D0134B1B780C2B03D10F4B01221A7012E00D4B02221A700EE00B4B1B78012B0AD101F0E5F803461A460A4B1A80064B02221A7001F0EAF801F0BCF801F0E6F864
:4004400001F088F900BF80BD9881FF1FA481FF1FA881FF1FA681FF1F80B485B000AF0346FB800023FB73FB8823F0FF03BB81BB89B3F5E06F42D0B3F5E06F16DCB3F5407F2A
:4004800030D0B3F5407F06DCB3F5807F24D0B3F5007F24D047E0B3F5A06F29D0B3F5C06F29D0B3F5806F20D03DE0B3F5206F2ED0B3F5206F06DCB3F5006F22D0B3F5106F74
:4004C00022D030E0B3F5406F27D0B3F5706F27D0B3F5306F1ED026E00123FB7326E00223FB7323E00323FB7320E00423FB731DE00523FB731AE00623FB7317E00723FB73E9
:4005000014E00823FB7311E00923FB730EE00A23FB730BE00B23FB7308E00C23FB7305E00D23FB7302E00023FB7300BFFB7B18461437BD4680BC704780B584B000AF032009
:4005400000F08AFF00F034FF4FF4FA6001F0FAFE012000F0CFFE002000F0B4FF00F08CFF00F000FE00F096FE00F05EFE00F070FE01F0C4FB01F06CFC01F022FC01F034FCE8
:4005800000F0F8FF002001F023F801F0B3FC01F097FD012001F044FD012001F027FE01F045F9AF4B00221A7062B6AE4801F084F8AD4B0F221A80AD4B00221A804FF4AF6060
:4005C00001F0E2FE00F072FF0346012B1AD1A74B1B8801339AB2A54B1A80A44B1B88B3F5FA6F12D172B6002000F036FF44F6206001F0A8FE022000F07DFE4FF4FA6001F06B
:40060000A1FE02E0994B00221A800023FB6062E0FB68032B06D10021022000F015FA03467B8107E0FB68DBB21946012000F00CFA03467B818E4AFB6832F8133019468D4A7A
:40064000FB6832F81330CA1A7B899A422DDA884AFB6832F813301946864AFB6832F81330CA187B899A4220DD01F020FE03465AB20121FB6801FA03F35BB213435BB2DBB2A8
:40068000184601F003FE7C4AFB6813441B78012B1ED1794AFB68134400221A70744AFB684FF6FF7122F8131012E001F0FFFD03465AB20121FB6801FA03F3DBB2C3F10F0383
:4006C000DBB25BB213405BB2DBB2184601F0DEFDFB680133FB60FB68032B99DD604B1B78022B7FF46BAF654B1B78013B0C2B00F23E8101A252F823F02D0700003D07000079
:400700004B070000A1070000F10700006F090000A9080000B1080000D7080000E308000025090000110900005909000001F0BEFD03469BB2184600F04BFF23E1504B1B8855
:40074000DBB2184601F0A2FD1CE1474B1B8803F0F003102B0ED1444B1B88DBB223F00F03DBB20021184600F027F90346184600F02FFFFEE0414B1B7803F0F003202B40F0A9
:40078000F880394B1B88DBB223F00F03DBB20021184600F035F90346184600F019FFE8E0314B1B8803F0F003102B0DD12E4B1B88DBB223F00F03DAB2314B1B88DBB21946C4
:4007C000104600F0F9F8D6E0274B1B8803F0F003202B40F0D080244B1B88DBB223F00F03DAB2274B1B881946104600F009F9C2E01D4B1B8803F0F0033B811B4B1B8803F0EF
:400800000F03FB803B89102B1CD1FB88002B06D11B4B1B88DBB2184601F002FCADE0FB88012B05D1164B1B88184601F019FCA4E0FB88022B40F0A180114B1B88184601F08A
:400840001FFC9AE03B89202B40F09780FB88002B18D10B4B1B88DBB2184601F0C7FC8CE09881FF1F9D030000A481FF1F9681FF1FCC80FF1FD480FF1F7881FF1FA881FF1F69
:40088000A681FF1FFB88012B05D1414B1B88184601F0CCFC71E0FB88022B6ED13C4B1B88184601F0D3FC68E03A4B00221A7069E0384B1B78072B62D8364B1B781A46344B69
:4008C0001B88D9B2344B9954324B1B780133DAB2304B1A7053E02E4B1B88DAB22F4B1A7050E02F4B1B8803F00F03294A11882D4A22F813102A4B1B8803F0F003102B40D14E
:40090000274B1B8803F00F03274A0121D15438E0234B1B8803F00F031D4A1188234A22F813102FE01E4B1B881B11DBB203F00F037B711B4B1B88DBB203F00F033B713A794E
:400940007B791146184600F07FF803467B807B88184600F03DFE15E0114B1B8803F00F03134AD35C9BB2184600F032FE0AE000BF08E000BF06E000BF04E000BF02E000BF0E
:4009800000E000BF0B4B00221A7000F03FFE15E6A681FF1F7581FF1F8C81FF1F7481FF1FA481FF1FCC80FF1F7881FF1FD480FF1FDC80FF1F9881FF1F80B584B000AF03468F
:4009C0000A46FB711346BB71FB79184600F07AFD00F060FCBB79184600F0FEFB00BF00F0DFFB034603F00103002BF8D000F00EFC0346FB81FB8918461037BD4680BD00BF13
:400A000080B584B000AF03460A46FB711346BB80FB79184601F05EFA01F01AFABB88184601F0A6F900BF01F087F9034603F00103002BF8D001F0B6F90346FB81FB8918460A
:400A40001037BD4680BD00BF80B584B000AF03460A46FB711346BB71FF23FB81FF23BB81FB79012B1CD1BB7910211846FFF7A4FF00BFBB7900211846FFF79EFF0346A52B8B
:400A8000F7D0BB7900211846FFF796FF0346FB81BB7900211846FFF78FFF0346BB811EE0FB79022B1BD1BB7910211846FFF7A8FF00BFBB7900211846FFF7A2FF0346A52BA3
:400AC000F7D0BB7900211846FFF79AFF0346FB81BB7900211846FFF793FF0346BB81FB891B029AB2BB8913449BB218461037BD4680BD00BF80B584B000AFF860B9607A608C
:400B00007A68B968F86801F0DBFC00BF1037BD4680BD00BF80B483B000AF0346FB71FEE780B483B000AF3D4B00221A603C4B10221A703C4B01221A703B4B00221A703B4B6C
:400B40004FF43E721A803A4B01221A70394B03221A70394B394A92B21A80394B47F608021A80384B00221A80374B4FF480421A80364B07221A70364B08221A70354B1522B9
:400B80001A70BFF35F8F344B01221A70BFF35F8F00BF264B1B889BB2002BFAD100237B600DE07B68DA002D4B134419462C4A7B6852F823309BB20B807B6801337B607B68B0
:400BC0005E2BEED9BFF35F8F234B01221A70BFF35F8F00BF234B1B78DBB203F00103002BF8D100BF204B1B78DBB203F00103002BF8D100BF1D4B1B78DBB203F00103002B74
:400C0000F8D100BF1A4B1B78DBB203F00103002BF8D100BF0C37BD4680BC70478081FF1F007600401070004019700040007800400278004003780040047800404800000035
:400C4000067800400476004006760040297000406970004079700040147000400C780040DC2400001870004028700040687000407870004080B582B000AF444B03221A8059
:400C8000434B18221A70434B0B221A80424B18221A70424B0B221A80414B18221A70414B0B221A80404B18221A70404B0E221A803F4B18221A703F4B17221A803E4B182233
:400CC0001A703E4B40F65F121A803D4B18221A703C4B40F65F121A803B4B18221A703B4B02221A704FF0402308221A70384B03221A70384B384A1278D2B21A70374B08223D
:400D00001A80374B41F251221A800023FB7019237B6013E0FB785B00DAB2324B1B78DBB203F00103DBB21343DBB203F00303FB70782001F089FB7B68013B7B607B68002BE8
:400D400002D0FB78032BE5D17B68002B02D10320FFF7E0FE244B4FF480721A80224B07221A70224B00221A70214B48221A701E4B00221A701F4B02221A701F4B1B781E4B08
:400D8000FF221A7000BF0837BD4680BD80400040824000408440004086400040884000408A4000408C4000408E4000409040004092400040944000409640004098400040AE
:400DC0009A4000409C4000409E4000400043004000420040A14600400801004922420040204200402542004004400040064000400840004001400040A243004080B483B095
:400E000000AF0F4B1B78FB710E4AFB7903F00703DBB213700C4AFB791B09DBB213700B4B02221A700A4B20221A700A4B20221A70094B44221A7000BF0C37BD4680BC704751
:400E4000CF0100496E5800406F5800403D510040C85A0040CB5A00407658004080B500AF72B6344B61221A70FFF704FF314B81221A70314A304B1B78DBB243F00403DBB292
:400E80001370FFF74DFE2D4B40F203121A802C4A2B4B1B78DBB243F00203DBB21370294A284B1B78DBB243F00203DBB21370264A254B1B78DBB243F04003DBB21370234A80
:400EC000224B1B78DBB243F01003DBB213700A221F492048FFF70EFE0A221F491F48FFF709FE08221E491F48FFF704FE08221E491E48FFF7FFFD0A221D491E48FFF7FAFD5B
:400F00000A221D491D48FFF7F5FD1D4A1C4B1B78DBB243F00803DBB213701A4B01221A70FFF76CFF0E2208491748FFF7E3FD00BF80BD00BF00480040E84600404A580040DA
:400F40000350014013500140A0430040C2430040382500480051004044250048C051004050250048F2510040582500481251004060250048205100406C25004830510040D9
:400F80002243004004000840B043004080B500AF01F06AFA03461B680C2B00D1FEE7FEE780B586B000AF224B7B61224B3B61204B7B6135E03B691B68FB603B695B68BB606A
:400FC0003B699B683B6000237B600CE0FB681A68BB681A60BB680433BB60FB680433FB607B6804337B607A683B689A42EED13B69DB683B6000237B6008E0BB6800221A609D
:40100000BB680433BB607B6804337B607A683B689A42F2D13B6910333B617B69013B7B617B69002BC6D101F025FAFFF785FAFEE7010000008026000080B582B000AF184B73
:40104000184A1A60184A184B1B6843F40073136000237B600FE07B68032B04D8134A7B6852F8233000E0124B12497A6841F822307B6801337B607B682F2BECD90E4B1B7893
:40108000DAB20E4B1A700E4B0A4A1A60FFF7E6FE0C4B00221A6000BF0837BD4680BD00BF0CED00E00004FA0514ED00E0000000008D0F00000080FF1FBC760040C480FF1F05
:4010C00008ED00E0C080FF1F80B500AF084B0F221A7000F0DFF800F063F800F06FF8054B00221A70044B00221A7000BF80BD00BF81640040826400408564004080B582B0D5
:4011000000AF01F0A9F90346FB71134A124B1B78DBB243F02003DBB21370104A0F4B1B78DBB243F01003DBB213700D4A0C4B1B78DBB243F01003DBB21370FB79184601F067
:401140008FF901F0BFF800F01FF800F023F800BF0837BD4680BD00BF91640040926400409564004080B500AF064B1B78002B04D1FFF7AAFF034B01221A70FFF7BFFF00BFB7
:4011800080BD00BF8481FF1F80B400AF00BFBD4680BC704780B400AF00BFBD4680BC704780B483B000AF044B1B78FB71FB7918460C37BD4680BC70476264004080B483B004
:4011C00000AF044B1B78FB71FB7918460C37BD4680BC70476564004080B483B000AF0346FB7100BF074B1B78DBB203F00403002BF8D0054AFB79137000BF0C37BD4680BC6E
:40120000704700BF626400404264004080B483B000AF044B1B78FB71FB7918460C37BD4680BC70475264004080B400AF01E0064B1B78064B1B78DBB203F02003002BF6D1C6
:4012400000BFBD4680BC7047526400406564004080B582B000AF01F0FFF80346FB710C4A0B4B1B78DBB243F00103DBB21370084A074B1B78DBB223F00103DBB21370FB7995
:40128000184601F0EDF800BF0837BD4680BD00BF9264004080B582B000AF01E0124B1B78124B1B78DBB203F02003002BF6D101F0D3F80346FB710E4A0D4B1B78DBB243F0E7
:4012C0000103DBB213700A4A094B1B78DBB223F00103DBB21370FB79184601F0C1F800BF0837BD4680BD00BF52640040656400409264004080B483B000AF0346FB71044A24
:40130000FB79137000BF0C37BD4680BC704700BF7A65004080B500AF002000F05BF8154A144B1B78DBB223F02003DBB21370114A104B1B78DBB223F00403DBB213700D4A1E
:401340000C4B1B78DBB243F00803DBB213700A4A094B1B78DBB223F01803DBB21370064A054B1B78DBB243F00803DBB2137000BF80BD00BF41580040CF5A004080B400AFB4
:40138000094A094B1B78DBB243F00203DBB21370064A064B1B78DBB243F00203DBB2137000BFBD4680BC7047A7430040B743004080B500AF064B1B78002B04D1FFF7AAFF95
:4013C000034B01221A70FFF7D9FF00BF80BD00BF8581FF1F80B483B000AF0346FB711749164B1B78DBB25BB223F003035AB297F9073003F003035BB213435BB2DBB20B702F
:40140000FB79012B0AD10E4B0E4A1278D2B21A700D4B0E4A1278D2B21A7009E0084B0C4A1278D2B21A70084B0A4A1278D2B21A7000BF0C37BD4680BC704700BF41580040A7
:4014400032460040110100493346004015010049AF010049B701004980B483B000AF0346FB71044AFB79137000BF0C37BD4680BC704700BF7964004080B400AF094A094BD9
:401480001B78DBB263F07F03DBB21370064A064B1B78DBB263F07F03DBB2137000BFBD4680BC7047A2430040B243004080B400AF034B1B78DBB21846BD4680BC704700BF0E
:4014C0006565004080B483B000AF0346FB71044AFB79137000BF0C37BD4680BC704700BF7665004080B500AF084B0F221A7000F0A1F800F051F800F05DF8054B00221A700B
:40150000044B00221A7000BF80BD00BF8D640040836400408B64004080B582B000AF00F09BFF0346FB71104A0F4B1B78DBB243F02003DBB213700D4A0C4B1B78DBB243F0DE
:401540001003DBB213700A4A094B1B78DBB243F01003DBB21370FB79184600F081FF00BF0837BD4680BD00BF9D640040936400409B64004080B500AF064B1B78002B04D16C
:40158000FFF7B0FF034B01221A70FFF7C5FF00BF80BD00BF8681FF1F80B483B000AF044B1B78FB71FB7918460C37BD4680BC70476364004080B483B000AF044B1B78FB7117
:4015C000FB7918460C37BD4680BC70476B64004080B483B000AF0346FB80044AFB88138000BF0C37BD4680BC704700BF0C64004080B483B000AF044B1B88FB80FB881846C8
:401600000C37BD4680BC70475C64004080B400AF01E0064B1B88064B1B78DBB203F00803002BF6D100BFBD4680BC70475C6400406B64004080B582B000AF01E01A4B1B8895
:401640001A4B1B78DBB203F00803002BF6D100F003FF0346FB71164A154B1B78DBB243F00303DBB21370124A114B1B78DBB223F00303DBB213700F4A0E4B1B78DBB243F01F
:401680000303DBB213700B4A0A4B1B78DBB223F00303DBB21370FB79184600F0E1FE00BF0837BD4680BD00BF5C6400406B6400409C6400409D64004080B582B000AF786005
:4016C00000F03CF8786800F009F8072000F018F800F028F800BF0837BD4680BD80B485B000AF7860054B1B68FB60FB684C337A681A6000BF1437BD4680BC704708ED00E04F
:4017000080B483B000AF0346FB71054AFB795B01DBB2137000BF0C37BD4680BC704700BF03E400E080B400AF034B08221A6000BFBD4680BC704700BF00E100E080B400AF44
:40174000034B08221A6000BFBD4680BC704700BF80E100E080B400AF034B08221A6000BFBD4680BC704700BF80E200E080B582B000AF1B4B00221A701A4B01221A7000F00D
:401780006BFE0346FB71184A174B1B78DBB243F01003DBB21370FB79184600F061FE134B0F221A70124B08221A70124B01221A600721002000F024FE0F49002000F0F8FDD5
:4017C0000E4B10221A700E4B00221A700D4B00221A700D4B00221A7000BF0837BD4680BD7865004087640040976400402A6500403A65004080E100E059180000A981FF1F5E
:40180000AE81FF1FB081FF1FAC81FF1F80B400AF054A054B1B78DBB243F00203DBB2137000BFBD4680BC70477865004080B500AF074B1B78002B04D1FFF798FF044B01223D
:401840001A70FFF7E3FF034B01221A6000BF80BD8781FF1F00E100E080B582B000AFA64B1B78FB71A54B1B78DBB203F04003DBB2002B00F0CD81FB7903F00103002B00F070
:40188000A4819E4B1B78DBB2453B052B00F2998101A252F823F000BFB1180000F7190000C31B0000C31B0000B11800002D1B0000FB7923F02003FB71FB7903F00A03DBB2C2
:4018C000082B54D18D4B1B78DBB2452B42D18C4B1B78DBB2002B15D08A4A8B4B1B681B78DBB21370894B06221A70894BFF221A70884B00221A70884B01221A707F4B462208
:401900001A7062E1854B1B78DBB203F00203002B0ED0834B1B78DBB243F00A03DAB2804B1A70764B60221A707E4B01221A604CE17D4A7D4B1B78DBB243F02003DBB2137065
:40194000724B52221A70724BFF221A70714B00221A703AE16D4B02221A706D4BFF221A706C4B00221A70654B4A221A702DE1FB7903F00A03DBB20A2B39D1694B1B78DBB2CD
:4019800063F05F03DAB2664B1A70644B1B78DBB203F00203002B18D0584B1B78DBB203F00803002B01D0092300E00A23DAB25C4B1B78DBB21343DAB2594B1A704F4B60225C
:4019C0001A70584B01221A60FFE0574A564B1B78DBB243F02003DBB213704C4B52221A704B4BFF221A704B4B00221A70EDE0002000F09CFCE9E0FB7903F00203002B4AD16E
:401A0000454B1B78DAB23E4B1B78DBB29A421AD23C4A3D4B1B6840490978C9B20B441B78DBB21370394B06221A70394BFF221A70384B00221A70384B1B78DBB20133DAB287
:401A4000354B1A70C1E0354B1B78DBB203F00203002B0ED0324B1B78DBB243F00A03DAB22F4B1A70254B60221A702E4B01221A60ABE02D4A2C4B1B78DBB243F02003DBB29F
:401A80001370224B52221A70214BFF221A70214B00221A7099E0214B1B78DBB203F00203002B0ED01E4B1B78DBB263F06503DAB21B4B1A70114B60221A701A4B01221A60D9
:401AC00083E0194A184B1B78DBB243F02003DBB213700E4B52221A700D4BFF221A700D4B00221A700E4B1B78DBB263F06F03DAB20B4B1A7069E000BF67640040A981FF1FD4
:401B0000AF81FF1F0A640040B481FF1F786500401A6400405A640040AC81FF1FAD81FF1FAE81FF1F80E100E087640040404B1B68404A1278D2B213443F4A1278D2B21A700F
:401B40003C4B1B78DBB20133DAB23A4B1A70394B1B78DAB2394B1B78DBB29A4209D2384B02221A70374BFF221A70374B00221A702BE0364B1B78DBB203F00203002B0ED0B8
:401B8000334B1B78DBB243F00903DAB2304B1A70304B60221A70304B01221A6015E02F4A2E4B1B78DBB243F02003DBB21370244B12221A70234BFF221A70234B00221A704B
:401BC00003E0002000F0B2FB00BFFB7903F02003002B28D01F4B1B78DBB203F00803002B01D0012300E00223DAB2194B1B78DBB21343DAB2164B1A70184A184B1B78DBB26A
:401C000023F02003DBB21370124B10221A700AE0104B1B78DBB203F01003DBB2002B02D10C4B10221A7000BF0837BD4680BD00BFB881FF1FB081FF1F0A640040BC81FF1F90
:401C4000786500401A6400405A640040AD81FF1FAE81FF1FA981FF1F80E100E08764004080B500AF084B1F221A7000F0F1F800F063F800F06FF8054B00221A70044B002254
:401C80001A7000BF80BD00BF8F640040806400408E64004080B582B000AF00F0DDFB0346FB71134A124B1B78DBB243F02003DBB21370104A0F4B1B78DBB243F01003DBB2DC
:401CC00013700D4A0C4B1B78DBB243F01003DBB21370FB79184600F0C3FB00F00DFB00F01FF800F023F800BF0837BD4680BD00BF9F640040906400409E64004080B500AF19
:401D0000064B1B78002B04D1FFF7AAFF034B01221A70FFF7BFFF00BF80BD00BF8881FF1F80B400AF00BFBD4680BC704780B400AF00BFBD4680BC704780B483B000AF044BFA
:401D40001B78FB71FB7918460C37BD4680BC70476064004080B483B000AF044B1B78FB71FB7918460C37BD4680BC70476E64004080B483B000AF0346FB8000BF074B1B7856
:401D8000DBB203F00403002BF8D0054AFB88138000BF0C37BD4680BC704700BF606400404E64004080B483B000AF044B1B88FB80FB8818460C37BD4680BC70475E640040F8
:401DC00080B400AF01E0064B1B88064B1B78DBB203F02003002BF6D100BFBD4680BC70475E6400406E64004080B582B000AF00F033FB0346FB71144A134B1B78DBB243F0F1
:401E00000103DBB21370104A0F4B1B78DBB223F00103DBB213700D4A0C4B1B78DBB243F00103DBB21370094A084B1B78DBB223F00103DBB21370FB79184600F011FB00BF04
:401E40000837BD4680BD00BF9E6400409F64004080B582B000AF01E01A4B1B881A4B1B78DBB203F02003002BF6D100F0F5FA0346FB71164A154B1B78DBB243F00103DBB2DB
:401E80001370124A114B1B78DBB223F00103DBB213700F4A0E4B1B78DBB243F00103DBB213700B4A0A4B1B78DBB223F00103DBB21370FB79184600F0D3FA00BF0837BD4606
:401EC00080BD00BF5E6400406E6400409E6400409F64004080B483B000AF0346FB71044AFB79137000BF0C37BD4680BC704700BF7564004080B500AF064B1B78002B04D1A5
:401F000000F00AF8034B01221A7000F065F800BF80BD00BF8981FF1F80B582B000AF294A284B1B78DBB243F00203DBB21370264B1B78DBB223F07003FB71234AFB7943F089
:401F40005003DBB21370214A204B1B78DBB223F03003DBB213701D4A1C4B1B78DBB243F03003DBB21370194A184B1B78DBB223F00F03DBB21370154A144B1B78DBB243F022
:401F80000F03DBB2137041F2883000F069F840F2DC5000F075F8002000F082F80C4A0C4B1B78DBB243F00103DBB21370094A094B1B78DBB243F00103DBB2137000BF08375E
:401FC000BD4680BD004F0040024F00400B4F0040A3430040014F004080B400AF0D4A0D4B1B78DBB243F00103DBB213700A4A0A4B1B78DBB243F00103DBB21370074A074B85
:402000001B78DBB243F00103DBB2137000BFBD4680BC7047A3430040B3430040004F004080B485B000AF0346FB71FB791B01FB730A4A0A4B1B78DBB223F07003DBB213706F
:402040000649064B1B78DAB2FB7B1343DBB20B7000BF1437BD4680BC704700BF024F004080B483B000AF0346FB80044AFB88138000BF0C37BD4680BC704700BF044F0040F5
:4020800080B483B000AF0346FB80044AFB88138000BF0C37BD4680BC704700BF064F004080B483B000AF0346FB71044AFB79137000BF0C37BD4680BC704700BF034F00403D
:4020C00080B500AF064B1B78002B04D100F00AF8034B01221A7000F065F800BF80BD00BF8A81FF1F80B582B000AF294A284B1B78DBB243F00203DBB21370264B1B78DBB205
:4021000023F07003FB71234AFB7943F05003DBB21370214A204B1B78DBB223F03003DBB213701D4A1C4B1B78DBB243F03003DBB21370194A184B1B78DBB223F00F03DBB2EE
:402140001370154A144B1B78DBB243F00F03DBB2137041F2883000F069F840F2DC5000F075F8002000F082F80C4A0C4B1B78DBB243F00203DBB21370094A094B1B78DBB24C
:4021800043F00103DBB2137000BF0837BD4680BD0C4F00400E4F0040174F0040A34300400D4F004080B400AF0D4A0D4B1B78DBB243F00203DBB213700A4A0A4B1B78DBB237
:4021C00043F00203DBB21370074A074B1B78DBB243F00103DBB2137000BFBD4680BC7047A3430040B34300400C4F004080B485B000AF0346FB71FB791B01FB730A4A0A4B6D
:402200001B78DBB223F07003DBB213700649064B1B78DAB2FB7B1343DBB20B7000BF1437BD4680BC704700BF0E4F004080B483B000AF0346FB80044AFB88138000BF0C37B9
:40224000BD4680BC704700BF104F004080B483B000AF0346FB80044AFB88138000BF0C37BD4680BC704700BF124F004080B483B000AF0346FB71044AFB79137000BF0C3762
:40228000BD4680BC704700BF0F4F004080B483B000AF0346FB71044AFB79137000BF0C37BD4680BC704700BF7664004080B400AF034B1B78DBB21846BD4680BC704700BF86
:4022C0006665004080B400AF094A094B1B78DBB243F00203DBB21370064A064B1B78DBB243F00203DBB2137000BFBD4680BC7047A2430040B243004080B400AF094A094B3F
:402300001B78DBB243F00803DBB21370064A064B1B78DBB243F00803DBB2137000BFBD4680BC7047A2430040B243004080B483B000AF0346FB7101BE00BF0C37BD4680BC46
:40234000704700BF80B582B000AF786008E00C4B1B68184600F078F87B68A3F500437B607B68B3F5004FF2D8064B1B687A6802FB03F3184600F068F800BF0837BD4680BDA7
:40238000F080FF1FE880FF1F80B582B000AF0346FB80FB88054A127802FB03F3184600F053F800BF0837BD4680BD00BFEC80FF1F80B584B000AF03463960FB710F4B1B687D
:4023C000FB60FB791F2B02D90020FFF7AFFFFB7903F01F0310339B00FA6813441B68BB60FB7903F01F0310339B00FA6813443A681A60BB6818461037BD4680BD08ED00E04E
:4024000080B582B000AF03460A46FB711346BB71BB79072B02D90020FFF788FFFB791F2B02D90020FFF782FFFB7903F01F0303F1604303F56443BA795201D2B21A7000BFDC
:402440000837BD4680BD00BF0230800803D000BF01380046FCD17047EFF3108072B6704780F31088704700BF014B1868704700BF5481FF1F0E4B70B51E460E4C0025E41A69
:40248000A410A54204D056F8253098470135F8E700F0E4F8084B094C1E46E41AA4100025A54204D056F8253098470135F8E770BD68260000682600006826000070260000A8
:4024C00010B5431E0A44914204D011F8014B03F8014FF8E710BD0000000000002800000030000000380000004000000040000000400000008081FF1F00000048080000486E
:402500001000004818000048200000482800004838000048400000484C000048580C0048980C0048B80C0048F80C00483000004858000048D800004858010048D801004885
:4025400058020048D802004858030048D803004858040048D804004858050048D805004858060048D806004858070048D807004858080048D808004858090048D809004803
:40258000580A0048D80A0048580B0048D80B0048180D0048280D0048380D0048B80D0048380E0048B80E0048380F0048B80F004838100048B810004838110048B811004871
:4025C00038120048B812004838130048B813004838140048B814004838150048B815004838160048B816004838170048B817004838180048B818004838190048B819004883
:40260000381A0048B81A0048381B0048B81B0048381C0048B81C0048381D0048B81D0048381E0048B81E0048381F0048B81F004838200048B820004838210048B8210048C2
:4026400038220048B822004838230048B823004838240048B824004843000000F8B500BFF8BC08BC9E4670476503000039100000F8B500BFF8BC08BC9E46704741030000D2
:4026800090260000C880FF1F900000006800000000000000FFFFFFFFFFFFFFFF0500050005000500030000070B13000000366E01C05D0000180000000000E02E00000000EA
:4026C000000000000000000000000000000000000000000000000000000000005826000000000000000000000000000000000000000000000000000000000000000000005C
:4027000000000000000000000000000000000000000000000000000000000000F480FF1F000000000000000000000000000000000000000000000000000000000000000007
:402740000000000000000000000000000000000000000000000000000000000000000000000000000000000000000000000000000000000000000000000000000000000059
:402780000000000000000000000000000000000000000000000000000000000000000000000000000000000000000000000000000000000000000000000000000000000019
:4027C00000000000000000000000000000000000000000000000000000000000000000000000000000000000000000000000000000000000000000000000000000000000D9
:402800000000000000000000000000000000000000000000000000000000000000000000000000000000000000000000000000000000000000000000000000000000000098
:020000040003F7
:0200000480007A
:40000000A0C10000000000001000000000000000819200006B0200002801000009010000C2840000000000002814000000000000FF00000000000000000000000000000417
:40004000005000000000000000004B00005000000000000000004B00008400000E0A0010000400804407093865011A0000000000008000041304240000560009008400006C
:400080000084000040600000707F00800F080002200202000000005400000000000000000000000000000000000000000900000004040004333000010000000000000000A3
:4000C000000000000000000000000000000000000000000000000000009A0000009800020002009800020100003800C000130064022101D800000200009A00000000000028
:4001000000FC00030098000200E0000F001303000000000A00000000510000000002000001FFFFFF000000000000000000000228040404041717000180004040404080005D
:400140008000800080008000000000000000000000000000000000001D840000028404001D80000402600D000004000002070838010A02101D010000008410001D0000000B
:40018000005600090D0410800F7F10800008000200020200000004546203400005DEFBC02FFFFFFF2200F008040000000900000004040404111100010000C00040011011D0
:4001C000C0010011400140010000000000000000000000000000000000000100000000000000000000000000000000020000000000000000050000000000000000000001A2
:40020000000007000000000001010001040202000000000000001100000000000000000000000000000000000000000041000000040400040220000100000000000000002B
:4002400000000000000000000000000000000000000000000000000000001300010004000101063200010B06000078000300201302000113001278017800031B780080003D
:40028000030140040000430080070708001078200000080200004010630000000000025024FFFFFF42A070000810F600000000000404040400440001004840488048804830
:4002C000000000000000000000000000000000000000000000000000000000002E0051000003000400000000000000004C00300010006800040000000000000019076200FE
:400300000000000000050002000207007804000100A228000000005100000000000000000000000000000000000000004000000004040004011000010000000000000000B7
:400340000000000000000000000000000000000000000000000000000000000000000000000E00100038000000000000000000010014002B000000000000000002000000E5
:400380000110002700000000010000030000023C008000000000010000000000000000000000000000000000000000000000080004040004147000010000000000000000A9
:4003C0000000000000000000000000000000000000000000000000003F0500780101000098010600A201180001081E07B21008079CC02207003A400422FF000006030000B9
:40040000AA03100004220005807F1F00600000800A8000000000010100000000000000000000000000000000000000002000040004040004440000010000000000000000D5
:400440000000000000000000000000000000000000000000000000000DA5000A01A1000401A10002000002100001082292A66000E24000000000FF0040081D053D0FC20008
:400480005D00A20004A0E002001F00000060FF8000A00000000040500000000000000000000000000000000000000000000000000404000000000001000000000000000080
:4004C0000000000000000000000000000000000000000000000000001001071E010400000132000808060700222A0510050178003A1C0422C02207180300004001180006B3
:40050000FF3F0000032200007F00001F0060800080080000000001000000000000000000000000000000000000000000000000000404000400000001000000000000000044
:40054000000000000000000000000000000000000000000000000000000F00004800002000FF00000000030800000400400002401090210100040108000000941000219848
:4005800048C0000000900002070008C03800403FA8800200000014003200000006D0000B12FF7FFF42A070000C000000000008000404040400200001000940093009000019
:4005C0000000000000000000000000000000000000000000000000000024005101750000006400110000000000000200007500000201000E001000E0000000000211008888
:4006000000010002003500400200000F010000F00000008800000000000000000000000000000000000000000000000020000000040400040020000100000000000000006B
:400640000000000000000000000000000000000000000000000000000002010400000000000000000000000000000000000000000000000002000000000800000002000562
:40068000000000000000000802010006000001080020000000000150060260000500000000FFFFFF0200700C8C1000000000080004042404022800110000000000000000B8
:4006C0004001C0010000000000000000000000000000000000000000000000000000210400011E000000000000000001000000004101040000010000410002000000000128
:4007000041000800100641000001200440021F0000000000000050150602600005EDCF0B1FFFFFFF2300F00C8C100000000002240404242408880811000000000000000004
:400740004001C00100000000000000000000000000000000000000000009003600100000000000000002000D000000000023000C0005003A000000000000000000000000AB
:400780000000000000000000000000000030000F0020008000000000350120000600000000FFFFFF02007008040000004000000000040404303300010000C00040011011B1
:4007C000C001001140014001000000000000000000000000000000001A10010004C41010041008C41B00000004C41A10020904C600D401001BC1000600D400001B0000002A
:400800001B98002300E700181E00019800780007000002A0000004003105600002CDB0EF3BFFFFFF2300F008040000000000022004040404333300010000C00040011011F1
:40084000C00100114001400100000000000000000000000000000000010F0E000010400271040808054020002500000804002100717F0200004010200000000025100001E0
:4008800000000018040001140F3F00004040300000220200000000000000000000000000000000000000000000000000000000000404000044000001000000000000000098
:4008C00000000000000000000000000000000000000000000000000030000000001630011000400001130A041012600520001410000130080001000E01170200301700009B
:400900000020300000003000700003300800040F0008028000000004000000000000000000000000000000000000000000000000040400044400000100000000000000009A
:400940000000000000000000000000000000000000000000000000000000000000000000000000000700000000000001000000000000000000000000030004000000000068
:40098000050002000000000002010400010000002A00000000001500000000000000000000000000000000000000000000000000040400044000000100000000000000009C
:4009C0000000000000000000000000000000000000000000000000000000000020004100200042000000041310010006001208010F00800000010F1A100100040F000013FB
:400A000000000F00000008330F07700810108020280000020000151036000000050D00B021FF7FFF42A070000C000000200004000404040444440001000940093009000093
:400A4000000000000000000000000000000000000000000000000000CCA5134A4DA99254A5CC4A1300020200004D04921AFF600000040100FF0000B504000004021A006061
:400A80000000B502A9005401000000000000FFFF0000000000004040000000000000000000000000000000000000F600000000000404000400000001000000000000000000
:400AC0000000000000000000000000000000000000000000000000001F0000004F00000001000000480002004240091340460BA9400E143090000B01038020560033010CFE
:400B000001FF0000032A00540000E0FF1F0000FF08000000000004000000000000000000000000000000000000000000000000000404000000000001000000000000000022
:400B4000000000000000000000000000000000000000000000000000000F0040000000620006012033000C104600A900800056000E05300A00000080FF01000200010002B7
:400B80002A08542540011324FFE00000001F00000000000200000000320000000000005230FFFFFF42A0700008100000000000000404040444000001004840488048804842
:400BC000000000000000000000000000000000000000000000000000010100000140001D030400E01F00000240010B0003002008420D0900405D14A200E201004F0000FF3A
:400C0000903D0BC2489202601F000000E00000FF20000000000010400000000000000000000000000000000000000000000000000404000004000001000000000000000063
:400C40000000000000000000000000000000000000000000000000000000000000000000000000000000000000000000000000000000000000000000001900000F0000004C
:400C800000000400000000000000000008000000000000000000000000000000000000000003000000000000000F00470000000000000078000F001F000000000000000029
:400CC000000000000000000000000000000000000000000000000000000000000000000400000F0000000000000000000000000000000800000000000000000000000000D9
:400D0000000001000000000000000000000000000000000000000000110000000000000000001000110000009F000000000000008F00930005000D000000000000000000AD
:400D40000000000000000000000000000000000000000000000000000000000000000000000000000000000000000000000000000000000000000000000000000000000073
:400D8000000000000000000000000000000000000000000000000000000000000000000000000000000000000000000000080000000000000000000000040000000800001F
:400DC00000000000000000000000000000000000000000000000000000000000000400000000000000000000000000000100000000000000000000000000000000000000EE
:400E000000000000000000000000000000000000000000000000040000000000000000000000000008000000000000000000000000000000000000000000000000000000A6
:400E40000000000000000000000000000000000000000000000000000000000000000000000000000000000000000000000000000000000000000000000000000000000072
:400E8000000000000000000000000000000000000000000000000100010000000000000000000000000000000000000000000000000001000000000000040000000000200B
:400EC0000000000000000000000001000000000000000000000400000000012000040000000080400000000000000100000000000000000000000000000000000000000007
:400F000000000000000000000000000000000300000000000100000000000000000000000000000001000000000000000000000000000000000000000000000000000000AC
:400F40000000000000000000000000000000000000000000000000000000000000000000000000000000000000000000000000000000000000080000000000000000000069
:400F800000000000000000000000000000000000000000000000000000000000000000000000000000000000000000000000000000000000000000000000000040000000F1
:400FC000000000000000010000000000000000000000000000040040000080204000000000000000000000004000000000000000000000000000000000000000000000008C
:401000000000000000000100000000000000000000000000000000000800000000000000010000000000000000000000000000000000000000000000000000200000000086
:401040000000000000000000000000000000000000000000000000000000000000000000000000000000000000000000000000000000000000000000000000000000000070
:401080000000000000000000000000000000200000000000000000000000000000000000000000000000000000000000000000000000000000000000000000000000000010
:4010C00000000000000000000000000000000000000020004004004000008000400000000000000000000000012000008100000000000000000000000800000000000000E2
:40110000000000000000000000000000020000000000000000000000000000000000000000000F00000000000000000000000000000000000000000002000000022000007A
:40114000800000000001000000008000000000000000000000000000000000000000000000000000000000000000000000000000000000000000000000000000000000006E
:4011800000000000000000000000000040000000400000000000000000000800000400000000000000000000000000000000000000000000000000000000000000010000A2
:4011C00000080800000000000000000000000000000020000000004000000000000800000000200000000000000000000000000000000000000000000D000600080000003C
:4012000000000000000000000000000003000000030000000000000000000000050000000000000000000000000000000000000000000000000000000000000000000000A3
:40124000000000000000000000000000000000000000000000000000000000000000000000000000000000000000000000000000000000000000000000000000000000006E
:4012800000000000000000000000000000000000000000000000000000000000000000000000000000000000000800000000004000000000000000000000000000000000E6
:4012C00000000000000000000000000000000000000000000000000000000000000000000000000000000000000000000000000000000000000000000000000000000000EE
:40130000000000000000000000000000000000000000000001000400000000000000000000000000000000000000000000000000000000000000000000200002010002285B
:4013400028004000805040204020020028006080000140000010800200300280000080000801001240006220002080000020400900002284012001840400100000300000F0
:401380000000000000000000080001000000000000000000000000000000000000000000001080000000000000000000000000000000000000000000080000208010008656
:4013C00000000021002000180400118000A0C000600040010810010800000040080002000001C4000000120000900100000000000000000000000000F300FE00FB0000003F
:401400000000FF00FC00FF00060000000000000000000000000000001400000048000000000000009000200000000000000000000000000000000000842200000020900248
:40144000600401802000402021000000002402010403010000004605001230000008800004008020200002641100400011249000002A4000800C80000002000100000000E9
:401480000000000000000000000000000000000000000000000000800400000800000000000000000000000000000000000000000000000000000000000214101004004224
:4014C0000800800004040000000280000000048225045080480104004004102010082104000400204802000001001010001000010000000000000000FF007F00F50000004A
:401500000000EE00FD005F000000000000001000000000000000000004000800040000000000060010000000000000000000000000000000000000000820802200811800C8
:4015400082090A0040040084810400200880000900000C18000000402208000000400000860000100000A220800800228420050000000000A002040020140800000000007D
:4015800000000000000000000000000000000000000000000000000000000000000000000000000004040000000000000020A22400000102000000000000400000000000FA
:4015C00000000000001800000400120408040C006100400100002304C401044219400008100040000000008000008004000000000000000000000000FF00FF00FF0000001B
:401600000000FF00FF00F00000000000000000000000000000000000000040000100180000008000A100040000000000000000000000000000000000A0000020000000027C
:401640001404450000000000010064000010000100A8C1000000001A0440050000000040108000800000000000000540000805000080000000000000200000000080008089
:4016800000040500000000000200000000000000481100004002002404000042000000000000000000100001000000000000000000000000000080404000000800020046B9
:4016C000000000002010000000020010000000200000400205240000008010A11A1AA0040801000800000C0000408000000C0000000000000000000087000F005F00000036
:4017000000000B008B00080002000C000000FF000D0000000000000000000000000008000000440080004C0000000000000000000000000000000000020400060042320455
:401740000001250001004960810018000000884802010000000000400808100884018040005108000000811200081042000200180218004020920C200000000000000000E8
:4017800000100C20000000000000000000000000000000000000000000000000000000000020800000000000000000000000000000000000000000000000000040084000C5
:4017C00000000000600000002008530088202C800002001100000108C00004C208010018000404020000010005000800000010400000000000000000FF00FF00FF00000092
:401800000000DF00EF00FF000000000000000000000000000000000052000000000010002000C00040000000000000000000000000000000000000002008008200000000AF
:4018400004008600000000008A001000080000080018042140000080000041000040080201041086000000040402A000000008100000009600802000000000000000000019
:40188000000000000000000000000000000000008001280040000000044000800080000000000000000840480000000000000000000000000000000000000040000410D047
:4018C0000000000000104241040A201C000000008000E01800A000008080000000180200800C00040000000240000100C000000000000000000000000F000F006F000000B9
:4019000000002F006F003F000000000000001F001D000000000000000800000008004000000004000000070000000000000000000000000000000000080000020800000021
:40194000000009A000004800080000080000200000411322800048100208000020008020000120190000001A004C10000000802880000920000204200000002800000000DF
:4019800080020800000000000004000000000000200000400000000102000008100010020000000000000000000000000000000000000000000080800000000400001001F7
:4019C000124014010000000000000003002000002000005000000000004018000100000000020000000000000004080002000120000000000000000025005F0026000000B9
:401A000000007F007E00EF000600040000008C007C000000000000000000800000000000000090008000000000000000000000000000000000000000400800880000001038
:401A40006004400000002402202002020000200000016208000024140400444088008000000100040000002220004400000000000020004000100000000800000000000002
:401A8000002000000000000000014000000000000000000000000000000000000004100100080008001000028000801400000000000000000000000008020040000000042C
:401AC0000000008040000000002000010800002820043050088200002080002100008000200000000000E840300000000000000000000000000000002F00EF002F000000A1
:401B0000000055000E002C00020004000000000070000000000000000200000000001C000000110000000000000000000000000000000000000000001004000000008000DD
:401B400000000400008000018A000000000000001090084000000081242000800042101002040000000080A0A2000000200020000810000002000000040000000020000081
:401B80000096001000000480048020000000000000000000000000900400000000009000AA10040000000000000000000000000010000100000000080006004010001008EE
:401BC00010100000000000000000000000000000000000000000000000000000002000000D0836000020000008580000020121000000000000000000160082000B00000013
:401C00000000DA000D00860024003C00000030003400000000002C000000000000000200040010006000000000000000000000000000000000000000000200004100081076
:401C40000000020084000800098000000041000400004210400400002012000000402840200000008440000600020000002006580000000001200E80000000000400600A11
:401C800000000000022500010000000000001041080060000014004200000020010000000000000000000000000000000000000000000000000000000600100008000000AE
:401CC000001000010000000000000400000000280000021C008000008090022200000001440100010000000000080000000500000000000000000000F800E100B2000000F6
:401D00000000B200F100F000E00030000000FE0012000000000000000000020000000400000009000400010000000000000000000000000000000000000000000202200AAE
:401D4000000000000008410400000000000000140000000010004000044000010008A0080000000002001100000820000022800804800100002500002110000028000108CC
:401D800002000400080902040000000000010014000000000000000010400008000000010000000001A4011400000000000000020000000000000000001000100020010299
:401DC0000045800000000000000000000000000000000000000000000000000000000000000000000000000000000000000000000000000000000000F000F00060000000DE
:401E00000000B000F600EB007E003C00000000001E000000000000000000A0000000A000000000000000000000000000000000000000000000000000400000200080000019
:401E4000000100010080000802000000200800004001002000800000002A840000000218122100008000000620420000000002188821000000600600000000000080000041
:401E8000000000000080000800000000000000002006400000000000000080000000002000000000802004060000000000000200004000010000000022204000100304000E
:401EC00002740000000200000000000000000000000000000000000000000000000000000000000000000000000000000000000000000000000000008500C900010000001B
:401F00000000BF00ED00FF001000100000000F0048000000000000000000090000001300000000000000000000000000000000000000000000000000000020001000000033
:401F40000020000000000000000000000000000000000000000000000000080000000000000000000000000000000000000000000000000000000000000000000000000039
:401F80000000000000000000000000000000002000000180000000020000000000000000000000000000000000002000000000000000000080000000100008800000200026
:401FC000000000000000000000000100000000008000200200000000000000200020000000000200000000000000000000020000000000000000000090004000000000002A
:40200000400000000000000000000000C000C000000000008000200020008000C00000008000000000000000000000000000000000000000000000000000028000000001DD
:402040000000000000000000000000000000000000000000000000000000000000000000000000000000000000000000000000000000000000000000000000000000000060
:4020800000000000000000001000000080000000000080000000000000000000000000000000000000000000000000000000000000000000000000008000008000202001CF
:4020C0000000000000000000200081000000000000000002002000008002002000200000000040000000010000000002800000200000000000000000D000000000000000A8
:40210000000000000000000000000000E00000000000000000000000400010002000C0000000100000008000000000000000000000000000000000000000000000000000FF
:40214000000000000000000000000000000000000000000200020000000000000000000000000000000000000000000000000000000000000000000000000000000000005B
:40218000000000000000000000000000000000000000000000000000000000000000000000000000000000000000000000000000000000000000000000000010008000008F
:4021C0000000000010000000000000000000000000000002002000100000000000A000000000000000000000000000000000000000000000000000000000000000003000CD
:40220000000000000000000000000000000000000000000000000000000020000000400000000000000000000000000000000000000000000000000000000000000000003E
:40224000000000000000000000000000000000000000000000000000000000000000000000000000000000000000000000000000000000000000000000000000000000005E
:4022800000000000000000000080000000000000000000000000000000400000004000000000000000000000000000000000000000000000000000000000000200400000DC
:4022C0000000000000080000000000000000000000000000002000100000000000280000000000000000000400000000000400000000000000000000000000000000000076
:402300000000000000000000000000002000C0000000000000000000000000000000900000000000000010000000000000000000000000000000000000000000000200001B
:40234000000000000000000000000000000000000000000000000000000000000000000000000000000000000000000000000000000000000000000000000000000000005D
:4023800000000000000000000000020000000000000000000000020000080000000000080000000000000000000000000000000000000000000000000020010000000000E8
:4023C0000000000000000000000000000000000000000000002600100000020000000000000200000000000200000000000000000000000000000000200000000000000081
:4024000000000000000000000000000080008000C000000000000000200000000000800000001000200000000000000000000000000000000000000000000000000000000C
:402440000000000000000000000000000000000000000000000000000000000000000000000000000000000000000012002400000000000000000000000000000000000026
:40248000000000000000000000000000000000000000000000000000000000000000000000000000000000000000000000000000000000000000000000000000000000001C
:4024C00000000000000002000000000000000000000000000000000000000000000000000000000000000000000000000000000000000000000000000000000000000000DA
:4025000000000000F0000000000000000000000000000000000000000000000000000000000000000000000000000000000000000000000000000000420000E3E160E10064
:4025400000000000620000E7E703E70000000000003D3D003D000000003B3B303000000043006890931393000000000049000070390939000200000000000000000000000A
:40258000000000000000000000000000000000000000000000000000000000000000000000000000000000000000000000000000000000000000000000000000000000001B
:4025C00000000000000000000000000000000000000000000000000000000000000000000000000000000000000000000000000000000000000000000000000000000000DB
:40260000000000000000000000000000000000000000000000000000000000000000000000000000000000000000000000000000000000000000000000000000000000009A
:40264000000000000000000000000000000000000000000000000000000000000000000000000000000000000000000000000000000000000000000000000000000000005A
:0200000490006A
:0400000000004004B8
:0200000490105A
:04000000BC90ACAF55
:0200000490303A
:02000000ECDF33
:0200000490402A
:4000000000000000000000000000000000000000000000000000000000000000000000000000000000000000000000000000000000000000000000000000000000000000C0
:400040000000000000000000000000000000000000000000000000000000000000000000000000000000000000000000000000000000000000000000000000000000000080
:400080000000000000000000000000000000000000000000000000000000000000000000000000000000000000000000000000000000000000000000000000000000000040
:4000C0000000000000000000000000000000000000000000000000000000000000000000000000000000000000000000000000000000000000000000000000000000000000
:0200000490501A
:0C00000000012E16106900012E25FD489D
:00000001FF