:4000000000800020110000002D0A00002D0A000008B5044B1A6803F53F5302331A6000F00DFD00BFFA46004008000223000008760800032300001076080004230000287675
:4000400008000523000030760500062300002070050007230000307005000823000060700500FE23000070703000FE220000405180010B220000000C00020C220000000E3E
:400080008000FE220000801A07000E230000005207000F23000008520700102300001052070011230000185206001223000060520700132300007852080014230000C85A53
:4000C0000C0015230000004F0C00162300000C4F4000172300000064200018230000706440001923000000652000FE230000706508001B230000005180001C230000000073
:4001000080001D230000800080001E230000000280001F23000080028000202300000004800021230000800480002223000000068000232300008006800024230000000883
:400140008000252300008008800026230000000A800027230000800A8000282300000014800029230000801480002A230000001680002B230000801680002C23000000189B
:4001800080002D230000801880002E230000001A10002F23000010501000302300000050800031230000004D800032230000804D800033230000004C800034230000804CEF
:4001C0008000352300000047800036230000804780003723000000468000382300008046800039230000004580003A230000804580003B230000004480003C2300008044F7
:4002000080003D230000001B80003E230000801B80003F230000001580004023000080158000412300000019800042230000801980004323000000178000442300008017E2
:400240008000452300000009800046230000800980004723000000078000482300008007800049230000000B80004A230000800B80004B230000000580004C2300008005E2
:4002800080004D230000800D80004E230000000380004F230000800380005023000000018000512300008001800052230000004980005323000080498000542300000048B3
:4002C0008000552300008048800056230000004380005723000080438000582300000042800059230000804280005A230000004180005B230000804180005C23000000400E
:400300008000FE23000080400100000001010000000048014001000000004800400100000000200140010000000020004000000010B5054C237833B9044B13B10448AFF3E6
:4003400000800123237010BD4081FF1F00000000F0160000084B10B51BB108490848AFF300800848036803B910BD074B002BFBD0BDE81040184700BF000000004481FF1F6B
:40038000F0160000C880FF1F0000000008B501F06DF90F4B1B780BB9012014E0022B01D1202010E0032B01D140200CE0042B01D1802008E0052B02D14FF4807003E0062BA9
:4003C00005D14FF40070BDE8084001F011B808BD7481FF1F10B50C4601F00AF901F0BCF8204601F087F8002010BD000070B5474E347834B901F002F8454B1880454B1C7000
:4004000003E000F0FBFF444B188035783F4C55BB3F4B1B88102B10D1012323703F4B188800F0E6FF3E4B188800F0D6FF3D4B188800F0D2FF374B1D705FE0202B01D102231A
:400440002AE0402B01D1032326E0802B01D1042322E0B3F5807F01D105231DE0B3F5007F4BD1062318E0012D08D12A4A1378012B8ABF00230133237013703EE0022D03D158
:40048000254B0020198804E0032D07D1224B01201988FFF79FFF002323702EE0042D0FD11D4B214A1B88214D180A002110702B7000F000FD287800F063FD00F03DFDEAE76D
:4004C000052D05D1144B1A88194BB2F57A7F09E0062D02D0002333700FE00F4B1A88154BB2F57A7F03D24FF47A721A80F2E7B2F5FA6FFAD94FF4FA62F7E700F067FF00F033
:4005000083FFBDE8704001F097B800BF7481FF1F9081FF1F8E81FF1F8A81FF1F7A81FF1F7681FF1F8C81FF1F9281FF1F7C81FF1F6E81FF1F8681FF1F38B500F027FF00F083
:400540009DFD102000F06AFD00F062FDC007FBD5142000F0E5FA002400F06CFD1028E5B20DD0052D0BD8142000F0DAFA002000F055FD00F04DFDC107FBD50134ECE7052DCD
:400580001FD8142000F0CCFA002000F047FD00F03FFDC207FBD500F04DFD000284B2142000F0BEFA002000F039FD00F031FDC307FBD500F03FFD204484B2282000F0B0FA4D
:4005C00004E0282000F0ACFA4FF47044204638BD80B500F007FE4FF4FA6000F08BFA012000F0A2FD002000F0D1FE002000F064FF032000F0C5FE00F0B3FA00F075FD00F0E4
:400600003DFD00F01DFD00F027FD00F0E3FF00F0A3FF00F07BFF00F085FF00F03FFF002000F0E6FE00F038FE00F096FE00F0E6FA384B00251D70384B1D7062B6DFF80481CB
:400640003648464600F0FEFF354C364800F0E2FF354B0F222580354D1A800020FFF76CFF28800120FFF768FF314B18800220FFF763FF304B18804FF4AF6000F051FA2E4BF3
:400680001A88B8F800309A4204D9D11A322908DD323303E0991A322903DD323BA8F8003001E0A8F80020254B254F1A883B889A4204D9D11A322907DD323303E0991A32293E
:4006C00002DD323B3B8000E03A80308800F0F2FD388800F04FFE00F021FD012817D127880137BFB2B7F5FA6F2780B6D172B600F0E3FE002000F044FE44F6206000F0FAF923
:40070000022000F011FD384600F0F4F9A5E700232380A2E77481FF1F8E81FF1F8D0300007081FF1FED0300009081FF1F7A81FF1F7681FF1F8C81FF1F6E81FF1F8681FF1FDA
:400740007281FF1F8881FF1F70B572B68A4B61221A700321A3F5F063884A19808848182313700B2202808370828083710281854A17201370508040F65F101371D080137298
:40078000814B02221A7008224FF040231A7083F800127E4B7E491B787E4EDBB20B707E4B19251A8041F25122002423F8022C3278782002F0010242EA440303F0030400F09D
:4007C0005BFF013D50D0032CF1D1744A4FF480731380734907231370482000230B7088700221137002F8031C6E494FF438700A7842F03F020A70604A812111706A490A7890
:4008000042F004020A70694A10211360684A1170A2F5BE6201211170537202F5FE621080644801704470644CA0F5FF70A0F8004247F60804A0F802420380604B4FF48040C1
:400840001880A3F2DD53092018700A2018740D2083F840001A2083F85000BFF35F8F153B1970BFF35F8F00E0FEE7118889B20029FBD15348534A544C50F8041F89B222F888
:40088000081BA242F8D1BFF35F8F01221A70BFF35F8F4E4A1378DD07FCD44D4A1378DC07FCD44C4A1378D807FCD44B4A1378D907FCD44A4A1378DB07FCD440F20312484B84
:4008C000484D1A80484A03F532430E331A60474A474C137843F002031370137C43F0020313742B78A2F5863243F040032B70413A137843F0100313703E4A3F4B07CA03C3DC
:400900001A803E4AB83307CA03C31A803C4A3D4B03CB1060516003CB42F8E00C42F8DC1C93E8070003C4384B2280384AA4F6785407CA03C31A80364A137843F00803137003
:40094000344B01221A70344B344A1B78DBB203F007011B0911705370314B02221A70314A20231370D370304B44221A7095E80F0007C4238070BD00BF004800408240004042
:40098000844000408E4000400043004008010049A146004025420040224200400440004006400040A2430040E84600406081FF1F00760040027800402800000006760040EE
:4009C000F01600000C780040EC7A004018700040287000403870004068700040787000404A580040A0430040040024A40350014020510040382100480051004044210048CA
:400A0000F251004050210048305100406C2100482243004004000840CF0100496E5800403D510040C85A00407658004008B500F033FE03680C2B00D1FEE7FEE780B51148ED
:400A4000114B0025C0B1A3F1100192C922460439161BB74204D051F8046F42F8046BF7E7114653F8046C8C1AA64202D041F8045BF9E701381033E5E700F014FEFFF7A8FDCF
:400A8000FEE700BF010000009C180000104A114B10B41A60104A114C1368114843F4007313600023032B98BF54F823204FEA830188BF0C4A0133302B4250F3D10A4B1A78E4
:400AC0000A4B1A700A4B064A10BC1A60FFF73CBE0004FA050CED00E014ED00E0000000000080FF1F2D0A0000BC760040C080FF1F08ED00E038B50446084DB4F5004F05D9A3
:400B0000286800F0B9FDA4F50044F6E7034B58686043BDE8384000F0AFBD00BFCC80FF1F024B1B7A584300F0A7BD00BFCC80FF1F054A00F01F00126800F1100352F823002F
:400B400042F82310704700BF08ED00E000F01F0000F16040490100F56440C9B201707047044A137843F020031370137C43F0200313747047A243004038B5134B0024012508
:400B80001C701D7300F080FD104A137843F01003137000F07DFD0E4B0F221A7008221A740C4B07211D602046FFF7D0FF0A492046FFF7BEFF094B10221A70094B1C70094BF1
:400BC0001C70094B1C7038BD78640040946400402665004080E100E0210C00009381FF1F9681FF1F9881FF1F9481FF1F024A137843F00203137070477864004010B5064CBA
:400C000023781BB9FFF7B8FF01232370FFF7EEFF024B01221A6010BD6481FF1F00E100E030B59649964B1B780A78DBB212F0400F0A4600F01C81D80740F105810978453979
:400C4000052900F20081DFE811F006006E00FE00FE000600C10003F0DF0103F00A03082B35D113788548452B25D1864B1B789BB1854B864C1B681B78DBB22370844B062489
:400C80001C70FF2403F8634C002403F8234C814B01241C70462318E07F4B1B7803F0020303F0FF048BB37D4C237843F00A0323706023037025E0764B02241C70FF2403F823
:400CC000634C002403F8234C4A230370BAE00A2B40F0B880714B187840F0A00018706E48007800F0020000F0FF0470B110781C7810F0080F14BF09200A2020431870602301
:400D00001370674B012018609CE06648037843F0200303705E4B52201870FF2003F8630C03F8234C8EE003F0020101F0FF0400292DD158485349057809788D4214D2524DD4
:400D400001782D68C9B2695C504DC9B22970504906250D70FF2501F8635C01F8234C01780131C9B201706EE04B49097801F0020101F0FF0421B14948017841F00A014CE0C9
:400D80004848017841F020010170522052E042490878424900F0020000F0FF0520B1087840F09A00087039E03E4C207840F020002070374852240470FF2400F8634C00F86E
:400DC000235C087840F0900008703CE0364C374825682E4C01782478C9B2E4B26C5401780131C9B20170324900780978884209D2274902200870FF2001F8630C002001F858
:400E0000230C20E02449097801F0020101F0FF0451B12248017841F009010170602111701F49012008600EE01E48017841F020010170122016490870FF2001F8630C01F810
:400E4000234C00E00B46990616D51378134913F0080F087814BF0123022303430B7011490B7803F0DF030B701023137030BD0B78DB065CBF10230B7030BD00BF9381FF1F0F
:400E8000646400409781FF1F9C81FF1F05640040786400409481FF1F9581FF1F9681FF1F80E100E084640040A081FF1F9881FF1FA481FF1F30B51B4A1378102B2CD11A4BC4
:400EC0001C7814F0100F1C464FF0010326D1174D98402B60C0B211B11843492300E045231370134B8221187083F87310FF211033197010490020087019780029FCD123788C
:400F0000DB07FCD5084B1B7803F00A030A2B07D110231370032030BD022030BD184630BD002030BD9381FF1F6464004080E100E005640040556400400D4B1A78520714D595
:400F40000C4A52211170FF21633A11700A490020087011780029FCD1084A102111701A7812F0210FFBD0002070470220704700BF6464004078640040556400409381FF1F2E
:400F8000134B1A7812F0040F1A461ED0062103F85F0C1975FF214F3B19700E490020087019780029FCD10C4B462119701178C907FCD5074A60211278197002F0020202F0DC
:400FC000FF0002B97047032070470220704700BF64640040556400409381FF1F08B500F053FB0A4A137843F020031370937843F01003937092F8013143F0100382F8013126
:4010000000F046FBBDE8084000F07CB897640040014B1878704700BF69640040034A13785B07FCD5024B1870704700BF6964004048650040014B1878704700BF5865004035
:40104000034A044913789B0601D50B78FAE77047686500405865004008B500F015FB064B1A7842F001021A701A7802F0FE021A70BDE8084000F00CBB9865004008B50B4A4F
:401080000B4913789B0601D50B78FAE700F0FCFA084B1A7842F001021A701A7802F0FE021A70BDE8084000F0F3BA00BF68650040586500409865004008B5074B0F221A7084
:4010C000FFF7DCFF054B064A1B78064B1B780023137082F8FF3008BD8764004069640040896400406865004010B5054C23781BB9FFF7E2FF01232370BDE81040FFF76EBF57
:401100006581FF1F044A137843F002031370137C43F0020313747047A2430040014B1878704700BF65650040014B1870704700BF73640040044A137843F002031370137C0D
:4011400043F0020313747047A74300400F4901280B7803F0FC0200F0030343EA02030B70A1F59051A1F10F01094A05D1094B1B78DBB20B70084B04E0084B1B78DBB20B70E1
:40118000074B1B78DBB21370704700BF41580040334600401101004915010049AF010049B701004908B50020FFF7D0FF0C4B1A7802F0DF021A701A7802F0FB021A701A78F9
:4011C00042F008021A7093F88E2202F0E70283F88E2293F88E2242F0080283F88E2208BD4158004010B5054C23781BB9FFF7DAFF01232370BDE81040FFF79CBF6681FF1F52
:40120000194A137843F002031370937803F08F0343F010039370154B1A7802F0CF021A701A7842F030021A701A7802F0F0021A701A7842F00F021A7041F2883223F8072CD3
:4012400040F2DC5223F8052C002203F8082C084A137843F00103137092F85E3B43F0010382F85E3B704700BF004F00400B4F0040A3430040074A137843F001031370137C83
:4012800043F00103137492F85D3B43F0010382F85D3B7047A343004008B505490B781BB9FFF7AEFF01230B70BDE80840FFF7E2BF6781FF1F014B1880704700BF064F00400B
:4012C000194A137843F002031370937803F08F0343F010039370154B1A7802F0CF021A701A7842F030021A701A7802F0F0021A701A7842F00F021A7041F2883223F8072C13
:4013000040F2DC5223F8052C002203F8082C084A137843F00203137092F86A3B43F0010382F86A3B704700BF0C4F0040174F0040A3430040074A137843F002031370137C90
:4013400043F00203137492F8693B43F0010382F8693B7047A343004008B505490B781BB9FFF7AEFF01230B70BDE80840FFF7E2BF6881FF1F014B1880704700BF124F004024
:40138000014B1870704700BF7B640040014B1870704700BF7464004008B500F075F90A4A137843F02003137012F8043C43F0100302F8043C92F8FF3043F0100382F8FF301D
:4013C000BDE8084000F064B99A640040014B1878704700BF69650040034A13789B07FCD5024B1880704700BF666400404A640040014B1880704700BF0A640040014B1888C3
:4014000080B270475A640040034A044913781B0701D50B88FAE77047696500405A64004008B50F4A0F4913781B0701D50B88FAE700F02AF90C4B1A7842F003021A701A78BD
:4014400002F0FC021A705A7842F003025A705A7802F0FC025A70BDE8084000F019B900BF696500405A6400409A64004008B5074B0F221A70FFF7D4FF054B064A1B78064BC4
:401480001B780023137082F8033108BD8A64004066640040866400406965004010B5054C23781BB9FFF7E2FF01232370BDE81040FFF772BF6981FF1F014B1870704700BF8F
:4014C0007964004008B500F0DFF8094A137843F020031370537843F010035370D37843F01003D37000F0D4F8BDE8084000F086B890640040034A13785B07FCD5024B1880F1
:40150000704700BF6164004042640040034A044913789B0601D50B88FAE77047636400405264004008B500F0AFF80A4B1A7842F001021A701A7802F0FE021A705A7842F07A
:4015400001025A705A7802F0FE025A70BDE8084000F09EB89264004008B50F4A0F4913789B0601D50B88FAE700F08EF80C4B1A7842F001021A701A7802F0FE021A705A78C5
:4015800042F001025A705A7802F0FE025A70BDE8084000F07DB800BF63640040526400409264004008B5074B1F221A70FFF7D4FF054B064A1B78064B1B7800231370937037
:4015C00008BD00BF8064004061640040816400406364004010B5054C23781BB9FFF7E2FF01232370BDE81040FFF76CBF6A81FF1F014B1870704700BF72640040044A1378A7
:4016000043F008031370137C43F0080313747047A2430040064A0423136002F688321268E0219064034A1170A2F202321360704780E100E002E400E0014B04221A60704744
:4016400080E200E0074A0223136002F688321268E0215064044A11706FF440710A441360704700BF80E100E001E400E0014B02221A60704780E200E00230800803D000BF0F
:4016800001380046FCD17047EFF3108072B6704780F31088704700BF014B1868704700BF3C81FF1F0E4B70B51E460E4C0025E41AA410A54204D056F8253098470135F8E7D3
:4016C00000F0D2F8084B094C1E46E41AA4100025A54204D056F8253098470135F8E770BD7418000074180000741800007C18000000000000250300001D0300001503000036
:401700000D030000080300000803000008030000080300006081FF1F6081FF1F6081FF1F6081FF1F00000048080000481000004818000048200000482800004838000048C9
:40174000400000484C000048D8090048180A0048380A0048780A00483000004858000048D800004858010048D801004858020048D802004858030048D8030048580400483E
:40178000D804004858050048D805004858060048D806004858070048D807004858080048D808004858090048980A0048A80A0048B80A0048380B0048B80B0048380C004818
:4017C000B80C0048380D0048B80D0048380E0048B80E0048380F0048B80F004838100048B810004838110048B811004838120048B812004838130048B813004838140048E9
:40180000B814004838150048B815004838160048B816004838170048B817004838180048B818004838190048B8190048381A0048B81A0048381B0048B81B0048381C004828
:40184000B81C0048381D0048B81D0048381E0048B81E0048381F0048B81F004838200048B820004843000000F8B500BFF8BC08BC9E467047550300008D0A0000F8B500BF3B
:40188000F8BC08BC9E46704731030000A0180000C880FF1F780000006800000000000000000000000000E02EC05D00001800000000366E01000000000000000000000000FB
:4018C000000000000000000000000000000000000000000064180000000000000000000000000000000000000000000000000000000000000000000000000000000000006C
:401900000000000000000000000000000000000000000000DC80FF1F000000000000000000000000000000000000000000000000000000000000000000000000000000002D
:401940000000000000000000000000000000000000000000000000000000000000000000000000000000000000000000000000000000000000000000000000000000000067
:401980000000000000000000000000000000000000000000000000000000000000000000000000000000000000000000000000000000000000000000000000000000000027
:4019C00000000000000000000000000000000000000000000000000000000000000000000000000000000000000000000000000000000000000000000000000000000000E7
:401A000000000000000000000000000000000000000000000000000000000000000000000000000000000000000000000000000000000000000000000000000000000000A6
:020000040003F7
:0200000480007A
:40000000A081000000000000301000000000000010121010680000003811000009010000268400000000000020000000000000003F00000000000000000000000000000455
:40004000004000000000000000003600004000000000000000003600609A00005698090201020098843800C0040000000A02100000000000849A00000713386484FC000313
:40008000802104D80498800200E07F0F000080130800000A0000400000000000000000000000000000000000000000000000022004040004333000010000000000000000C0
:4000C0000000000000000000000000000000000000000000000000000012000594186901000000002000D00000000000001D00020E0000003300C400000000005500AA00C0
:400100000008000000000000000100100F0EF0002000802000000005000000000000000000000000000000000000000009000000040400043330000100000000000000005B
:4001400000000000000000000000000000000000000000000000000003000401002A005400FF00000033000C00000000000E0030078000560000000000400013004600A95E
:40018000060001000000000001FF0200040000002A00000000001500320150000000000000FFFFFF02007008040000000000000004040404000300010000C00040011011BF
:4001C000C00100114001400100000000000000000000000000000000000001001B00000000000001200000001A0001000400680004001A001B000000420004001B0100004C
:40020000040170001B000000600000001E01010002002000000040003201500000BEFD0C1FFFFFFF2300F008040000004000000004040404033300010000C000400110111E
:40024000C001001140014001000000000000000000000000000000003501400064061100010402000000004075320008113F8800011C0E221001E01E002A00102422511826
:400280007518000600220000000000600F00F01F0080A0000000000000000000000000000000000000000000000000002000040004040004000000010000000000000000BA
:4002C000000000000000000000000000000000000000000000000000000100060000001B00010004001200010000000000000013000000130000000000000000000000009E
:400300000000000000010032000700080010002000000002000000102300000004DB000003FF7FFF42A070000C0000000000000000040400000000010009400930090000C5
:40034000000000000000000000000000000000000000000000000000000008001E0120000000100000000000000004001E00000000001E00000010000000010000001E00B7
:40038000000002000000000001001E002001000000000000000004000000000000000000000000000000000000000000410000000404000400200001000000000000000089
:4003C00000000000000000000000000000000000000000000000000040381DC00000FF003D02C298019A00005D00A2000421E0D801980002929A60000D980002001308644C
:40040000E202000000FC0203FFE0000F000000130000000A000001000000000000000000000000000000000000000000000002240404000410100001000000000000000078
:4004400000000000000000000000000000000000000000000000000084800000801D040000C20024040D8010011D00000A1D1000840000008402000D60000010041D000053
:4004800056820908072138427FE000008010080F0200008200005010000000000000000000000000000000000000F6000000000004040004110000010000000000000000B3
:4004C00000000000000000000000000000000000000000000000000000000001040000000000000000000100000000000000000000000000030000000000000000000000F3
:4005000000000000000000000400000001010200000000000000510000000000000000000000000000000000000000000900000004040004801000010000000000000000BC
:400540000000000000000000000000000000000000000000000000000000400000003C00000000000000020000000000430010000000000043000400000000004300080018
:40058000000000002000430040003E00010000000000000000001500020120000300000000FFFFFF0200700C8C100000000002200400242400880801000000000000000008
:4005C0004001C0010000000000000000000000000000000000000000000800070001000000FF00000003000000100007000300000001000000C0000700050078003A00044A
:4006000000010000002200050000007F0080000000200000000000040605600003EC0BDF37FFFFFF2300F00C8C1000000000080000042404002800010000000000000000DF
:400640004001C00100000000000000000000000000000000000000000300980000000B00C10014010200010000002000000403000100060000004000C000000080000B0040
:4006800080000B0003008006380400020701C00000002200000000010000000000000000000000000000000000000000000008000404000420500001000000000000000078
:4006C000000000000000000000000000000000000000000000000000020F010008001008040000200010020200000018003F00000010000104400080000001140800100037
:40070000000400080040008000001C00043F03C02820000000001400410000000000020004FFFFFF0000000000000000000000000404040405050001800040404040800010
:400740008000800080008000000000000000000000000000000000000080010000250A0A008000000021000400200002008F04000A260000004000000001002200210002AF
:4007800000080205000000100200041F0880016000A0000000001140240000000020005022FFFFFF42A0700008100000000000000404040000000001004840488048804891
:4007C0000000000000000000000000000000000000000000000000000043000C7E02000D05000A000000000004000900000000200000000003000400000000000005006A6B
:40080000301040005009206620000F60400F1010AA0000200000514000000000000000000000000000000000000000000000080004040004112000010000000000000000BA
:400840000000000000000000000000000000000000000000000000001F4D00920304200040A50B4A0302000042000904010000B540CC14134F000001901A0B6001A9005479
:400880000000010248FF02000000E0001F0040FF88000000000044406405200001DEFBC02FFFFFFF2200F008040000004000000004040404001100010000C00040011011B1
:4008C000C0010011400140010000000000000000000000000000000000000000000000000000000001000000010000000100000000000000000000000000000000000000A1
:40090000000000000000000001000000000000000000000000000100000000000000000000000000000000000000000020000000040000040020000100000000000000006C
:400940000000000000000000000000000000000000000000000000000000000000000000000000000000000000000000000000000000000000000000000000000000000077
:40098000000000000000000000000000000000000002000000000001000000000000000000000000000000000000000000000000000400000000000100000000000000002F
:4009C00000000000000000000000000000000000000000000000000000000000000000000000000000000000000000000000000000000000000000000000000000040000F3
:400A0000000000000000000000000000000000000000000000000000000000010000000000000003000000001F0000000000470F00000F000000000000000000000000002E
:400A40000000000000000000000000000000000000000000000000000000000000190F00000000000000000000000000000008000000000000000000000000000000000046
:400A8000000000000000000000000000000000000078000000000000270000000000000000002700070000000F000000000000000900070007000000000000000000000043
:400AC00000000000000000000000000000000000000000000000000000000000000000000000000000000000000000000000000000000000000000000000000000000000F6
:400B000000000000000000000000000000000000000000000000000000000000000000000000000000000000020000000000000000000000000000000000000000000000B3
:400B40000000000000000000000000000000000000000000000000000200000000000000000000000000000000010000000000000000000000000000000000000000000072
:400B80000000000000000000000000000000000000000000010000000000000000000000000000000100000000000000000000000000000000000000000000000000000033
:400BC00000000000000000000000000000000000000000000000000000000000000000000000000000000000000000000000000000000000000000000000000000000000F5
:400C00000000000000000000000000000000000000000000000000080000000000000008000000000000000000000000000000000000000000000000000000001000000094
:400C40000000000000000008000000080001000010000000000000000200000000000000000000000000000000000000000000000000000000000000000000000000000051
:400C80000000000000000000000000000000010001000000000000000000000002000000000000000000000000000000000000000000000000000000000000000000000030
:400CC00000000000000000000000000000000000000000000000000000000000000000000000000000000000000000000000000000000000000100000000000000000000F3
:400D0000000000000000000000000000000000000000000000000000000000000000000000000000000000000000000000000000000000000000000020000000000000048F
:400D400000000000000000400000000000000000100000002000004002000000000000000000000000000000000000000000000000000000000000000000000000000000C1
:400D8000000000000000010000000000000000000000000000000000080000000000000000000000000000000000000000000000000000000000000000000000000000002A
:400DC00000000000000000000000000000000000000000000000000000000000000000000000000000000000000000000000000000000000000000000000000000000000F3
:400E00000000000000000000000000000000002000000000000000000000000000000000000000000000000000000000000000000000000000000000000000000000004052
:400E400000000000000004000000004000000000100000002000044002000020000000000000002000000000800000000200020000000000000000000000000000000000F4
:400E8000000000000000000000000000020000000000000000000000000000000800000000000600020000000000000000000000000000000000000000000000000002001E
:400EC0008000000000000040100000000000000000000000000000000000000000000000000000000000000000000000000000000000000000000000000000000000000022
:400F00000000000000000000000000000000000000000044000000000000000020000000000000000000000000000000000004000000000000000000000020000000000029
:400F4000000000000000000400000000000000000000000000002000000000000000000000000000000000000002000000000000000000000000000001000600080000003C
:400F80000000000000000000000000000100020001000000020000000000000008000000010000000000000000000000000000000000000000000000000000000000000022
:400FC00000000000000000000000000000000000000000000000000000000000000000000000000000000000000000000000000000000000000000000000000000000000F1
:40100000000000000000000000000000000000000000000000000000000000000000000000000000000000000000200000020000000000000000000000000000000000008E
:401040000000000000000000000000000000000000000000000000000000000000000000000000000000000000000000000000000000000000000000000000000000000070
:40108000000000000000000000000000000000000000000001000400000000000000000000000000000000000000000000000000000000000000000000000000000000002B
:4010C00000000000000000000000000000000000000000000000000000000100000000000000000000000000000000000000000000000000000000000000000000000000EF
:4011000000000000000000000000000000000000000000000000000000000000000000000000000000000000000000000000000000000000000000000000000002000000AD
:40114000000000100000000000000020000002000000000002000000000000000000000000004000000001020400000602202240000000000000000000000000000000006A
:40118000000000000000000000000000000000000000000000000000000020000000000050008000C000000000000000000000000000000000000000004220045000812028
:4011C00000044500000000024004022000044000009205000088002000010404000080080200000002020004000004008000022400001000100A004000000030008041001B
:401200000000000000000000000000000000800000008000400000000000400000000000000000000000000000000000000000000000000000000000814000100200000853
:4012400000040040000000001000C0080202000442001024009200180005220100088010000000000000200048100100000209000000000000000000FF008F003F00000019
:401280000000B800F200F40090000000000018000800000000000000000000000200000000002C00800002000000000000000000000000000000000000400000402480000C
:4012C0000002001008000980000000004004021000020000000008540000000000008000000000000800811000000000082000410000000040842A00000000000222000003
:4013000000000000004900110000000000015002000000020000000010002002200010010000000000000000000000000000000000000000000000000000C00000120000C9
:4013400048002000000080001040C110002100A020040851400A42000C62000102010000402100000000011100001210402100000000000000000000F100FC00F000000055
:401380000000F000F000F000B0003000000001007E00000000000000A00040004000020040000000A0000000000000000000000000000000000000002008040002001000BE
:4013C00001000001000000240A00000004000000802802000004809004004400200438018100448800450004000004000002802404000001100800420000000000000011A6
:4014000000000300000000020000000000010000000020400000000002001000000000000000000000000000000000000000000000000000000000000000004401000408E3
:401440000001100440600000100560412410002004000024889660081A000100000C70000000100001000848101000000040020000000000000000003600690043000000C3
:401480000000FE00F200F300A000000000000C000C000000000000000100120040001300080003000000020000000000000000000000000000000000880280004000108044
:4014C0002090000000404410000000000464400001900001006040000400000000124000000000002441000000000000000042040000010040020410000000000000000076
:4015000000000000000000000000000000000000006900000000000000008000000000000000000200000018000000000800084180000000000000000050000C20040080D7
:4015400000000C000840000290008000050001A08004010040800A1044C000000A000000000400000000000000000040041000000000000000000000B500F100F000000004
:401580000000F000D000F1000000000000000F000800000000000800400020002C00100000001000100080000000000000000000000000000000000000022A0020060400C9
:4015C0005004004040002A4001210004800000280000400010000C01200184010010000400006220000000002000044004080000802200000000080000000000000000002C
:401600000000000000000000000000000000000000000000000890000400000000000020606000400000000040000000000000000000000000000000400008004001000025
:401640003000000000008220000520040010044204000020899604040A000900001C10080000404100000108000040000000004400000000000000007F00FF007F0000007C
:4016800000000F000E004D0000000000000070004400000000000000030000000A0001000000000001000000000000000000000000000000000000004600010000000000B6
:4016C0002000220400000000004400000000000000109C00000000000000000008000800000000000A00011000000000400400120000000000A00A0001001404000000046C
:401700000100004040800404000000004500000000000000200000400100000002002000004422000000600000000000000000008000200080000000000000028000200050
:4017400000000800131000004000000000004000000000000000000000C02000000010000000000000000000008020004000000000000000000000000D00050005000000D7
:401780000000F000F000F0004E003000000030003800000000001A0000004000000092000000200044000000000000000000000000000000000000000016200000000000ED
:4017C0000000194000100004000808000000000000200900000000000000082100610010010204080000000110000244000400102000008500A21400000000008808000044
:40180000000000001001400000000000000000000090000A0000000000204080000000000A0000000000000000000000000000001000080000000000000021000400000096
:4018400000200042000010000020000000050040000000000802000000000300001418004108000800000000000000000000000800000000000000000E000F0006000000DC
:4018800000001F006F00FF00E000000000000F000D0000000000000000000800010010000000200004000000000000000000000000000000000000000000400000400000E2
:4018C00000000000000000000000000000000000000000000000000000000000000010000000000000000000000010000000000000000000000000000000000000000000C8
:401900000000000000000000000000000000000000000000000000000400000010000000000000000000000000000000000000000000000000000000480040000200000009
:401940000100190000000400240001010010000041000800000400110010000000000300080000100006000000000000000018000020000000290060048430100480201047
:4019800000888000008000800000500400000000000000000000000000085000000000000080000801100000000000000000000000000000000000000000000000100010BA
:4019C00000000000004400010408050100000008010001000008000024800048000080000000802000000000000000000000000000000000000000001D004F004F000000B7
:401A00000000C6006000F4007E001800000000000E000000000000000200500000000000000000000000000000000000000000000000000000000000840081080440000045
:401A400048000140000004012310000100080000010000480040040000840841040000A009000A000420000444000000080008000014014004000A010000000000000000AB
:401A80000000000000000000000000000000000000000000012800800040000000008000661400000000000000000100000000000000000000000000000000000000000042
:401AC0000000000000000000000000000000000000000000000000000000000000000000000000000000000000000000000000000000000000000000AF00CD002F0000003B
:401B000000002F004A00CF00000000000000F00018000000000000000000000000000000000000000000000000000000000000000000000000000000000020000010000025
:401B4000100000000000000000000000000000000000000000000000000000080000000000000000000000000000000000000000000000000000000000000000000000004D
:401B80000000000000000000000000020008000000000000040000000000000000000008000000000000000000040000000000800000000000000000001020001000000249
:401BC0000000000000000000040000080000000000040080000000080008000000000000040000001004000004000008000000000000000000000000900040000000000051
:401C0000100000000000000000000000C0008000800000008000200000001000E00000000000200000004000000000000000000000000000000000000000000000000000E4
:401C40000000000000000000000000000000000000000000000000000000000000000000000000000000000000000000000000000000000000000000000000000000000064
:401C8000000000000000000000000000000000000000000000000000000000001000000000040000000000000000000000000000000000000000000000000000000000040C
:401CC0000000000000050080000000000000000000010000000000000008000004000000000000000000000000000000000000000000000000000000000000000000000052
:401D000000000000000000000000000000000000800040000000000000000000000010000000000000000000000000000000000000000000000000000000000000000000D3
:401D40000000000000000000000000000000000000000001000100000000000000000000000000000000000000000000000000000000000000000000000000000000000061
:401D80000000000000000000000000000000000000000000000000000000000000000000000000000000000000000000000000000000000000000000000000000000000122
:401DC000000000000000000000000000000000000000000000000000000800000400000080080000000000000000000000000000000000000000000000000000000030001F
:401E000000000000000000000000000000000000000000000000000000000000100000000000A00000000000000000000000000000000000000000000000000000000000F2
:401E40000000000000000000000000000000000000000000000000000000000000000000000000000000000000000000000000000000000000000000000000000000000062
:401E8000000000000000000000000000040000000000000000000000000000000000000000000000000000000000000000000000000000000000000000000000000000001E
:401EC000000000000000008000000000000000000000000000000080000000008000000000004000000000000000000800000000000000000000000000000000000000001A
:401F000000000000000000000000000040000000000000000000000000000000000000000000000000008000000000000000000000000000000000000000000000000000E1
:401F40000000000000000000000000000000000000000000000000000000000000000000000000000000000000000000000000000000000000000000000000000000000061
:401F8000000000000000000000000000000000000000820000080000000000000000080000000000000000000000000000000000000000000000000000000000000001008E
:401FC00000000000000808000000000000000000000000000000008000000000800000080000000000000000000000000000000000000000000000000000000000000000C9
:402000000000000000000000000000008000C000800000000000000000000000000040000000000000000000000000000000000000000000000000000000000000000000A0
:402040000000000000000000000000000000000000000000000000000000000000000000000000000000000080000008000000800000000000000000000000000000000058
:402080000000000000000000000000000000000000000000000000000000000000000000000000000000000000000000000000000000000000000000000000000000000020
:4020C00000000000000000000000000000000000000000000000000000000000000000000000000000000000000000000000000000000000000000000000000000000000E0
:402100000000000070000000000000000000000000000000000000000000000000000000000000000000000000000000000000000000000000000000400000E1E160E100EC
:4021400000000000620000E7E703E700000000000020200020000000003B3B303000000040006892921092100000000049000079300939000200000000000000000000005B
:40218000000000000000000000000000000000000000000000000000000000000000000000000000000000000000000000000000000000000000000000000000000000001F
:4021C00000000000000000000000000000000000000000000000000000000000000000000000000000000000000000000000000000000000000000000000000000000000DF
:40220000000000000000000000000000000000000000000000000000000000000000000000000000000000000000000000000000000000000000000000000000000000009E
:40224000000000000000000000000000000000000000000000000000000000000000000000000000000000000000000000000000000000000000000000000000000000005E
:0200000490006A
:0400000000004004B8
:0200000490105A
:04000000BC90ACAF55
:0200000490303A
:02000000708806
:0200000490402A
:4000000000000000000000000000000000000000000000000000000000000000000000000000000000000000000000000000000000000000000000000000000000000000C0
:400040000000000000000000000000000000000000000000000000000000000000000000000000000000000000000000000000000000000000000000000000000000000080
:400080000000000000000000000000000000000000000000000000000000000000000000000000000000000000000000000000000000000000000000000000000000000040
:4000C0000000000000000000000000000000000000000000000000000000000000000000000000000000000000000000000000000000000000000000000000000000000000
:0200000490501A
:0C00000000012E16106900012E1F80F177
:00000001FF