:20000000A0C10000000000001000000000000000819200006B0200002801000009010000BC
:20002000C2840000000000002814000000000000FF0000000000000000000000000000043B
:20004000005000000000000000004B00005000000000000000004B00008400000E0A0010BE
:20006000000400804407093865011A0000000000008000041304240000560009008400004E
:200080000084000040600000707F00800F080002200202000000005400000000000000003C
:2000A0000000000000000000000000000900000004040004333000010000000000000000C7
:2000C000000000000000000000000000000000000000000000000000009A000000980002EC
:2000E0000002009800020100003800C000130064022101D800000200009A0000000000005C
:2001000000FC00030098000200E0000F001303000000000A000000005100000000020000E4
:2001200001FFFFFF0000000000000000000002280404040417170001800040404040800058
:200140008000800080008000000000000000000000000000000000001D8400000284040074
:200160001D80000402600D000004000002070838010A02101D010000008410001D00000036
:20018000005600090D0410800F7F10800008000200020200000004546203400005DEFBC098
:2001A0002FFFFFFF2200F008040000000900000004040404111100010000C0004001101197
:2001C000C001001140014001000000000000000000000000000000000000010000000000CA
:2001E0000000000000000000000000020000000000000000050000000000000000000001F7
:200200000000070000000000010100010402020000000000000011000000000000000000BB
:2002200000000000000000000000000041000000040400040220000100000000000000004E
:20024000000000000000000000000000000000000000000000000000000013000100040086
:200260000101063200010B06000078000300201302000113001278017800031B7800800055
:20028000030140040000430080070708001078200000080200004010630000000000025086
:2002A00024FFFFFF42A070000810F600000000000404040400440001004840488048804808
:2002C000000000000000000000000000000000000000000000000000000000002E0051009F
:2002E0000003000400000000000000004C003000100068000400000000000000190762007D
:200300000000000000050002000207007804000100A2280000000051000000000000000035
:2003200000000000000000000000000040000000040400040110000100000000000000005F
:2003400000000000000000000000000000000000000000000000000000000000000000009D
:20036000000E00100038000000000000000000010014002B000000000000000002000000E5
:200380000110002700000000010000030000023C0080000000000100000000000000000062
:2003A0000000000000000000000000000000080004040004147000010000000000000000A4
:2003C0000000000000000000000000000000000000000000000000003F050078010100005F
:2003E00098010600A201180001081E07B21008079CC02207003A400422FF00000603000077
:20040000AA03100004220005807F1F00600000800A8000000000010100000000000000006A
:20042000000000000000000000000000200004000404000444000001000000000000000047
:200440000000000000000000000000000000000000000000000000000DA5000A01A100043A
:2004600001A10002000002100001082292A66000E24000000000FF0040081D053D0FC2006A
:200480005D00A20004A0E002001F00000060FF8000A00000000040500000000000000000A9
:2004A000000000000000000000000000000000000404000000000001000000000000000033
:2004C0000000000000000000000000000000000000000000000000001001071E01040000E1
:2004E0000132000808060700222A0510050178003A1C0422C02207180300004001180006EE
:20050000FF3F0000032200007F00001F006080008008000000000100000000000000000071
:200520000000000000000000000000000000000004040004000000010000000000000000AE
:20054000000000000000000000000000000000000000000000000000000F00004800002024
:2005600000FF000000000308000004004000024010902101000401080000009410002198BF
:2005800048C0000000900002070008C03800403FA8800200000014003200000006D0000BEA
:2005A00012FF7FFF42A070000C00000000000800040404040020000100094009300900008A
:2005C000000000000000000000000000000000000000000000000000002400510175000030
:2005E000006400110000000000000200007500000201000E001000E0000000000211008873
:2006000000010002003500400200000F010000F000000088000000000000000000000000D8
:2006200000000000000000000000000020000000040400040020000100000000000000006D
:20064000000000000000000000000000000000000000000000000000000201040000000093
:20066000000000000000000000000000000000000000000002000000000800000002000569
:20068000000000000000000802010006000001080020000000000150060260000500000062
:2006A00000FFFFFF0200700C8C1000000000080004042404022800110000000000000000B0
:2006C0004001C00100000000000000000000000000000000000000000000000000002104F3
:2006E00000011E00000000000000000100000000410104000001000041000200000000014F
:2007000041000800100641000001200440021F0000000000000050150602600005EDCF0B1A
:200720001FFFFFFF2300F00C8C1000000000022404042424088808110000000000000000C3
:200740004001C0010000000000000000000000000000000000000000000900360010000048
:20076000000000000002000D000000000023000C0005003A000000000000000000000000FC
:200780000000000000000000000000000030000F002000800000000035012000060000001E
:2007A00000FFFFFF02007008040000004000000000040404303300010000C00040011011EC
:2007C000C001001140014001000000000000000000000000000000001A10010004C41010B2
:2007E000041008C41B00000004C41A10020904C600D401001BC1000600D400001B00000091
:200800001B98002300E700181E00019800780007000002A0000004003105600002CDB0EF23
:200820003BFFFFFF2300F008040000000000022004040404333300010000C00040011011A6
:20084000C00100114001400100000000000000000000000000000000010F0E0000104002D4
:2008600071040808054020002500000804002100717F0200004010200000000025100001A4
:2008800000000018040001140F3F0000404030000022020000000000000000000000000005
:2008A0000000000000000000000000000000000004040000440000010000000000000000EB
:2008C0000000000000000000000000000000000000000000000000003000000000163001A1
:2008E0001000400001130A041012600520001410000130080001000E011702003017000012
:200900000020300000003000700003300800040F000802800000000400000000000000000B
:20092000000000000000000000000000000000000404000444000001000000000000000066
:20094000000000000000000000000000000000000000000000000000000000000000000097
:20096000000000000700000000000001000000000000000000000000030004000000000068
:20098000050002000000000002010400010000002A00000000001500000000000000000009
:2009A0000000000000000000000000000000000004040004400000010000000000000000EA
:2009C0000000000000000000000000000000000000000000000000000000000020004100B6
:2009E000200042000000041310010006001208010F00800000010F1A100100040F0000135C
:200A000000000F00000008330F07700810108020280000020000151036000000050D00B0F7
:200A200021FF7FFF42A070000C000000200004000404040444440001000940093009000072
:200A4000000000000000000000000000000000000000000000000000CCA5134A4DA99254EC
:200A6000A5CC4A1300020200004D04921AFF600000040100FF0000B504000004021A00600B
:200A80000000B502A9005401000000000000FFFF0000000000004040000000000000000023
:200AA00000000000000000000000F600000000000404000400000001000000000000000033
:200AC0000000000000000000000000000000000000000000000000001F0000004F000000A8
:200AE00001000000480002004240091340460BA9400E143090000B01038020560033010C6C
:200B000001FF0000032A00540000E0FF1F0000FF080000000000040000000000000000004B
:200B20000000000000000000000000000000000004040000000000010000000000000000AC
:200B4000000000000000000000000000000000000000000000000000000F004000000062E4
:200B60000006012033000C104600A900800056000E05300A00000080FF0100020001000268
:200B80002A08542540011324FFE00000001F000000000002000000003200000000000052AE
:200BA00030FFFFFF42A07000081000000000000004040404440000010048404880488048E9
:200BC000000000000000000000000000000000000000000000000000010100000140001DB5
:200BE000030400E01F00000240010B0003002008420D0900405D14A200E201004F0000FF9A
:200C0000903D0BC2489202601F000000E00000FF2000000000001040000000000000000090
:200C20000000000000000000000000000000000004040000040000010000000000000000A7
:200C4000000000000000000000000000000000000000000000000000000000000000000094
:200C6000000000000000000000000000000000000000000000000000001900000F0000004C
:200C8000000004000000000000000000080000000000000000000000000000000000000048
:200CA0000003000000000000000F00470000000000000078000F001F000000000000000035
:200CC000000000000000000000000000000000000000000000000000000000000000000410
:200CE00000000F0000000000000000000000000000000800000000000000000000000000DD
:200D00000000010000000000000000000000000000000000000000001100000000000000C1
:200D200000001000110000009F000000000000008F00930005000D000000000000000000BF
:200D4000000000000000000000000000000000000000000000000000000000000000000093
:200D6000000000000000000000000000000000000000000000000000000000000000000073
:200D8000000000000000000000000000000000000000000000000000000000000000000053
:200DA00000000000000000000000000000080000000000000000000000040000000800001F
:200DC00000000000000000000000000000000000000000000000000000000000000400000F
:200DE0000000000000000000000000000100000000000000000000000000000000000000F2
:200E00000000000000000000000000000000000000000000000004000000000000000000CE
:200E20000000000008000000000000000000000000000000000000000000000000000000AA
:200E4000000000000000000000000000000000000000000000000000000000000000000092
:200E6000000000000000000000000000000000000000000000000000000000000000000072
:200E8000000000000000000000000000000000000000000000000100010000000000000050
:200EA00000000000000000000000000000000000000001000000000000040000000000200D
:200EC0000000000000000000000001000000000000000000000400000000012000040000E8
:200EE000000080400000000000000100000000000000000000000000000000000000000031
:200F00000000000000000000000000000000030000000000010000000000000000000000CD
:200F20000000000001000000000000000000000000000000000000000000000000000000B0
:200F4000000000000000000000000000000000000000000000000000000000000000000091
:200F6000000000000000000000000000000000000000000000080000000000000000000069
:200F8000000000000000000000000000000000000000000000000000000000000000000051
:200FA0000000000000000000000000000000000000000000000000000000000040000000F1
:200FC0000000000000000100000000000000000000000000000400400000802040000000EC
:200FE0000000000000000000400000000000000000000000000000000000000000000000B1
:201000000000000000000100000000000000000000000000000000000800000000000000C7
:2010200001000000000000000000000000000000000000000000000000000020000000008F
:20104000000000000000000000000000000000000000000000000000000000000000000090
:20106000000000000000000000000000000000000000000000000000000000000000000070
:20108000000000000000000000000000000020000000000000000000000000000000000030
:2010A000000000000000000000000000000000000000000000000000000000000000000030
:2010C0000000000000000000000000000000000000002000400400400000800040000000AC
:2010E000000000000000000001200000810000000000000000000000080000000000000046
:201100000000000000000000000000000200000000000000000000000000000000000000CD
:2011200000000F00000000000000000000000000000000000000000002000000022000007C
:2011400080000000000100000000800000000000000000000000000000000000000000008E
:2011600000000000000000000000000000000000000000000000000000000000000000006F
:201180000000000000000000000000004000000040000000000000000000080000040000C3
:2011A00000000000000000000000000000000000000000000000000000000000000100002E
:2011C000000808000000000000000000000000000000200000000040000000000008000097
:2011E0000000200000000000000000000000000000000000000000000D00060008000000B4
:201200000000000000000000000000000300000003000000000000000000000005000000C3
:201220000000000000000000000000000000000000000000000000000000000000000000AE
:2012400000000000000000000000000000000000000000000000000000000000000000008E
:2012600000000000000000000000000000000000000000000000000000000000000000006E
:2012800000000000000000000000000000000000000000000000000000000000000000004E
:2012A0000000000000000000000800000000004000000000000000000000000000000000E6
:2012C00000000000000000000000000000000000000000000000000000000000000000000E
:2012E0000000000000000000000000000000000000000000000000000000000000000000EE
:201300000000000000000000000000000000000000000000010004000000000000000000C8
:20132000000000000000000000000000000000000000000000000000002000020100022860
:20134000280040008050402040200200280060800001400000108002003002800000800086
:201360000801001240006220002080000020400900002284012001840400100000300000F7
:20138000000000000000000008000100000000000000000000000000000000000000000044
:2013A00000108000000000000000000000000000000000000000000008000020801000865F
:2013C00000000021002000180400118000A0C00060004001081001080000004008000200B3
:2013E0000001C4000000120000900100000000000000000000000000F300FE00FB00000099
:201400000000FF00FC00FF0006000000000000000000000000000000140000004800000070
:201420000000000090002000000000000000000000000000000000008422000000209002A4
:201440006004018020004020210000000024020104030100000046050012300000088000C2
:2014600004008020200002641100400011249000002A4000800C80000002000100000000B3
:201480000000000000000000000000000000000000000000000000800400000800000000C0
:2014A0000000000000000000000000000000000000000000000000000002141010040042B0
:2014C00008008000040400000002800000000482250450804801040040041020100821047D
:2014E000000400204802000001001010001000010000000000000000FF007F00F5000000D9
:201500000000EE00FD005F0000000000000010000000000000000000040008000400000061
:20152000000006001000000000000000000000000000000000000000082080220081180032
:2015400082090A0040040084810400200880000900000C180000004022080000004000002A
:20156000860000100000A220800800228420050000000000A00204002014080000000000DE
:2015800000000000000000000000000000000000000000000000000000000000000000004B
:2015A0000000000004040000000000000020A22400000102000000000000400000000000FA
:2015C00000000000001800000400120408040C006100400100002304C4010442194000088C
:2015E000100040000000008000008004000000000000000000000000FF00FF00FF0000009A
:201600000000FF00FF00F00000000000000000000000000000000000000040000100180083
:2016200000008000A100040000000000000000000000000000000000A000002000000002C3
:201640001404450000000000010064000010000100A8C1000000001A0440050000000040AB
:20166000108000800000000000000540000805000080000000000000200000000080008068
:2016800000040500000000000200000000000000481100004002002404000042000000003A
:2016A0000000000000100001000000000000000000000000000080404000000800020046C9
:2016C000000000002010000000020010000000200000400205240000008010A11A1AA00434
:2016E0000801000800000C0000408000000C0000000000000000000087000F005F0000000C
:2017000000000B008B00080002000C000000FF000D00000000000000000000000000080009
:201720000000440080004C0000000000000000000000000000000000020400060042320415
:201740000001250001004960810018000000884802010000000000400808100884018040A0
:20176000005108000000811200081042000200180218004020920C200000000000000000D1
:2017800000100C20000000000000000000000000000000000000000000000000000000000D
:2017A000002080000000000000000000000000000000000000000000000000004008400001
:2017C00000000000600000002008530088202C800002001100000108C00004C20801001817
:2017E000000404020000010005000800000010400000000000000000FF00FF00FF00000084
:201800000000DF00EF00FF0000000000000000000000000000000000520000000000100099
:201820002000C00040000000000000000000000000000000000000002008008200000000DE
:2018400004008600000000008A0010000800000800180421400000800000410000400802CC
:2018600001041086000000040402A0000000081000000096008020000000000000000000D5
:2018800000000000000000000000000000000000800128004000000004400080008000001B
:2018A00000000000000840480000000000000000000000000000000000000040000410D074
:2018C0000000000000104241040A201C000000008000E01800A000008080000000180200F9
:2018E000800C00040000000240000100C000000000000000000000000F000F006F000000C8
:2019000000002F006F003F000000000000001F001D0000000000000008000000080040005E
:2019200000000400000007000000000000000000000000000000000008000002080000008A
:20194000000009A0000048000800000800002000004113228000481002080000200080204E
:20196000000120190000001A004C1000000080288000092000020420000000280000000018
:2019800080020800000000000004000000000000200000400000000102000008100010022C
:2019A000000000000000000000000000000000000000000000008080000000040000100112
:2019C0001240140100000000000000030020000020000050000000000040180001000000B4
:2019E00000020000000000000004080002000120000000000000000025005F00260000000C
:201A000000007F007E00EF000600040000008C007C00000000000000000080000000000048
:201A20000000900080000000000000000000000000000000000000004008008800000010B6
:201A4000600440000000240220200202000020000001620800002414040044408800800025
:201A6000000100040000002220004400000000000020004000100000000800000000000063
:201A80000020000000000000000140000000000000000000000000000000000000041001D0
:201AA0000008000800100002800080140000000000000000000000000802004000000004A2
:201AC000000000804000000000200001080000282004305008820000208000210000800086
:201AE000200000000000E840300000000000000000000000000000002F00EF002F00000021
:201B0000000055000E002C00020004000000000070000000000000000200000000001C00A2
:201B2000000011000000000000000000000000000000000000000000100400000000800000
:201B400000000400008000018A0000000000000010900840000000812420008000421010E7
:201B600002040000000080A0A200000020002000081000000200000004000000002000001F
:201B8000009600100000048004802000000000000000000000000090040000000000900053
:201BA000AA10040000000000000000000000000010000100000000080006004010001008E0
:201BC0001010000000000000000000000000000000000000000000000000000000200000C5
:201BE0000D0836000020000008580000020121000000000000000000160082000B00000053
:201C00000000DA000D00860024003C00000030003400000000002C00000000000000020065
:201C20000400100060000000000000000000000000000000000000000002000041000810D5
:201C40000000020084000800098000000041000400004210400400002012000000402840B8
:201C6000200000008440000600020000002006580000000001200E80000000000400600ADD
:201C80000000000002250001000000000000104108006000001400420000002001000000EC
:201CA000000000000000000000000000000000000000000000000000060010000800000006
:201CC000001000010000000000000400000000280000021C008000008090022200000001F4
:201CE000440100010000000000080000000500000000000000000000F800E100B200000006
:201D00000000B200F100F000E00030000000FE00120000000000000000000200000004000A
:201D2000000009000400010000000000000000000000000000000000000000000202200A67
:201D4000000000000008410400000000000000140000000010004000044000010008A008DD
:201D6000000000000200110000082000002280080480010000250000211000002800010872
:201D80000200040008090204000000000001001400000000000000001040000800000001B8
:201DA0000000000001A4011400000000000000020000000000000000001000100020010224
:201DC00000458000000000000000000000000000000000000000000000000000000000003E
:201DE000000000000000000000000000000000000000000000000000F000F00060000000A3
:201E00000000B000F600EB007E003C00000000001E000000000000000000A0000000A00019
:201E20000000000000000000000000000000000000000000000000004000002000800000C2
:201E4000000100010080000802000000200800004001002000800000002A84000000021825
:201E600012210000800000062042000000000218882100000060060000000000008000009E
:201E80000000000000800008000000000000000020064000000000000000800000000020B4
:201EA00000000000802004060000000000000200004000010000000022204000100304009C
:201EC00002740000000200000000000000000000000000000000000000000000000000008A
:201EE0000000000000000000000000000000000000000000000000008500C9000100000093
:201F00000000BF00ED00FF001000100000000F004800000000000000000009000000130083
:201F2000000000000000000000000000000000000000000000000000000020001000000071
:201F4000002000000000000000000000000000000000000000000000000008000000000059
:201F6000000000000000000000000000000000000000000000000000000000000000000061
:201F800000000000000000000000000000000020000001800000000200000000000000009E
:201FA0000000000000000000000020000000000000000000800000001000088000002000C9
:201FC00000000000000000000000010000000000800020020000000000000020002000001E
:201FE00000000200000000000000000000020000000000000000000090004000000000000D
:20200000400000000000000000000000C000C000000000008000200020008000C000000000
:2020200080000000000000000000000000000000000000000000000000000280000000019D
:20204000000000000000000000000000000000000000000000000000000000000000000080
:20206000000000000000000000000000000000000000000000000000000000000000000060
:20208000000000000000000010000000800000000000800000000000000000000000000030
:2020A0000000000000000000000000000000000000000000000000008000008000202001DF
:2020C00000000000000000002000810000000000000000020020000080020020002000007B
:2020E000000040000000010000000002800000200000000000000000D0000000000000002D
:20210000000000000000000000000000E00000000000000000000000400010002000C000AF
:2021200000001000000080000000000000000000000000000000000000000000000000000F
:2021400000000000000000000000000000000000000000020002000000000000000000007B
:2021600000000000000000000000000000000000000000000000000000000000000000005F
:2021800000000000000000000000000000000000000000000000000000000000000000003F
:2021A00000000000000000000000000000000000000000000000000000000010008000008F
:2021C0000000000010000000000000000000000000000002002000100000000000A000001D
:2021E0000000000000000000000000000000000000000000000000000000000000003000AF
:2022000000000000000000000000000000000000000000000000000000002000000040005E
:2022200000000000000000000000000000000000000000000000000000000000000000009E
:2022400000000000000000000000000000000000000000000000000000000000000000007E
:2022600000000000000000000000000000000000000000000000000000000000000000005E
:2022800000000000000000000080000000000000000000000000000000400000004000003E
:2022A0000000000000000000000000000000000000000000000000000000000200400000DC
:2022C00000000000000800000000000000000000000000000020001000000000002800009E
:2022E0000000000000000004000000000004000000000000000000000000000000000000D6
:202300000000000000000000000000002000C000000000000000000000000000000090004D
:2023200000000000000010000000000000000000000000000000000000000000000200008B
:2023400000000000000000000000000000000000000000000000000000000000000000007D
:2023600000000000000000000000000000000000000000000000000000000000000000005D
:20238000000000000000000000000200000000000000000000000200000800000000000829
:2023A0000000000000000000000000000000000000000000000000000020010000000000FC
:2023C0000000000000000000000000000000000000000000002600100000020000000000C5
:2023E0000002000000000002000000000000000000000000000000002000000000000000B9
:2024000000000000000000000000000080008000C00000000000000020000000000080005C
:2024200000001000200000000000000000000000000000000000000000000000000000006C
:2024400000000000000000000000000000000000000000000000000000000000000000007C
:20246000000000000000000000000012002400000000000000000000000000000000000026
:2024800000000000000000000000000000000000000000000000000000000000000000003C
:2024A00000000000000000000000000000000000000000000000000000000000000000001C
:2024C0000000000000000200000000000000000000000000000000000000000000000000FA
:2024E0000000000000000000000000000000000000000000000000000000000000000000DC
:2025000000000000F0000000000000000000000000000000000000000000000000000000CB
:20252000000000000000000000000000000000000000000000000000420000E3E160E10054
:2025400000000000620000E7E703E70000000000003D3D003D000000003B3B3030000000D4
:202560004300689093139300000000004900007039093900020000000000000000000000B1
:00000001FF
