:400000000080002011000000F50D0000F50D000080B500AF024A034B1B68136000F0F4FEBC760040FA46004001000000002000400100000000200140010000000048004077
:400040000100000000480140010000000100000008000223000008760800032300001076080004230000287608000523000030760500062300002070050007230000307065
:4000800005000823000060700500FE23000070703000FE220000405180010B220000000C00020C220000000E8000FE220000801A07000E230000005207000F23000008520A
:4000C0000700102300001052070011230000185206001223000060520700132300007852080014230000C85A0C0015230000004F0C00162300000C4F400017230000006459
:40010000200018230000706440001923000000652000FE230000706508001B230000005180001C230000000080001D230000800080001E230000000280001F2300008002FC
:40014000800020230000000480002123000080048000222300000006800023230000800680002423000000088000252300008008800026230000000A800027230000800A13
:400180008000282300000014800029230000801480002A230000001680002B230000801680002C230000001880002D230000801880002E230000001A10002F2300001050BD
:4001C0001000302300000050800031230000004D800032230000804D800033230000004C800034230000804C800035230000004780003623000080478000372300000046E5
:400200008000382300008046800039230000004580003A230000804580003B230000004480003C230000804480003D230000001B80003E230000801B80003F230000001527
:4002400080004023000080158000412300000019800042230000801980004323000000178000442300008017800045230000000980004623000080098000472300000007BC
:400280008000482300008007800049230000000B80004A230000800B80004B230000000580004C230000800580004D230000800D80004E230000000380004F230000800310
:4002C00080005023000000018000512300008001800052230000004980005323000080498000542300000048800055230000804880005623000000438000572300008043A0
:400300008000582300000042800059230000804280005A230000004180005B230000804180005C23000000408000FE230000804010B5054C237833B9044B13B10448AFF387
:4003400000800123237010BD4081FF1F0000000060250000084B10B51BB108490848AFF300800848036803B910BD074B002BFBD0BDE81040184700BF000000004481FF1FEC
:4003800060250000C880FF1F0000000080B500AF02F090F8194B1B78002B03D1012001F007FE28E0154B1B78022B03D1202001F0FFFD20E0114B1B78032B03D1402001F07C
:4003C000F7FD18E00D4B1B78042B03D1802001F0EFFD10E0094B1B78052B04D14FF4807001F0E6FD07E0054B1B78062B03D14FF4007001F0DDFD00BF80BD00BF7481FF1FA8
:4004000080B500AF7C4B1B78002B09D101F0E0FD03461A46794B1A80794B00221A7005E001F0D6FD03461A46764B1A80724B1B78002B44D1714B1B88102B15D16E4B01229B
:400440001A70714B1B88184601F0B2FD6F4B1B88184601F093FD6E4B1B88184601F08EFD674B00221A70BEE0644B1B88202B03D1614B02221A70B6E0604B1B88402B03D139
:400480005D4B03221A70AEE05C4B1B88802B03D1594B04221A70A6E0584B1B88B3F5807F03D1554B05221A709DE0544B1B88B3F5007F40F09880504B06221A7093E04E4B1B
:4004C0001B78012B11D14E4B1B78012B06D84C4B1B780133DAB24A4B1A7084E0464B00221A70474B00221A707DE0434B1B78022B09D1444B1B881946002000F097F93E4BFE
:4005000000221A706FE03C4B1B78032B09D13D4B1B881946012000F089F9374B00221A7061E0354B1B78042B1CD1364B1B881B0A9BB2DAB2374B1A70324B1B88DAB2364B88
:400540001A70344B1B780021184601F013F8324B1B78184601F0B2F801F078F8264B00221A7040E0244B1B78052B1AD1254B1A882A4B1A80294B1B88B3F57A7F04D2274B7F
:400580004FF47A721A8008E0244B1B88B3F5FA6F03D9224B4FF4FA621A80174B00221A7021E0154B1B78062B1AD1164B1A881C4B1A801B4B1B88B3F57A7F04D2184B4FF49D
:4005C0007A721A8008E0164B1B88B3F5FA6F03D9134B4FF4FA621A80074B00221A7002E0054B00221A7001F0BBFC01F0FFFC01F007FF00BF80BD00BF7481FF1F9281FF1F9F
:400600009081FF1F8C81FF1F7A81FF1F7681FF1F8E81FF1F9481FF1F7C81FF1F6E81FF1F8881FF1F80B500AF01F032FA4FF4FA6000F08AFC012001F0CDF9002001F018FC72
:40064000002001F029FD032001F002FC00F0FEFC01F0D2F801F068F901F030F901F042F901F078FD01F012FE01F0C8FD01F0DAFD01F056FC002001F09BFC01F05DFA01F0EB
:4006800021FB00F05DFD5C4B00221A705B4B00221A7062B65A4801F0BFFE5A4801F062FE594B0F221A80594B00221A80002000F0D7F803461A46564B1A80012000F0D0F869
:4006C00003461A46534B1A80022000F0C9F803461A46514B1A804FF4AF6000F057FC4F4B1A884F4B1B889A4213D94C4B1B881A464B4B1B88D31A322B06DD494B1B883233F5
:400700009AB2474B1A8017E0444B1A88444B1A8012E0434B1B881A46404B1B88D31A322B06DD3F4B1B88323B9AB23D4B1A8003E03A4B1A883A4B1A803A4B1A883A4B1B8892
:400740009A4213D9374B1B881A46374B1B88D31A322B06DD344B1B8832339AB2324B1A8017E0304B1A88304B1A8012E02E4B1B881A462C4B1B88D31A322B06DD2A4B1B88FA
:40078000323B9AB2284B1A8003E0264B1A88264B1A80234B1B88184601F074FA224B1B88184601F035FB01F009F90346012B1ED1164B1B8801339AB2144B1A80134B1B8840
:4007C000B3F5FA6F7FF472AF72B6012001F064FC002001F03DFB44F6206000F0B5FB022001F0F8F84FF4FA6000F0AEFB5EE7074B00221A805AE700BF7481FF1F9081FF1F49
:400800008D030000010400009281FF1F7081FF1F7A81FF1F7681FF1F8E81FF1F6E81FF1F8A81FF1F8881FF1F7281FF1F80B584B000AF03460A46FB711346BB80FB79184697
:4008400001F066FD01F022FDBB88184601F0BCFC00BF0023FB81FB8918461037BD4680BD80B584B000AF0346FB71FB79184601F0FFFA01F059F8102000F0F8FF00BF00F072
:40088000D9FF034603F00103002BF8D0142000F07DFB00237B7310E0142000F077FB002000F0E4FF00BF00F0C5FF034603F00103002BF8D07B7B01337B7300F0F1FF034620
:4008C000102B14BF01230023DAB27B7B052B94BF01230023DBB21340DBB2002BDCD17B7B052B2CD8142000F051FB002000F0BEFF00BF00F09FFF034603F00103002BF8D02B
:4009000000F0CEFF03469BB21B02FB81142000F03DFB002000F0AAFF00BF00F08BFF034603F00103002BF8D000F0BAFF03469AB2FB891344FB81282000F028FB05E04FF432
:400940007043FB81282000F021FBFB8918461037BD4680BD80B584B000AFF860B9607A607A68B968F86801F0EFFD00BF1037BD4680BD00BF80B483B000AF0346FB71FEE733
:4009800080B483B000AF434B00221A60424B10221A70424B01221A70414B00221A70414B4FF438721A80404B01221A703F4B03221A703F4B3F4A92B21A803F4B47F60802F6
:4009C0001A803E4B00221A803D4B4FF480421A803C4B09221A703C4B0A221A703B4B0D221A703B4B1A221A70BFF35F8F394B01221A70BFF35F8F00BF2A4B1B889BB2002B2D
:400A0000FAD100237B600DE07B68DA00324B13441946324A7B6852F823309BB20B807B6801337B607B685B2BEED9BFF35F8F294B01221A70BFF35F8F00BF294B1B78DBB266
:400A400003F00103002BF8D100BF264B1B78DBB203F00103002BF8D100BF234B1B78DBB203F00103002BF8D100BF204B1B78DBB203F00103002BF8D100BF1D4B1B78DBB29C
:400A800003F00103002BF8D100BF0C37BD4680BC704700BF6081FF1F00760040107000401970004000780040027800400378004004780040500000000678004004760040A5
:400AC0000676004029700040397000406970004079700040147000400C78004064250000187000402870004038700040687000407870004080B582B000AF3F4B03221A80FE
:400B00003E4B18221A703E4B0B221A803D4B18221A703D4B0B221A803C4B18221A703C4B0B221A803B4B18221A703B4B17221A803A4B18221A703A4B40F65F121A80394BAE
:400B400018221A70384B02221A704FF0402308221A70364B03221A70354B364A1278D2B21A70354B08221A80344B41F251221A800023FB7019237B6013E0FB785B00DAB26D
:400B80002F4B1B78DBB203F00103DBB21343DBB203F00303FB70782001F09AFC7B68013B7B607B68002B02D0FB78032BE5D17B68002B02D10320FFF7DDFE224B4FF4807209
:400BC0001A80204B07221A701F4B00221A701F4B48221A701B4B00221A701D4B02221A701C4A1C4B1B78DBB243F03F03DBB2137000BF0837BD4680BD8040004082400040EF
:400C00008440004086400040884000408A4000408C4000408E400040904000409240004094400040964000400043004000420040A14600400801004922420040204200406E
:400C40002542004004400040064000400840004001400040A243004080B483B000AF0F4B1B78FB710E4AFB7903F00703DBB213700C4AFB791B09DBB213700B4B02221A704B
:400C80000A4B20221A700A4B20221A70094B44221A7000BF0C37BD4680BC7047CF0100496E5800406F5800403D510040C85A0040CB5A00407658004080B500AF72B6354B61
:400CC00061221A70FFF716FF324B81221A70324A314B1B78DBB243F00403DBB21370FFF74FFE2E4B40F203121A802D4B2D4A1A602D4A2D4B1B78DBB243F00203DBB2137073
:400D00002A4A2A4B1B78DBB243F00203DBB21370274A274B1B78DBB243F04003DBB21370244A244B1B78DBB243F01003DBB213700A2221492148FFF70DFE0A222049214888
:400D4000FFF708FE082220492048FFF703FE08221F492048FFF7FEFD0A221F491F48FFF7F9FD0A221E491F48FFF7F4FD1E4A1E4B1B78DBB243F00803DBB213701B4B01220A
:400D80001A70FFF769FF0E2209491948FFF7E2FD00BF80BD00480040E84600404A580040580A0140040024A40350014013500140A0430040C243004038210048005100407E
:400DC00044210048C051004050210048F2510040582100481251004060210048205100406C210048305100402243004004000840B043004080B500AF01F07AFB03461B680B
:400E00000C2B00D1FEE7FEE780B586B000AF224B7B61224B3B61204B7B6135E03B691B68FB603B695B68BB603B699B683B6000237B600CE0FB681A68BB681A60BB6804330C
:400E4000BB60FB680433FB607B6804337B607A683B689A42EED13B69DB683B6000237B6008E0BB6800221A60BB680433BB607B6804337B607A683B689A42F2D13B691033B1
:400E80003B617B69013B7B617B69002BC6D101F035FBFFF7C7FBFEE701000000FC26000080B582B000AF184B184A1A60184A184B1B6843F40073136000237B600FE07B6889
:400EC000032B04D8134A7B6852F8233000E0124B12497A6841F822307B6801337B607B682F2BECD90E4B1B78DAB20E4B1A700E4B0A4A1A60FFF7E0FE0C4B00221A6000BF0A
:400F00000837BD4680BD00BF0CED00E00004FA0514ED00E000000000F50D00000080FF1FBC760040C480FF1F08ED00E0C080FF1F80B483B000AF0346FB7101BE00BF0C3783
:400F4000BD4680BC704700BF80B582B000AF786008E00C4B1B68184601F0BAFA7B68A3F500437B607B68B3F5004FF2D8064B1B687A6802FB03F3184601F0AAFA00BF083732
:400F8000BD4680BDD880FF1FD080FF1F80B582B000AF0346FB80FB88054A127802FB03F3184601F095FA00BF0837BD4680BD00BFD480FF1F80B584B000AF03463960FB7131
:400FC0000F4B1B68FB60FB791F2B02D90020FFF7AFFFFB7903F01F0310339B00FA6813441B68BB60FB7903F01F0310339B00FA6813443A681A60BB6818461037BD4680BD5A
:4010000008ED00E080B582B000AF03460A46FB711346BB71BB79072B02D90020FFF788FFFB791F2B02D90020FFF782FFFB7903F01F0303F1604303F56443BA795201D2B264
:401040001A7000BF0837BD4680BD00BF80B400AF094A094B1B78DBB243F02003DBB21370064A064B1B78DBB243F02003DBB2137000BFBD4680BC7047A2430040B2430040A3
:4010800080B582B000AF1B4B00221A701A4B01221A7001F025FA0346FB71184A174B1B78DBB243F01003DBB21370FB79184601F01BFA134B0F221A70124B08221A70124B98
:4010C00001221A6007210020FFF79CFF0F490020FFF770FF0E4B10221A700E4B00221A700D4B00221A700D4B00221A7000BF0837BD4680BD786400408464004094640040C1
:40110000266500403665004080E100E06D1100009581FF1F9A81FF1F9C81FF1F9881FF1F80B400AF054A054B1B78DBB243F00203DBB2137000BFBD4680BC704778640040B0
:4011400080B500AF074B1B78002B04D1FFF798FF044B01221A70FFF7E3FF034B01221A6000BF80BD6481FF1F00E100E080B582B000AFA64B1B78FB71A54B1B78DBB203F091
:401180004003DBB2002B00F0CD81FB7903F00103002B00F0A4819E4B1B78DBB2453B052B00F2998101A252F823F000BFC51100000B130000D7140000D7140000C511000027
:4011C00041140000FB7923F02003FB71FB7903F00A03DBB2082B54D18D4B1B78DBB2452B42D18C4B1B78DBB2002B15D08A4A8B4B1B681B78DBB21370894B06221A70894B7F
:40120000FF221A70884B00221A70884B01221A707F4B46221A7062E1854B1B78DBB203F00203002B0ED0834B1B78DBB243F00A03DAB2804B1A70764B60221A707E4B01224C
:401240001A604CE17D4A7D4B1B78DBB243F02003DBB21370724B52221A70724BFF221A70714B00221A703AE16D4B02221A706D4BFF221A706C4B00221A70654B4A221A703A
:401280002DE1FB7903F00A03DBB20A2B39D1694B1B78DBB263F05F03DAB2664B1A70644B1B78DBB203F00203002B18D0584B1B78DBB203F00803002B01D0092300E00A23C0
:4012C000DAB25C4B1B78DBB21343DAB2594B1A704F4B60221A70584B01221A60FFE0574A564B1B78DBB243F02003DBB213704C4B52221A704B4BFF221A704B4B00221A70E6
:40130000EDE00020FFF714FEE9E0FB7903F00203002B4AD1454B1B78DAB23E4B1B78DBB29A421AD23C4A3D4B1B6840490978C9B20B441B78DBB21370394B06221A70394B5B
:40134000FF221A70384B00221A70384B1B78DBB20133DAB2354B1A70C1E0354B1B78DBB203F00203002B0ED0324B1B78DBB243F00A03DAB22F4B1A70254B60221A702E4B82
:4013800001221A60ABE02D4A2C4B1B78DBB243F02003DBB21370224B52221A70214BFF221A70214B00221A7099E0214B1B78DBB203F00203002B0ED01E4B1B78DBB263F015
:4013C0006503DAB21B4B1A70114B60221A701A4B01221A6083E0194A184B1B78DBB243F02003DBB213700E4B52221A700D4BFF221A700D4B00221A700E4B1B78DBB263F0C6
:401400006F03DAB20B4B1A7069E000BF646400409581FF1F9B81FF1F05640040A081FF1F7864004015640040556400409881FF1F9981FF1F9A81FF1F80E100E08464004089
:40144000404B1B68404A1278D2B213443F4A1278D2B21A703C4B1B78DBB20133DAB23A4B1A70394B1B78DAB2394B1B78DBB29A4209D2384B02221A70374BFF221A70374BFA
:4014800000221A702BE0364B1B78DBB203F00203002B0ED0334B1B78DBB243F00903DAB2304B1A70304B60221A70304B01221A6015E02F4A2E4B1B78DBB243F02003DBB2DC
:4014C0001370244B12221A70234BFF221A70234B00221A7003E00020FFF72AFD00BFFB7903F02003002B28D01F4B1B78DBB203F00803002B01D0012300E00223DAB2194BE0
:401500001B78DBB21343DAB2164B1A70184A184B1B78DBB223F02003DBB21370124B10221A700AE0104B1B78DBB203F01003DBB2002B02D10C4B10221A7000BF0837BD4670
:4015400080BD00BFA481FF1F9C81FF1F05640040A881FF1F7864004015640040556400409981FF1F9A81FF1F9581FF1F80E100E08464004080B485B000AF03460A46FB7108
:401580001346BB710223FB73294B1B78DBB2102B47D1284B1B78DBB203F01003002B3ED1254B01221A60FB795B00FB71BB79002B07D0FB7943F00103FB711D4B49221A7067
:4015C00002E01B4B45221A701C4AFB7913701C4B82221A701B4BFF221A701B4B00221A7000BF184B1B78DBB2002BFAD100BF114B1B78DBB203F00103002BF8D00D4B1B7855
:40160000DBB203F00A03DBB20A2B05D1084B10221A700323FB7304E00023FB7301E00123FB73FB7B18461437BD4680BC704700BF9581FF1F6464004080E100E00564004000
:4016400078640040156400405564004080B483B000AF0223FB71144B1B78DBB203F00403002B1BD0114B52221A70114BFF221A70104B00221A7000BF0D4B1B78DBB2002B9C
:40168000FAD10D4B10221A7000BF074B1B78DBB203F02103002BF8D00023FB71FB7918460C37BD4680BC7047646400407864004015640040556400409581FF1F80B485B003
:4016C00000AF0346FB710223FB731E4B1B78DBB203F00403002B2ED01B4AFB7913701B4B06221A701A4BFF221A701A4B00221A7000BF174B1B78DBB2002BFAD1164B4622B2
:401700001A7000BF0F4B1B78DBB203F00103002BF8D00C4B1B78DBB203F00203002B05D10D4B60221A700023FB7304E00A4B60221A700323FB73FB7B18461437BD4680BC60
:40174000704700BF64640040056400407864004015640040556400409581FF1F80B500AF084B0F221A7000F0DFF800F063F800F06FF8054B00221A70044B00221A7000BF2F
:4017800080BD00BF87640040896400408865004080B582B000AF00F0A3FE0346FB71134A124B1B78DBB243F02003DBB21370104A0F4B1B78DBB243F01003DBB213700D4A8B
:4017C0000C4B1B78DBB243F01003DBB21370FB79184600F089FE00F0D7F800F01FF800F023F800BF0837BD4680BD00BF97640040996400409865004080B500AF064B1B7888
:40180000002B04D1FFF7AAFF034B01221A70FFF7BFFF00BF80BD00BF6581FF1F80B400AF00BFBD4680BC704780B400AF00BFBD4680BC704780B483B000AF044B1B78FB7107
:40184000FB7918460C37BD4680BC70476964004080B483B000AF044B1B78FB71FB7918460C37BD4680BC70476865004080B483B000AF0346FB7100BF074B1B78DBB203F0E5
:401880000403002BF8D0054AFB79137000BF0C37BD4680BC704700BF696400404865004080B483B000AF044B1B78FB71FB7918460C37BD4680BC70475865004080B400AFE8
:4018C00001E0064B1B78064B1B78DBB203F02003002BF6D100BFBD4680BC7047586500406865004080B582B000AF00F0F9FD0346FB710C4A0B4B1B78DBB243F00103DBB2AA
:401900001370084A074B1B78DBB223F00103DBB21370FB79184600F0E7FD00BF0837BD4680BD00BF9865004080B582B000AF01E0124B1B78124B1B78DBB203F02003002BB4
:40194000F6D100F0CDFD0346FB710E4A0D4B1B78DBB243F00103DBB213700A4A094B1B78DBB223F00103DBB21370FB79184600F0BBFD00BF0837BD4680BD00BF58650040B7
:40198000686500409865004080B400AF094A094B1B78DBB243F00203DBB21370064A064B1B78DBB243F00203DBB2137000BFBD4680BC7047A2430040B243004080B400AFF0
:4019C000034B1B78DBB21846BD4680BC704700BF6565004080B483B000AF0346FB71044AFB79137000BF0C37BD4680BC704700BF7364004080B500AF002000F05BF8154AD8
:401A0000144B1B78DBB223F02003DBB21370114A104B1B78DBB223F00403DBB213700D4A0C4B1B78DBB243F00803DBB213700A4A094B1B78DBB223F01803DBB21370064A6F
:401A4000054B1B78DBB243F00803DBB2137000BF80BD00BF41580040CF5A004080B400AF094A094B1B78DBB243F00203DBB21370064A064B1B78DBB243F00203DBB21370B0
:401A800000BFBD4680BC7047A7430040B743004080B500AF064B1B78002B04D1FFF7AAFF034B01221A70FFF7D9FF00BF80BD00BF6681FF1F80B483B000AF0346FB711749F2
:401AC000164B1B78DBB25BB223F003035AB297F9073003F003035BB213435BB2DBB20B70FB79012B0AD10E4B0E4A1278D2B21A700D4B0E4A1278D2B21A7009E0084B0C4A5D
:401B00001278D2B21A70084B0A4A1278D2B21A7000BF0C37BD4680BC704700BF4158004032460040110100493346004015010049AF010049B701004980B500AF064B1B7851
:401B4000002B04D100F00AF8034B01221A7000F065F800BF80BD00BF6781FF1F80B582B000AF294A284B1B78DBB243F00203DBB21370264B1B78DBB223F07003FB71234A16
:401B8000FB7943F01003DBB21370214A204B1B78DBB223F03003DBB213701D4A1C4B1B78DBB243F03003DBB21370194A184B1B78DBB223F00F03DBB21370154A144B1B783F
:401BC000DBB243F00F03DBB2137041F2883000F049F840F2DC5000F055F8002000F062F80C4A0C4B1B78DBB243F00103DBB21370094A094B1B78DBB243F00103DBB21370C0
:401C000000BF0837BD4680BD004F0040024F00400B4F0040A3430040014F004080B400AF0D4A0D4B1B78DBB243F00103DBB213700A4A0A4B1B78DBB243F00103DBB21370ED
:401C4000074A074B1B78DBB243F00103DBB2137000BFBD4680BC7047A3430040B3430040004F004080B483B000AF0346FB80044AFB88138000BF0C37BD4680BC704700BFC5
:401C8000044F004080B483B000AF0346FB80044AFB88138000BF0C37BD4680BC704700BF064F004080B483B000AF0346FB71044AFB79137000BF0C37BD4680BC704700BF40
:401CC000034F004080B500AF064B1B78002B04D100F00AF8034B01221A7000F065F800BF80BD00BF6881FF1F80B582B000AF294A284B1B78DBB243F00203DBB21370264BB9
:401D00001B78DBB223F07003FB71234AFB7943F01003DBB21370214A204B1B78DBB223F03003DBB213701D4A1C4B1B78DBB243F03003DBB21370194A184B1B78DBB223F0B1
:401D40000F03DBB21370154A144B1B78DBB243F00F03DBB2137041F2883000F049F840F2DC5000F055F8002000F062F80C4A0C4B1B78DBB243F00203DBB21370094A094B31
:401D80001B78DBB243F00103DBB2137000BF0837BD4680BD0C4F00400E4F0040174F0040A34300400D4F004080B400AF0D4A0D4B1B78DBB243F00203DBB213700A4A0A4B3B
:401DC0001B78DBB243F00203DBB21370074A074B1B78DBB243F00103DBB2137000BFBD4680BC7047A3430040B34300400C4F004080B483B000AF0346FB80044AFB88138087
:401E000000BF0C37BD4680BC704700BF104F004080B483B000AF0346FB80044AFB88138000BF0C37BD4680BC704700BF124F004080B483B000AF0346FB71044AFB791370A6
:401E400000BF0C37BD4680BC704700BF0F4F004080B483B000AF0346FB71044AFB79137000BF0C37BD4680BC704700BF7B64004080B483B000AF0346FB71044AFB79137017
:401E800000BF0C37BD4680BC704700BF7464004080B500AF084B0F221A7000F0BBF800F051F800F05DF8054B00221A70044B00221A7000BF80BD00BF8A6400408664004036
:401EC0008965004080B582B000AF00F009FB0346FB71104A0F4B1B78DBB243F02003DBB213700D4A0C4B1B78DBB243F01003DBB213700A4A094B1B78DBB243F01003DBB2FC
:401F00001370FB79184600F0EFFA00BF0837BD4680BD00BF9A640040966400409965004080B500AF064B1B78002B04D1FFF7B0FF034B01221A70FFF7C5FF00BF80BD00BFE3
:401F40006981FF1F80B483B000AF044B1B78FB71FB7918460C37BD4680BC70476664004080B483B000AF044B1B78FB71FB7918460C37BD4680BC70476965004080B483B0FC
:401F800000AF0346FB8000BF074B1B78DBB203F00203002BF8D0054AFB88138000BF0C37BD4680BC704700BF666400404A64004080B483B000AF0346FB80044AFB88138040
:401FC00000BF0C37BD4680BC704700BF0A64004080B483B000AF044B1B88FB80FB8818460C37BD4680BC70475A64004080B400AF01E0064B1B88064B1B78DBB203F00803BA
:40200000002BF6D100BFBD4680BC70475A6400406965004080B582B000AF01E01A4B1B881A4B1B78DBB203F00803002BF6D100F057FA0346FB71164A154B1B78DBB243F070
:402040000303DBB21370124A114B1B78DBB223F00303DBB213700F4A0E4B1B78DBB243F00303DBB213700B4A0A4B1B78DBB223F00303DBB21370FB79184600F035FA00BF8B
:402080000837BD4680BD00BF5A640040696500409A6400409B64004080B483B000AF0346FB71044AFB79137000BF0C37BD4680BC704700BF7964004080B500AF084B1F22FD
:4020C0001A7000F0E3F800F063F800F06FF8054B00221A70044B00221A7000BF80BD00BF80640040816400408364004080B582B000AF00F0F5F90346FB71134A124B1B78D1
:40210000DBB243F02003DBB21370104A0F4B1B78DBB243F01003DBB213700D4A0C4B1B78DBB243F01003DBB21370FB79184600F0DBF900F0FDF800F01FF800F023F800BF12
:402140000837BD4680BD00BF90640040916400409364004080B500AF064B1B78002B04D1FFF7AAFF034B01221A70FFF7BFFF00BF80BD00BF6A81FF1F80B400AF00BFBD4602
:4021800080BC704780B400AF00BFBD4680BC704780B483B000AF044B1B78FB71FB7918460C37BD4680BC70476164004080B483B000AF044B1B78FB71FB7918460C37BD46A4
:4021C00080BC70476364004080B483B000AF0346FB8000BF074B1B78DBB203F00403002BF8D0054AFB88138000BF0C37BD4680BC704700BF616400404264004080B400AF03
:4022000001E0064B1B88064B1B78DBB203F02003002BF6D100BFBD4680BC7047526400406364004080B582B000AF00F059F90346FB71144A134B1B78DBB243F00103DBB2F1
:402240001370104A0F4B1B78DBB223F00103DBB213700D4A0C4B1B78DBB243F00103DBB21370094A084B1B78DBB223F00103DBB21370FB79184600F037F900BF0837BD46EB
:4022800080BD00BF926400409364004080B582B000AF01E01A4B1B881A4B1B78DBB203F02003002BF6D100F01BF90346FB71164A154B1B78DBB243F00103DBB21370124AED
:4022C000114B1B78DBB223F00103DBB213700F4A0E4B1B78DBB243F00103DBB213700B4A0A4B1B78DBB223F00103DBB21370FB79184600F0F9F800BF0837BD4680BD00BF81
:402300005264004063640040926400409364004080B483B000AF0346FB71044AFB79137000BF0C37BD4680BC704700BF7264004080B400AF094A094B1B78DBB243F008036E
:40234000DBB21370064A064B1B78DBB243F00803DBB2137000BFBD4680BC7047A2430040B243004080B582B000AF786000F03CF8786800F009F8072000F018F800F028F815
:4023800000BF0837BD4680BD80B485B000AF7860054B1B68FB60FB6848337A681A6000BF1437BD4680BC704708ED00E080B483B000AF0346FB71054AFB795B01DBB21370B8
:4023C00000BF0C37BD4680BC704700BF02E400E080B400AF034B04221A6000BFBD4680BC704700BF00E100E080B400AF034B04221A6000BFBD4680BC704700BF80E100E0D4
:4024000080B400AF034B04221A6000BFBD4680BC704700BF80E200E080B582B000AF786000F03CF8786800F009F8072000F018F800F028F800BF0837BD4680BD80B485B054
:4024400000AF7860054B1B68FB60FB6844337A681A6000BF1437BD4680BC704708ED00E080B483B000AF0346FB71054AFB795B01DBB2137000BF0C37BD4680BC704700BFEB
:4024800001E400E080B400AF034B02221A6000BFBD4680BC704700BF00E100E080B400AF034B02221A6000BFBD4680BC704700BF80E100E080B400AF034B02221A6000BF41
:4024C000BD4680BC704700BF80E200E0000000000230800803D000BF01380046FCD17047EFF3108072B6704780F31088704700BF014B1868704700BF3C81FF1F0E4B70B529
:402500001E460E4C0025E41AA410A54204D056F8253098470135F8E700F0DEF8084B094C1E46E41AA4100025A54204D056F8253098470135F8E770BDE4260000E426000078
:40254000E4260000EC26000010B5431E0A44914204D011F8014B03F8014FF8E710BD0000000000002800000030000000380000004000000048000000480000004800000030
:40258000480000006081FF1F6081FF1F6081FF1F6081FF1F00000048080000481000004818000048200000482800004838000048400000484C000048D8090048180A004880
:4025C000380A0048780A00483000004858000048D800004858010048D801004858020048D802004858030048D803004858040048D804004858050048D805004858060048CB
:40260000D806004858070048D807004858080048D808004858090048980A0048A80A0048B80A0048380B0048B80B0048380C0048B80C0048380D0048B80D0048380E0048E9
:40264000B80E0048380F0048B80F004838100048B810004838110048B811004838120048B812004838130048B813004838140048B814004838150048B8150048381600483A
:40268000B816004838170048B817004838180048B818004838190048B8190048381A0048B81A0048381B0048B81B0048381C0048B81C0048381D0048B81D0048381E00487A
:4026C000B81E0048381F0048B81F004838200048B820004843000000F8B500BFF8BC08BC9E46704755030000A10E0000F8B500BFF8BC08BC9E46704731030000102700008B
:40270000C880FF1F7800000070000000000000000000000000366E01C05D0000180000000000E02E0000000000000000000000000000000000000000000000000000000063
:4027400000000000D426000000000000000000000000000000000000000000000000000000000000000000000000000000000000000000000000000000000000000000005F
:4027800000000000DC80FF1F00000000000000000000000000000000000000000000000000000000000000000000000000000000000000000000000000000000000000009F
:4027C00000000000000000000000000000000000000000000000000000000000000000000000000000000000000000000000000000000000000000000000000000000000D9
:402800000000000000000000000000000000000000000000000000000000000000000000000000000000000000000000000000000000000000000000000000000000000098
:402840000000000000000000000000000000000000000000000000000000000000000000000000000000000000000000000000000000000000000000000000000000000058
:402880000000000000000000000000000000000000000000000000000000000000000000000000000000000000000000000000000000000000000000000000000000000018
:020000040003F7
:0200000480007A
:40000000A081000000000000301000000000000010121010680000003811000009010000268400000000000020000000000000003F00000000000000000000000000000455
:40004000004000000000000000003600004000000000000000003600609A00005698090201020098843800C0040000000A02100000000000849A00000713386484FC000313
:40008000802104D80498800200E07F0F000080130800000A0000400000000000000000000000000000000000000000000000022004040004333000010000000000000000C0
:4000C0000000000000000000000000000000000000000000000000000012000594186901000000002000D00000000000001D00020E0000003300C400000000005500AA00C0
:400100000008000000000000000100100F0EF0002000802000000005000000000000000000000000000000000000000009000000040400043330000100000000000000005B
:4001400000000000000000000000000000000000000000000000000003000401002A005400FF00000033000C00000000000E0030078000560000000000400013004600A95E
:40018000060001000000000001FF0200040000002A00000000001500320150000000000000FFFFFF02007008040000000000000004040404000300010000C00040011011BF
:4001C000C00100114001400100000000000000000000000000000000000001001B00000000000001200000001A0001000400680004001A001B000000420004001B0100004C
:40020000040170001B000000600000001E01010002002000000040003201500000BEFD0C1FFFFFFF2300F008040000004000000004040404033300010000C000400110111E
:40024000C001001140014001000000000000000000000000000000003501400064061100010402000000004075320008113F8800011C0E221001E01E002A00102422511826
:400280007518000600220000000000600F00F01F0080A0000000000000000000000000000000000000000000000000002000040004040004000000010000000000000000BA
:4002C000000000000000000000000000000000000000000000000000000100060000001B00010004001200010000000000000013000000130000000000000000000000009E
:400300000000000000010032000700080010002000000002000000102300000004DB000003FF7FFF42A070000C0000000000000000040400000000010009400930090000C5
:40034000000000000000000000000000000000000000000000000000000008001E0120000000100000000000000004001E00000000001E00000010000000010000001E00B7
:40038000000002000000000001001E002001000000000000000004000000000000000000000000000000000000000000410000000404000400200001000000000000000089
:4003C00000000000000000000000000000000000000000000000000040381DC00000FF003D02C298019A00005D00A2000421E0D801980002929A60000D980002001308644C
:40040000E202000000FC0203FFE0000F000000130000000A000001000000000000000000000000000000000000000000000002240404000410100001000000000000000078
:4004400000000000000000000000000000000000000000000000000084800000801D040000C20024040D8010011D00000A1D1000840000008402000D60000010041D000053
:4004800056820908072138427FE000008010080F0200008200005010000000000000000000000000000000000000F6000000000004040004110000010000000000000000B3
:4004C00000000000000000000000000000000000000000000000000000000001040000000000000000000100000000000000000000000000030000000000000000000000F3
:4005000000000000000000000400000001010200000000000000510000000000000000000000000000000000000000000900000004040004801000010000000000000000BC
:400540000000000000000000000000000000000000000000000000000000400000003C00000000000000020000000000430010000000000043000400000000004300080018
:40058000000000002000430040003E00010000000000000000001500020120000300000000FFFFFF0200700C8C100000000002200400242400880801000000000000000008
:4005C0004001C0010000000000000000000000000000000000000000000800070001000000FF00000003000000100007000300000001000000C0000700050078003A00044A
:4006000000010000002200050000007F0080000000200000000000040605600003EC0BDF37FFFFFF2300F00C8C1000000000080000042404002800010000000000000000DF
:400640004001C00100000000000000000000000000000000000000000300980000000B00C10014010200010000002000000403000100060000004000C000000080000B0040
:4006800080000B0003008006380400020701C00000002200000000010000000000000000000000000000000000000000000008000404000420500001000000000000000078
:4006C000000000000000000000000000000000000000000000000000020F010008001008040000200010020200000018003F00000010000104400080000001140800100037
:40070000000400080040008000001C00043F03C02820000000001400410000000000020004FFFFFF0000000000000000000000000404040405050001800040404040800010
:400740008000800080008000000000000000000000000000000000000080010000250A0A008000000021000400200002008F04000A260000004000000001002200210002AF
:4007800000080205000000100200041F0880016000A0000000001140240000000020005022FFFFFF42A0700008100000000000000404040000000001004840488048804891
:4007C0000000000000000000000000000000000000000000000000000043000C7E02000D05000A000000000004000900000000200000000003000400000000000005006A6B
:40080000301040005009206620000F60400F1010AA0000200000514000000000000000000000000000000000000000000000080004040004112000010000000000000000BA
:400840000000000000000000000000000000000000000000000000001F4D00920304200040A50B4A0302000042000904010000B540CC14134F000001901A0B6001A9005479
:400880000000010248FF02000000E0001F0040FF88000000000044406405200001DEFBC02FFFFFFF2200F008040000004000000004040404001100010000C00040011011B1
:4008C000C0010011400140010000000000000000000000000000000000000000000000000000000001000000010000000100000000000000000000000000000000000000A1
:40090000000000000000000001000000000000000000000000000100000000000000000000000000000000000000000020000000040000040020000100000000000000006C
:400940000000000000000000000000000000000000000000000000000000000000000000000000000000000000000000000000000000000000000000000000000000000077
:40098000000000000000000000000000000000000002000000000001000000000000000000000000000000000000000000000000000400000000000100000000000000002F
:4009C00000000000000000000000000000000000000000000000000000000000000000000000000000000000000000000000000000000000000000000000000000040000F3
:400A0000000000000000000000000000000000000000000000000000000000010000000000000003000000001F0000000000470F00000F000000000000000000000000002E
:400A40000000000000000000000000000000000000000000000000000000000000190F00000000000000000000000000000008000000000000000000000000000000000046
:400A8000000000000000000000000000000000000078000000000000270000000000000000002700070000000F000000000000000900070007000000000000000000000043
:400AC00000000000000000000000000000000000000000000000000000000000000000000000000000000000000000000000000000000000000000000000000000000000F6
:400B000000000000000000000000000000000000000000000000000000000000000000000000000000000000020000000000000000000000000000000000000000000000B3
:400B40000000000000000000000000000000000000000000000000000200000000000000000000000000000000010000000000000000000000000000000000000000000072
:400B80000000000000000000000000000000000000000000010000000000000000000000000000000100000000000000000000000000000000000000000000000000000033
:400BC00000000000000000000000000000000000000000000000000000000000000000000000000000000000000000000000000000000000000000000000000000000000F5
:400C00000000000000000000000000000000000000000000000000080000000000000008000000000000000000000000000000000000000000000000000000001000000094
:400C40000000000000000008000000080001000010000000000000000200000000000000000000000000000000000000000000000000000000000000000000000000000051
:400C80000000000000000000000000000000010001000000000000000000000002000000000000000000000000000000000000000000000000000000000000000000000030
:400CC00000000000000000000000000000000000000000000000000000000000000000000000000000000000000000000000000000000000000100000000000000000000F3
:400D0000000000000000000000000000000000000000000000000000000000000000000000000000000000000000000000000000000000000000000020000000000000048F
:400D400000000000000000400000000000000000100000002000004002000000000000000000000000000000000000000000000000000000000000000000000000000000C1
:400D8000000000000000010000000000000000000000000000000000080000000000000000000000000000000000000000000000000000000000000000000000000000002A
:400DC00000000000000000000000000000000000000000000000000000000000000000000000000000000000000000000000000000000000000000000000000000000000F3
:400E00000000000000000000000000000000002000000000000000000000000000000000000000000000000000000000000000000000000000000000000000000000004052
:400E400000000000000004000000004000000000100000002000044002000020000000000000002000000000800000000200020000000000000000000000000000000000F4
:400E8000000000000000000000000000020000000000000000000000000000000800000000000600020000000000000000000000000000000000000000000000000002001E
:400EC0008000000000000040100000000000000000000000000000000000000000000000000000000000000000000000000000000000000000000000000000000000000022
:400F00000000000000000000000000000000000000000044000000000000000020000000000000000000000000000000000004000000000000000000000020000000000029
:400F4000000000000000000400000000000000000000000000002000000000000000000000000000000000000002000000000000000000000000000001000600080000003C
:400F80000000000000000000000000000100020001000000020000000000000008000000010000000000000000000000000000000000000000000000000000000000000022
:400FC00000000000000000000000000000000000000000000000000000000000000000000000000000000000000000000000000000000000000000000000000000000000F1
:40100000000000000000000000000000000000000000000000000000000000000000000000000000000000000000200000020000000000000000000000000000000000008E
:401040000000000000000000000000000000000000000000000000000000000000000000000000000000000000000000000000000000000000000000000000000000000070
:40108000000000000000000000000000000000000000000001000400000000000000000000000000000000000000000000000000000000000000000000000000000000002B
:4010C00000000000000000000000000000000000000000000000000000000100000000000000000000000000000000000000000000000000000000000000000000000000EF
:4011000000000000000000000000000000000000000000000000000000000000000000000000000000000000000000000000000000000000000000000000000002000000AD
:40114000000000100000000000000020000002000000000002000000000000000000000000004000000001020400000602202240000000000000000000000000000000006A
:40118000000000000000000000000000000000000000000000000000000020000000000050008000C000000000000000000000000000000000000000004220045000812028
:4011C00000044500000000024004022000044000009205000088002000010404000080080200000002020004000004008000022400001000100A004000000030008041001B
:401200000000000000000000000000000000800000008000400000000000400000000000000000000000000000000000000000000000000000000000814000100200000853
:4012400000040040000000001000C0080202000442001024009200180005220100088010000000000000200048100100000209000000000000000000FF008F003F00000019
:401280000000B800F200F40090000000000018000800000000000000000000000200000000002C00800002000000000000000000000000000000000000400000402480000C
:4012C0000002001008000980000000004004021000020000000008540000000000008000000000000800811000000000082000410000000040842A00000000000222000003
:4013000000000000004900110000000000015002000000020000000010002002200010010000000000000000000000000000000000000000000000000000C00000120000C9
:4013400048002000000080001040C110002100A020040851400A42000C62000102010000402100000000011100001210402100000000000000000000F100FC00F000000055
:401380000000F000F000F000B0003000000001007E00000000000000A00040004000020040000000A0000000000000000000000000000000000000002008040002001000BE
:4013C00001000001000000240A00000004000000802802000004809004004400200438018100448800450004000004000002802404000001100800420000000000000011A6
:4014000000000300000000020000000000010000000020400000000002001000000000000000000000000000000000000000000000000000000000000000004401000408E3
:401440000001100440600000100560412410002004000024889660081A000100000C70000000100001000848101000000040020000000000000000003600690043000000C3
:401480000000FE00F200F300A000000000000C000C000000000000000100120040001300080003000000020000000000000000000000000000000000880280004000108044
:4014C0002090000000404410000000000464400001900001006040000400000000124000000000002441000000000000000042040000010040020410000000000000000076
:4015000000000000000000000000000000000000006900000000000000008000000000000000000200000018000000000800084180000000000000000050000C20040080D7
:4015400000000C000840000290008000050001A08004010040800A1044C000000A000000000400000000000000000040041000000000000000000000B500F100F000000004
:401580000000F000D000F1000000000000000F000800000000000800400020002C00100000001000100080000000000000000000000000000000000000022A0020060400C9
:4015C0005004004040002A4001210004800000280000400010000C01200184010010000400006220000000002000044004080000802200000000080000000000000000002C
:401600000000000000000000000000000000000000000000000890000400000000000020606000400000000040000000000000000000000000000000400008004001000025
:401640003000000000008220000520040010044204000020899604040A000900001C10080000404100000108000040000000004400000000000000007F00FF007F0000007C
:4016800000000F000E004D0000000000000070004400000000000000030000000A0001000000000001000000000000000000000000000000000000004600010000000000B6
:4016C0002000220400000000004400000000000000109C00000000000000000008000800000000000A00011000000000400400120000000000A00A0001001404000000046C
:401700000100004040800404000000004500000000000000200000400100000002002000004422000000600000000000000000008000200080000000000000028000200050
:4017400000000800131000004000000000004000000000000000000000C02000000010000000000000000000008020004000000000000000000000000D00050005000000D7
:401780000000F000F000F0004E003000000030003800000000001A0000004000000092000000200044000000000000000000000000000000000000000016200000000000ED
:4017C0000000194000100004000808000000000000200900000000000000082100610010010204080000000110000244000400102000008500A21400000000008808000044
:40180000000000001001400000000000000000000090000A0000000000204080000000000A0000000000000000000000000000001000080000000000000021000400000096
:4018400000200042000010000020000000050040000000000802000000000300001418004108000800000000000000000000000800000000000000000E000F0006000000DC
:4018800000001F006F00FF00E000000000000F000D0000000000000000000800010010000000200004000000000000000000000000000000000000000000400000400000E2
:4018C00000000000000000000000000000000000000000000000000000000000000010000000000000000000000010000000000000000000000000000000000000000000C8
:401900000000000000000000000000000000000000000000000000000400000010000000000000000000000000000000000000000000000000000000480040000200000009
:401940000100190000000400240001010010000041000800000400110010000000000300080000100006000000000000000018000020000000290060048430100480201047
:4019800000888000008000800000500400000000000000000000000000085000000000000080000801100000000000000000000000000000000000000000000000100010BA
:4019C00000000000004400010408050100000008010001000008000024800048000080000000802000000000000000000000000000000000000000001D004F004F000000B7
:401A00000000C6006000F4007E001800000000000E000000000000000200500000000000000000000000000000000000000000000000000000000000840081080440000045
:401A400048000140000004012310000100080000010000480040040000840841040000A009000A000420000444000000080008000014014004000A010000000000000000AB
:401A80000000000000000000000000000000000000000000012800800040000000008000661400000000000000000100000000000000000000000000000000000000000042
:401AC0000000000000000000000000000000000000000000000000000000000000000000000000000000000000000000000000000000000000000000AF00CD002F0000003B
:401B000000002F004A00CF00000000000000F00018000000000000000000000000000000000000000000000000000000000000000000000000000000000020000010000025
:401B4000100000000000000000000000000000000000000000000000000000080000000000000000000000000000000000000000000000000000000000000000000000004D
:401B80000000000000000000000000020008000000000000040000000000000000000008000000000000000000040000000000800000000000000000001020001000000249
:401BC0000000000000000000040000080000000000040080000000080008000000000000040000001004000004000008000000000000000000000000900040000000000051
:401C0000100000000000000000000000C0008000800000008000200000001000E00000000000200000004000000000000000000000000000000000000000000000000000E4
:401C40000000000000000000000000000000000000000000000000000000000000000000000000000000000000000000000000000000000000000000000000000000000064
:401C8000000000000000000000000000000000000000000000000000000000001000000000040000000000000000000000000000000000000000000000000000000000040C
:401CC0000000000000050080000000000000000000010000000000000008000004000000000000000000000000000000000000000000000000000000000000000000000052
:401D000000000000000000000000000000000000800040000000000000000000000010000000000000000000000000000000000000000000000000000000000000000000D3
:401D40000000000000000000000000000000000000000001000100000000000000000000000000000000000000000000000000000000000000000000000000000000000061
:401D80000000000000000000000000000000000000000000000000000000000000000000000000000000000000000000000000000000000000000000000000000000000122
:401DC000000000000000000000000000000000000000000000000000000800000400000080080000000000000000000000000000000000000000000000000000000030001F
:401E000000000000000000000000000000000000000000000000000000000000100000000000A00000000000000000000000000000000000000000000000000000000000F2
:401E40000000000000000000000000000000000000000000000000000000000000000000000000000000000000000000000000000000000000000000000000000000000062
:401E8000000000000000000000000000040000000000000000000000000000000000000000000000000000000000000000000000000000000000000000000000000000001E
:401EC000000000000000008000000000000000000000000000000080000000008000000000004000000000000000000800000000000000000000000000000000000000001A
:401F000000000000000000000000000040000000000000000000000000000000000000000000000000008000000000000000000000000000000000000000000000000000E1
:401F40000000000000000000000000000000000000000000000000000000000000000000000000000000000000000000000000000000000000000000000000000000000061
:401F8000000000000000000000000000000000000000820000080000000000000000080000000000000000000000000000000000000000000000000000000000000001008E
:401FC00000000000000808000000000000000000000000000000008000000000800000080000000000000000000000000000000000000000000000000000000000000000C9
:402000000000000000000000000000008000C000800000000000000000000000000040000000000000000000000000000000000000000000000000000000000000000000A0
:402040000000000000000000000000000000000000000000000000000000000000000000000000000000000080000008000000800000000000000000000000000000000058
:402080000000000000000000000000000000000000000000000000000000000000000000000000000000000000000000000000000000000000000000000000000000000020
:4020C00000000000000000000000000000000000000000000000000000000000000000000000000000000000000000000000000000000000000000000000000000000000E0
:402100000000000070000000000000000000000000000000000000000000000000000000000000000000000000000000000000000000000000000000400000E1E160E100EC
:4021400000000000620000E7E703E700000000000020200020000000003B3B303000000040006892921092100000000049000079300939000200000000000000000000005B
:40218000000000000000000000000000000000000000000000000000000000000000000000000000000000000000000000000000000000000000000000000000000000001F
:4021C00000000000000000000000000000000000000000000000000000000000000000000000000000000000000000000000000000000000000000000000000000000000DF
:40220000000000000000000000000000000000000000000000000000000000000000000000000000000000000000000000000000000000000000000000000000000000009E
:40224000000000000000000000000000000000000000000000000000000000000000000000000000000000000000000000000000000000000000000000000000000000005E
:0200000490006A
:0400000000004004B8
:0200000490105A
:04000000BC90ACAF55
:0200000490303A
:0200000040E1DD
:0200000490402A
:4000000000000000000000000000000000000000000000000000000000000000000000000000000000000000000000000000000000000000000000000000000000000000C0
:400040000000000000000000000000000000000000000000000000000000000000000000000000000000000000000000000000000000000000000000000000000000000080
:400080000000000000000000000000000000000000000000000000000000000000000000000000000000000000000000000000000000000000000000000000000000000040
:4000C0000000000000000000000000000000000000000000000000000000000000000000000000000000000000000000000000000000000000000000000000000000000000
:0200000490501A
:0C00000000012E16106900012E25514A47
:00000001FF