:400000000080002011000000090700000907000080B500AF024A034B1B68136000F07EFBBC760040FA460040010000000020004001000000002001400100000000480040D4
:400040000100000000480140010000000100000008000223000008760800032300001076080004230000287608000523000030760500062300002070050007230000307065
:4000800005000823000060700500FE230000707010000A220000005130000B22000040511000FE220000F05180030D220000000080030E220000000800040F220000000CA0
:4000C0008001102200000014000411220000001880001222000000418000132200000043800014220000004680011522000000470002FE220000004C0700172300001052F1
:400100000700182300001852060019230000605240001A23000000642000FE230000706408001C230000005180001D230000000480001E230000800480001F2300000006C0
:400140008000202300008006800021230000001680002223000080161000232300001050100024230000005080002523000080468000262300000045800027230000804579
:400180008000282300000044800029230000804480002A230000801580002B230000001780002C230000801780002D230000000780002E230000800780002F230000800B67
:4001C000800030230000000580003123000080058000322300008003800033230000004980003423000080498000352300008048800036230000804380003723000000425F
:400200008000382300008042800039230000804180003A23000000408000FE230000804010B5054C237833B9044B13B10448AFF300800123237010BD4081FF1F0000000085
:40024000A00D0000084B10B51BB108490848AFF300800848036803B910BD074B002BFBD0BDE81040184700BF000000004481FF1FA00D0000C880FF1F0000000080B500AFB1
:40028000154800F0E5FC00F07FFC4FF4FA6000F0D9FA032000F01AFC00F02EFD00F0C8FC00F040FB00F0C8FB00F090FB00F0A2FB62B6102000F070FB00BF00F051FB034680
:4002C00003F00103002BF8D0132000F065FBC82000F0B8FAEDE700BFDD02000080B500AF41F2883000F0AEFA002000F0EFFB41F2883000F0A7FA72B600BF80BD80B584B02B
:4003000000AFF860B9607A607A68B968F86800F03BFD00BF1037BD4680BD00BF80B483B000AF0346FB71FEE780B483B000AF434B00221A60424B10221A70424B01221A70C0
:40034000414B00221A70414B4FF4E8721A80404B01221A703F4B03221A703F4B3F4A92B21A803F4B47F608021A803E4B00221A803D4B4FF480421A803C4B09221A703C4B86
:400380000C221A703B4B16221A703B4B1B221A70BFF35F8F394B01221A70BFF35F8F00BF2A4B1B889BB2002BFAD100237B600DE07B68DA00324B13441946324A7B6852F8E1
:4003C00023309BB20B807B6801337B607B68392BEED9BFF35F8F294B01221A70BFF35F8F00BF294B1B78DBB203F00103002BF8D100BF264B1B78DBB203F00103002BF8D1F8
:4004000000BF234B1B78DBB203F00103002BF8D100BF204B1B78DBB203F00103002BF8D100BF1D4B1B78DBB203F00103002BF8D100BF0C37BD4680BC704700BF6081FF1F67
:400440000076004010700040197000400078004002780040037800400478004050000000067800400476004006760040297000403970004069700040797000401470004008
:400480000C780040A40D0000187000402870004038700040687000407870004080B582B000AF304B0B221A802F4B18221A702F4B02221A704FF0402308221A702C4B03224F
:4004C0001A702C4B2C4A1278D2B21A702B4B08221A802B4B41F251221A800023FB7019237B6013E0FB785B00DAB2264B1B78DBB203F00103DBB21343DBB203F00303FB70AF
:40050000782000F005FC7B68013B7B607B68002B02D0FB78032BE5D17B68002B02D10320FFF7FCFE184B4FF480721A80164B07221A70164B00221A70154B48221A70124B09
:4005400000221A70134B02221A70134A124B1B78DBB243F00103DBB2137000BF0837BD4680BD00BF80400040824000400043004000420040A1460040080100492242004081
:40058000204200402542004004400040064000400840004001400040A243004080B483B000AF0F4B1B78FB710E4AFB7903F00703DBB213700C4AFB791B09DBB213700B4B1E
:4005C00002221A700A4B20221A700A4B20221A70094B44221A7000BF0C37BD4680BC7047CF0100496E5800406F5800403D510040C85A0040CB5A00407658004080B500AF22
:4006000072B62F4B61221A70FFF748FF2C4B81221A702C4A2B4B1B78DBB243F00403DBB21370FFF781FE284B40F203121A80274A264B1B78DBB243F00203DBB21370244A53
:40064000234B1B78DBB243F00203DBB21370214A204B1B78DBB243F04003DBB213701E4A1D4B1B78DBB243F01003DBB2137008221A491B48FFF742FE08221A491A48FFF7D7
:400680003DFE082219491A48FFF738FE082219491948FFF733FE194A184B1B78DBB243F00803DBB21370164B01221A70FFF776FF0E2208491348FFF721FE00BF80BD00BF78
:4006C00000480040E84600404A5800400350014013500140A0430040C2430040200F0048C2510040280F004812510040300F004822510040380F0048325100402243004065
:4007000004000840B043004080B500AF00F010FB03461B680C2B00D1FEE7FEE780B586B000AF224B7B61224B3B61204B7B6135E03B691B68FB603B695B68BB603B699B684A
:400740003B6000237B600CE0FB681A68BB681A60BB680433BB60FB680433FB607B6804337B607A683B689A42EED13B69DB683B6000237B6008E0BB6800221A60BB68043372
:40078000BB607B6804337B607A683B689A42F2D13B6910333B617B69013B7B617B69002BC6D100F0CBFAFFF769FDFEE701000000B40E000080B582B000AF184B184A1A60D2
:4007C000184A184B1B6843F40073136000237B600FE07B68032B04D8134A7B6852F8233000E0124B12497A6841F822307B6801337B607B682F2BECD90E4B1B78DAB20E4B13
:400800001A700E4B0A4A1A60FFF7F8FE0C4B00221A6000BF0837BD4680BD00BF0CED00E00004FA0514ED00E000000000090700000080FF1FBC760040C480FF1F08ED00E017
:40084000C080FF1F80B582B000AF786008E00C4B1B68184600F05CFA7B68A3F500437B607B68B3F5004FF2D8064B1B687A6802FB03F3184600F04CFA00BF0837BD4680BD0E
:40088000D880FF1FD080FF1F80B500AF084B0F221A7000F0D1F800F063F800F06FF8054B00221A70044B00221A7000BF80BD00BF86640040876500408665004080B582B06D
:4008C00000AF00F02DFA0346FB71134A124B1B78DBB243F02003DBB21370104A0F4B1B78DBB243F01003DBB213700D4A0C4B1B78DBB243F01003DBB21370FB79184600F02D
:4009000013FA00F0C9F800F01FF800F023F800BF0837BD4680BD00BF96640040976500409665004080B500AF064B1B78002B04D1FFF7AAFF034B01221A70FFF7BFFF00BF64
:4009400080BD00BF6481FF1F80B400AF00BFBD4680BC704780B400AF00BFBD4680BC704780B483B000AF044B1B78FB71FB7918460C37BD4680BC70476765004080B483B066
:4009800000AF044B1B78FB71FB7918460C37BD4680BC70476665004080B483B000AF0346FB7100BF074B1B78DBB203F00403002BF8D0054AFB79137000BF0C37BD4680BCB4
:4009C000704700BF676500404665004080B400AF01E0064B1B78064B1B78DBB203F02003002BF6D100BFBD4680BC7047566500406665004080B582B000AF00F091F90346D5
:400A0000FB710C4A0B4B1B78DBB243F00103DBB21370084A074B1B78DBB223F00103DBB21370FB79184600F07FF900BF0837BD4680BD00BF9665004080B582B000AF01E0E3
:400A4000124B1B78124B1B78DBB203F02003002BF6D100F065F90346FB710E4A0D4B1B78DBB243F00103DBB213700A4A094B1B78DBB223F00103DBB21370FB79184600F036
:400A800053F900BF0837BD4680BD00BF56650040666500409665004080B400AF094A094B1B78DBB243F00103DBB21370064A064B1B78DBB243F00103DBB2137000BFBD46F1
:400AC00080BC7047A2430040B243004080B483B000AF0346FB71044AFB79137000BF0C37BD4680BC704700BF7464004080B500AF002000F05BF8154A144B1B78DBB223F092
:400B00002003DBB21370114A104B1B78DBB223F00403DBB213700D4A0C4B1B78DBB243F00803DBB213700A4A094B1B78DBB223F01803DBB21370064A054B1B78DBB243F06D
:400B40001003DBB2137000BF80BD00BF41580040CF5A004080B400AF094A094B1B78DBB243F00203DBB21370064A064B1B78DBB243F00203DBB2137000BFBD4680BC7047A5
:400B8000A7430040B743004080B500AF064B1B78002B04D1FFF7AAFF034B01221A70FFF7D9FF00BF80BD00BF6581FF1F80B483B000AF0346FB711749164B1B78DBB25BB229
:400BC00023F003035AB297F9073003F003035BB213435BB2DBB20B70FB79012B0AD10E4B0E4A1278D2B21A700D4B0E4A1278D2B21A7009E0084B0C4A1278D2B21A70084B0F
:400C00000A4A1278D2B21A7000BF0C37BD4680BC704700BF4158004032460040110100493346004015010049AF010049B701004980B500AF00F054F8044800F021F804207A
:400C400000F030F800F040F800BF80BD750C000080B582B000AF786000F042F8786800F00FF8042000F01EF800F02EF800BF0837BD4680BD80B400AF00BFBD4680BC7047B2
:400C800080B485B000AF7860054B1B68FB60FB6840337A681A6000BF1437BD4680BC704708ED00E080B483B000AF0346FB71054AFB795B01DBB2137000BF0C37BD4680BCD4
:400CC000704700BF00E400E080B400AF034B01221A6000BFBD4680BC704700BF00E100E080B400AF034B01221A6000BFBD4680BC704700BF80E100E080B400AF034B0122E0
:400D00001A6000BFBD4680BC704700BF80E200E00230800803D000BF01380046FCD17047EFF3108072B6704780F31088704700BF014B1868704700BF3C81FF1F0E4B70B5C7
:400D40001E460E4C0025E41AA410A54204D056F8253098470135F8E700F09AF8084B094C1E46E41AA4100025A54204D056F8253098470135F8E770BD9C0E00009C0E000054
:400D80009C0E0000A40E000010B5431E0A44914204D011F8014B03F8014FF8E710BD00000000000028000000300000003800000040000000480000004800000048000000C8
:400DC000480000006081FF1F6081FF1F6081FF1F6081FF1F6081FF1F6081FF1F6081FF1F6081FF1F6081FF1F6081FF1F6081FF1F6081FF1F6081FF1F000000480800004820
:400E00001000004820030048600300481800004820000048A000004820010048A001004820020048A00200488003004890030048A003004820040048A00400482005004898
:400E4000A005004820060048A006004820070048A007004820080048A008004820090048A0090048200A0048A00A0048200B0048A00B0048200C0048A00C0048200D004862
:400E8000A00D0048200E0048A00E004843000000F8B500BFF8BC08BC9E46704745020000B5070000F8B500BFF8BC08BC9E46704721020000C80E0000C880FF1F78000000B6
:400EC00028000000000000000000000000366E01C05D0000180000000000E02E00000000000000000000000000000000000000000000000000000000000000008C0E000048
:400F0000000000000000000000000000000000000000000000000000000000000000000000000000000000000000000000000000000000000000000000000000DC80FF1F37
:400F40000000000000000000000000000000000000000000000000000000000000000000000000000000000000000000000000000000000000000000000000000000000071
:400F80000000000000000000000000000000000000000000000000000000000000000000000000000000000000000000000000000000000000000000000000000000000031
:400FC00000000000000000000000000000000000000000000000000000000000000000000000000000000000000000000000000000000000000000000000000000000000F1
:4010000000000000000000000000000000000000000000000000000000000000000000000000000000000000000000000000000000000000000000000000000000000000B0
:020000040003F7
:0200000480007A
:400000008202000000000000200000000000000080040000000000000300000000000000080000021C02620110006000400000004000000000004000780000000000000062
:4000400040000000400000000200340001000001010070000E0000030000280000000100510000000000000210FFFFFF00000000000000000000080004040404909900017B
:400080008000404040408000800080008000800000000000000000000000000000000000000000000301040204040902000600000E040000000700000002000400060000F8
:4000C0000002000405020A0000020005000000000F0000070000000002000000000000000000000000000000000000000000000000000000000000000404000000000001C1
:400100000000000000000000000000000000000000000000000000000000000000000000000A001003560C09090006040004000002040D00000700380001000005040A00BA
:40014000000000000004000000600000000400000F00007F0F0000000008220000000000000000000000000000000000000000000000000000000228040400040000000119
:40018000000000000000000000000000000000000000000000000000000000000000000002000400010C0203000200080D0100080D0A00000D00000002080D02020A0800B6
:4001C000000200000D080000000300040D080002000000000F00000F0000208000000000000000000000000000000000000000000000000000000000040400000000000103
:4002000000000000000000000000000000000000000000000000000000000000000000000001000002000000000103000000000100000101000000000000000000000300B1
:4002400000000000000100000000000000010000030000000001000000000000000000105602100004CEFD0B1FFFFFFF2200F008040000004000000004040404000000019B
:400280000000C00040011011C001001140014001000000000000000000000000000000000000000000000100000001000200000002010000020000000001000001000000BD
:4002C000000000000200000000010000000002000200000000000101000000000000414000000000000000000000000000000000000000000900000004040004000000015E
:4003000000000000000000000000000000000000000000000000000000000000000000000000000000000000000000000000000000000000000000000000000000000000BD
:400340000000000019000000000000000000000000000000000000000000000000000000000000000100000000000000000000000000000000000F00000000000000000054
:400380000101000000000000000001010000000001010000000000000000010100000000000000800000000004080000000000000000000000000000000000000008008021
:4003C00000000000040000000000000000000000000000000004000000000000000000000000000000000000000000000000000000000000000000000000000000000000F5
:4004000005000000000000000000000000000200000000000000000000000000000000000000000000000000000000000000000000080000000000000000000000000000AD
:4004400000000000000000000000000000000000000000000000000000000000000000000000000000000000000000000000000000000000000000000000000000080080F4
:40048000000000000000000000000000000000000000000000000000000000000000000000000000000000000000000000000000000000000000000000000000000000003C
:4004C00000000000040000000000000000000000000000000000000000000000000000000000000008000000000000000000000000000000000005000000000000000000EB
:4005000000000000000000000000000000000000000000000000000000000000000000000000000000000000000000000000000000000000000000000000000000000000BB
:40054000000000000000000000000000000000000000000000000000000000000000000000000000000000000000000000000000000000000000000000000000000000007B
:400580000000000000000000000000000000000000000000040000000000000000000000000000000000000000000000000000000000000000000000000000000000000037
:4005C00000000000000000000000000000000000000000000000000000000000000000000000000000000000000000000000000000000000000000000000000000000400F7
:40060000000000000000000000000000000000000000000000000000000000000000000000000000000000004000000000000000000000000000000000000000400000003A
:400640000000000000000000000000000000400000000000001200000000000000000000000000000000000000000000000000000000000000000000000000000000000028
:4006800080000000000000000000000000000000000000000000000000000000000000008020001200200010008112000080800022000200000000000041800000008000E0
:4006C0000000000100000004002000002000000200004150000402040000000000021080000000004000005000000000002A010000000000000060480059000000000000CA
:400700000000000100046000000000000000000000000000000000000000000000000000000000000000000000000000000000000000100000000000002000100002000012
:40074000628100000000000800000000208402000000000000000000000000000000000067009D0005000000000054008500B000B000300000000F007800000000000000EF
:400780000000000000000000000000000000000000000000000000000000000000000000820010100024081080011400008080002200000000000000000004000000801010
:4007C00002C0000000000020000A10020008000A201000410004026000900800820018000000000000000000000000000000000000000000000000000000000000000000E0
:4008000000000000000000200000000022125042000000004000000100000000000000008020002000000000000000000000000000000000000450000028001000120040F3
:4008400000000000600100000000000000004000000000000000000000000000000000006D009F000500000000007F00FD00FE00000000000000000040000000000000000C
:400880000000000000000000000000000000000000000000000000000000000000000000000000000000000000000000000000000000000000000000000000000000000038
:4008C00000000000000000000000000000000000000000000000000000000000000000000000000000000000000000000000000000000000000000000000000000000000F8
:40090000A100000000000000000000000000400000000000000000000000000000000000800600080020001000005480000080002202080000040000002884080000800060
:4009400001000001000008100040000000280040000000000012084009000000800410000100000000000000004000000000000004000000000000000000800000000000F9
:4009800000400000000000000500000000000000000000000000000000000000000000000100000000000000050000000000000000000000000000010000000000000000EB
:4009C00002000000000000000000000000000000000000000200000000000000000000006F001E002F0000000000E800F000730008000800000008000800000000000000CC
:400A000001000000000000000000000000000000000000000000000000000000000000000000000000000000000000000000000000000000000000010000000000000000B4
:400A40000000000000000000000000010000000000000000000000000000000000000000000000000000000000000000000000000000000000000000000000000000000075
:400A8000000000000000000000000000000000000000000000000000000000000000000000000000000000000000000800000000000000000000000000000000000000002E
:400AC00000000000000000000000000000000000000000000000000000000000000000000000000000000000000000000000000000000000000000000200000001000000F3
:400B000000000000000000000000000000000000000000000000000000000000000000000000000000000000000000040000000001000000000000000200000000000000AE
:400B4000000000000000000000000000020000000000000000000000000000000000000000004000000000000000000000000000000000000000C000000000000000000073
:400B800000000000000000000000000000004000000000000000000000000000000000000000000000000000000000000000000001000000000000000000000000000000F4
:400BC00000000000000000000000000000000000000000000000000000000000000000000000000000000000000000000000000000000000000000000000000000000000F5
:400C000000000000000000000000000000000000000000000000000000000000000000000100000000000000000000000000000000000000000000000000000000000000B3
:400C40000000000000000000000000000000200000000000000000000000000000000000000000000000000000000000000000000000000000000000000000000000000054
:400C80000000800000000000000000000000400000000000000000000000000000000000000000000000000000000000000000000000000000000000000000000000000074
:400CC00000000000000000000000000000000000000000000000000000000000000000000000000000000000000000000000000000002000000000000000000000000000D4
:400D000000000000000000000000000000000000000000000000000000000000000000000000000000000000000000000000000000000000000000000000000000000000B3
:400D40000000000000000000000000000000000000000000000000000000000000000000000000000000000000000000000000000000000020000000000000000000000053
:400D80000000000000000000000000000000000000000000000000000000000000000000000000000000000000000000000000000000000000000000000000000000000033
:400DC00000000000000000002000000000000000000000000000000000000000000000000000000000000000000000000000000000000000000000000000000000000000D3
:400E00000000000000000000000080000000000000000000000000000000000000000000000000000000000000000000000000000000000000000000000000000000000032
:400E40000000000000000000000000000000000020000000000000000000000000000000000000000000000000000000000000000000000000000000000000000000000052
:400E80000000000000000000000000000000000000000000000000000000000000000000000000000000000000000000000000000000000000000000000000000000000032
:400EC00000000000000000000000000000000000000000000000000000000000000000000000000000000000000000001000000000000000000000000000000000000000E2
:400F000000000000000000000000000000000000000000000000000000000000000000000084840084000000000B0B000000000000828200820000004030300030000200B7
:400F40000000000000000000000000000000000000000000000000000000000000000000000000000000000000000000000000000000000000000000000000000000000071
:400F80000000000000000000000000000000000000000000000000000000000000000000000000000000000000000000000000000000000000000000000000000000000031
:400FC00000000000000000000000000000000000000000000000000000000000000000000000000000000000000000000000000000000000000000000000000000000000F1
:4010000000000000000000000000000000000000000000000000000000000000000000000000000000000000000000000000000000000000000000000000000000000000B0
:0200000490006A
:0400000000004004B8
:0200000490105A
:04000000BC90ACAF55
:0200000490303A
:02000000345278
:0200000490402A
:4000000000000000000000000000000000000000000000000000000000000000000000000000000000000000000000000000000000000000000000000000000000000000C0
:400040000000000000000000000000000000000000000000000000000000000000000000000000000000000000000000000000000000000000000000000000000000000080
:400080000000000000000000000000000000000000000000000000000000000000000000000000000000000000000000000000000000000000000000000000000000000040
:4000C0000000000000000000000000000000000000000000000000000000000000000000000000000000000000000000000000000000000000000000000000000000000000
:0200000490501A
:0C00000000012E16106900012E1B44BBED
:00000001FF