:20000000A08100000000000030100000000000001012101068000000381100000901000082
:20002000268400000000000020000000000000003F000000000000000000000000000004B3
:20004000004000000000000000003600004000000000000000003600609A000056980902C1
:2000600001020098843800C0040000000A02100000000000849A00000713386484FC0003F2
:20008000802104D80498800200E07F0F000080130800000A00004000000000000000000072
:2000A0000000000000000000000000000000022004040004333000010000000000000000AE
:2000C0000000000000000000000000000000000000000000000000000012000594186901F3
:2000E000000000002000D00000000000001D00020E0000003300C400000000005500AA00ED
:200100000008000000000000000100100F0EF00020008020000000050000000000000000F4
:20012000000000000000000000000000090000000404000433300001000000000000000046
:2001400000000000000000000000000000000000000000000000000003000401002A005419
:2001600000FF00000033000C00000000000E0030078000560000000000400013004600A9E4
:20018000060001000000000001FF0200040000002A00000000001500320150000000000090
:2001A00000FFFFFF02007008040000000000000004040404000300010000C000400110118E
:2001C000C00100114001400100000000000000000000000000000000000001001B000000AF
:2001E00000000001200000001A0001000400680004001A001B000000420004001B010000BC
:20020000040170001B000000600000001E01010002002000000040003201500000BEFD0C22
:200220001FFFFFFF2300F008040000004000000004040404033300010000C00040011011DA
:20024000C00100114001400100000000000000000000000000000000350140006406110059
:20026000010402000000004075320008113F8800011C0E221001E01E002A0010242251186B
:200280007518000600220000000000600F00F01F0080A0000000000000000000000000000B
:2002A00000000000000000000000000020000400040400040000000100000000000000000D
:2002C000000000000000000000000000000000000000000000000000000100060000001BFC
:2002E0000001000400120001000000000000001300000013000000000000000000000000C0
:200300000000000000010032000700080010002000000002000000102300000004DB000057
:2003200003FF7FFF42A070000C00000000000000000404000000000100094009300900004B
:20034000000000000000000000000000000000000000000000000000000008001E01200056
:200360000000100000000000000004001E00000000001E00000010000000010000001E00FE
:20038000000002000000000001001E00200100000000000000000400000000000000000017
:2003A0000000000000000000000000004100000004040004002000010000000000000000CF
:2003C00000000000000000000000000000000000000000000000000040381DC00000FF00C9
:2003E0003D02C298019A00005D00A2000421E0D801980002929A60000D98000200130864A0
:20040000E202000000FC0203FFE0000F000000130000000A000001000000000000000000EB
:20042000000000000000000000000000000002240404000410100001000000000000000069
:2004400000000000000000000000000000000000000000000000000084800000801D0400F7
:2004600000C20024040D8010011D00000A1D1000840000008402000D60000010041D0000F8
:2004800056820908072138427FE000008010080F02000082000050100000000000000000E7
:2004A00000000000000000000000F600000000000404000411000001000000000000000028
:2004C000000000000000000000000000000000000000000000000000000000010400000017
:2004E0000000000000000100000000000000000000000000030000000000000000000000F8
:20050000000000000000000004000000010102000000000000005100000000000000000082
:20052000000000000000000000000000090000000404000480100001000000000000000015
:200540000000000000000000000000000000000000000000000000000000400000003C001F
:20056000000000000000020000000000430010000000000043000400000000004300080094
:20058000000000002000430040003E0001000000000000000000150002012000030000003E
:2005A00000FFFFFF0200700C8C100000000002200400242400880801000000000000000025
:2005C0004001C0010000000000000000000000000000000000000000000800070001000009
:2005E00000FF00000003000000100007000300000001000000C0000700050078003A00045C
:2006000000010000002200050000007F0080000000200000000000040605600003EC0BDF4B
:2006200037FFFFFF2300F00C8C10000000000800000424040028000100000000000000006E
:200640004001C00100000000000000000000000000000000000000000300980000000B00F2
:20066000C10014010200010000002000000403000100060000004000C000000080000B00E8
:2006800080000B0003008006380400020701C000000022000000000100000000000000001D
:2006A0000000000000000000000000000000080004040004205000010000000000000000B5
:2006C000000000000000000000000000000000000000000000000000020F010008001008E8
:2006E000040000200010020200000018003F00000010000104400080000001140800100069
:20070000000400080040008000001C00043F03C0282000000000140041000000000002004C
:2007200004FFFFFF000000000000000000000000040404040505000180004040404080009D
:200740008000800080008000000000000000000000000000000000000080010000250A0ADF
:20076000008000000021000400200002008F04000A26000000400000000100220021000269
:2007800000080205000000100200041F0880016000A00000000011402400000000200050A7
:2007A00022FFFFFF42A0700008100000000000000404040000000001004840488048804843
:2007C0000000000000000000000000000000000000000000000000000043000C7E02000D3D
:2007E00005000A000000000004000900000000200000000003000400000000000005006A47
:20080000301040005009206620000F60400F1010AA00002000005140000000000000000020
:20082000000000000000000000000000000008000404000411200001000000000000000072
:200840000000000000000000000000000000000000000000000000001F4D00920304200073
:2008600040A50B4A0302000042000904010000B540CC14134F000001901A0B6001A900549E
:200880000000010248FF02000000E0001F0040FF88000000000044406405200001DEFBC09F
:2008A0002FFFFFFF2200F008040000004000000004040404001100010000C000400110116A
:2008C000C001001140014001000000000000000000000000000000000000000000000000C4
:2008E0000000000001000000010000000100000000000000000000000000000000000000F5
:200900000000000000000000010000000000000000000000000001000000000000000000D5
:2009200000000000000000000000000020000000040000040020000100000000000000006E
:20094000000000000000000000000000000000000000000000000000000000000000000097
:20096000000000000000000000000000000000000000000000000000000000000000000077
:20098000000000000000000000000000000000000002000000000001000000000000000054
:2009A000000000000000000000000000000000000004000000000001000000000000000032
:2009C000000000000000000000000000000000000000000000000000000000000000000017
:2009E0000000000000000000000000000000000000000000000000000000000000040000F3
:200A00000000000000000000000000000000000000000000000000000000000100000000D5
:200A200000000003000000001F0000000000470F00000F000000000000000000000000002F
:200A40000000000000000000000000000000000000000000000000000000000000190F006E
:200A600000000000000000000000000000000800000000000000000000000000000000006E
:200A80000000000000000000000000000000000000780000000000002700000000000000B7
:200AA00000002700070000000F0000000000000009000700070000000000000000000000E2
:200AC000000000000000000000000000000000000000000000000000000000000000000016
:200AE0000000000000000000000000000000000000000000000000000000000000000000F6
:200B00000000000000000000000000000000000000000000000000000000000000000000D5
:200B20000000000000000000020000000000000000000000000000000000000000000000B3
:200B4000000000000000000000000000000000000000000000000000020000000000000093
:200B6000000000000000000000010000000000000000000000000000000000000000000074
:200B8000000000000000000000000000000000000000000001000000000000000000000054
:200BA000000000000100000000000000000000000000000000000000000000000000000034
:200BC000000000000000000000000000000000000000000000000000000000000000000015
:200BE0000000000000000000000000000000000000000000000000000000000000000000F5
:200C00000000000000000000000000000000000000000000000000080000000000000008C4
:200C20000000000000000000000000000000000000000000000000000000000010000000A4
:200C4000000000000000000800000008000100001000000000000000020000000000000071
:200C6000000000000000000000000000000000000000000000000000000000000000000074
:200C8000000000000000000000000000000001000100000000000000000000000200000050
:200CA000000000000000000000000000000000000000000000000000000000000000000034
:200CC000000000000000000000000000000000000000000000000000000000000000000014
:200CE0000000000000000000000000000000000000000000000100000000000000000000F3
:200D00000000000000000000000000000000000000000000000000000000000000000000D3
:200D200000000000000000000000000000000000000000000000000020000000000000048F
:200D40000000000000000040000000000000000010000000200000400200000000000000E1
:200D6000000000000000000000000000000000000000000000000000000000000000000073
:200D800000000000000001000000000000000000000000000000000008000000000000004A
:200DA000000000000000000000000000000000000000000000000000000000000000000033
:200DC000000000000000000000000000000000000000000000000000000000000000000013
:200DE0000000000000000000000000000000000000000000000000000000000000000000F3
:200E00000000000000000000000000000000002000000000000000000000000000000000B2
:200E2000000000000000000000000000000000000000000000000000000000000000004072
:200E40000000000000000400000000400000000010000000200004400200002000000000B8
:200E60000000002000000000800000000200020000000000000000000000000000000000CE
:200E8000000000000000000000000000020000000000000000000000000000000800000048
:200EA000000006000200000000000000000000000000000000000000000000000000020028
:200EC000800000000000004010000000000000000000000000000000000000000000000042
:200EE0000000000000000000000000000000000000000000000000000000000000000000F2
:200F000000000000000000000000000000000000000000440000000000000000200000006D
:200F200000000000000000000000000000000400000000000000000000002000000000008D
:200F400000000000000000040000000000000000000000000000200000000000000000006D
:200F6000000000000000000000020000000000000000000000000000010006000800000060
:200F8000000000000000000000000000010002000100000002000000000000000800000043
:200FA000010000000000000000000000000000000000000000000000000000000000000030
:200FC000000000000000000000000000000000000000000000000000000000000000000011
:200FE0000000000000000000000000000000000000000000000000000000000000000000F1
:201000000000000000000000000000000000000000000000000000000000000000000000D0
:2010200000000000000000000000200000020000000000000000000000000000000000008E
:20104000000000000000000000000000000000000000000000000000000000000000000090
:20106000000000000000000000000000000000000000000000000000000000000000000070
:2010800000000000000000000000000000000000000000000100040000000000000000004B
:2010A000000000000000000000000000000000000000000000000000000000000000000030
:2010C00000000000000000000000000000000000000000000000000000000100000000000F
:2010E0000000000000000000000000000000000000000000000000000000000000000000F0
:201100000000000000000000000000000000000000000000000000000000000000000000CF
:201120000000000000000000000000000000000000000000000000000000000002000000AD
:2011400000000010000000000000002000000200000000000200000000000000000000005B
:2011600000004000000001020400000602202240000000000000000000000000000000009E
:2011800000000000000000000000000000000000000000000000000000002000000000002F
:2011A00050008000C000000000000000000000000000000000000000004220045000812048
:2011C00000044500000000024004022000044000009205000088002000010404000080084A
:2011E0000200000002020004000004008000022400001000100A00400000003000804100E0
:2012000000000000000000000000000000008000000080004000000000004000000000004E
:201220000000000000000000000000000000000000000000000000008140001002000008D3
:2012400000040040000000001000C00802020004420010240092001800052201000880108A
:20126000000000000000200048100100000209000000000000000000FF008F003F0000001D
:201280000000B800F200F400900000000000180008000000000000000000000002000000FE
:2012A00000002C00800002000000000000000000000000000000000000400000402480005C
:2012C000000200100800098000000000400402100002000000000854000000000000800037
:2012E000000000000800811000000000082000410000000040842A000000000002220000DA
:201300000000000000490011000000000001500200000002000000001000200220001001BB
:201320000000000000000000000000000000000000000000000000000000C00000120000DB
:2013400048002000000080001040C110002100A020040851400A42000C6200010201000048
:20136000402100000000011100001210402100000000000000000000F100FC00F00000009A
:201380000000F000F000F000B0003000000001007E00000000000000A000400040000200FC
:2013A00040000000A00000000000000000000000000000000000000020080400020010000F
:2013C00001000001000000240A000000040000008028020000048090040044002004380176
:2013E00081004488004500040000040000028024040000011008004200000000000000113D
:20140000000003000000000200000000000100000000204000000000020010000000000054
:2014200000000000000000000000000000000000000000000000000000000044010004085B
:201440000001100440600000100560412410002004000024889660081A000100000C700088
:201460000000100001000848101000000040020000000000000000003600690043000000C7
:201480000000FE00F200F300A000000000000C000C0000000000000001001200400013004B
:2014A000080003000000020000000000000000000000000000000000880280004000108045
:2014C000209000000040441000000000046440000190000100604000040000000012400098
:2014E0000000000024410000000000000000420400000100400204100000000000000000EA
:201500000000000000000000000000000000000000690000000000000000800000000000E2
:201520000000000200000018000000000800084180000000000000000050000C20040080C0
:2015400000000C000840000290008000050001A08004010040800A1044C000000A00000012
:20156000000400000000000000000040041000000000000000000000B500F100F00000007D
:201580000000F000D000F1000000000000000F000800000000000800400020002C001000DF
:2015A00000001000100080000000000000000000000000000000000000022A002006040035
:2015C0005004004040002A4001210004800000280000400010000C012001840100100004E8
:2015E00000006220000000002000044004080000802200000000080000000000000000004F
:2016000000000000000000000000000000000000000000000008900004000000000000200E
:201620006060004000000000400000000000000000000000000000004000080040010000E1
:201640003000000000008220000520040010044204000020899604040A000900001C1008A7
:201660000000404100000108000040000000004400000000000000007F00FF007F0000005F
:2016800000000F000E004D0000000000000070004400000000000000030000000A0001001E
:2016A0000000000001000000000000000000000000000000000000004600010000000000E2
:2016C0002000220400000000004400000000000000109C00000000000000000008000800C4
:2016E000000000000A00011000000000400400120000000000A00A000100140400000004B2
:201700000100004040800404000000004500000000000000200000400100000002002000F8
:20172000004422000000600000000000000000008000200080000000000000028000200021
:2017400000000800131000004000000000004000000000000000000000C0200000001000EE
:201760000000000000000000008020004000000000000000000000000D0005000500000072
:201780000000F000F000F0004E003000000030003800000000001A000000400000009200A7
:2017A00000002000440000000000000000000000000000000000000000162000000000008F
:2017C0000000194000100004000808000000000000200900000000000000082100610010C9
:2017E000010204080000000110000244000400102000008500A21400000000008808000084
:20180000000000001001400000000000000000000090000A000000000020408000000000FD
:201820000A0000000000000000000000000000001000080000000000000021000400000061
:20184000002000420000100000200000000500400000000008020000000003000014180078
:201860004108000800000000000000000000000800000000000000000E000F0006000000EC
:2018800000001F006F00FF00E000000000000F000D000000000000000000080001001000A6
:2018A000000020000400000000000000000000000000000000000000000040000040000084
:2018C0000000000000000000000000000000000000000000000000000000000000001000F8
:2018E0000000000000000000000010000000000000000000000000000000000000000000D8
:201900000000000000000000000000000000000000000000000000000400000010000000B3
:2019200000000000000000000000000000000000000000000000000048004000020000001D
:201940000100190000000400240001010010000041000800000400110010000000000300C2
:2019600008000010000600000000000000001800002000000029006004843010048020100C
:20198000008880000080008000005004000000000000000000000000000850000000000093
:2019A00000800008011000000000000000000000000000000000000000000000001000106E
:2019C000000000000044000104080501000000080100010000080000248000480000800032
:2019E0000000802000000000000000000000000000000000000000001D004F004F0000008C
:201A00000000C6006000F4007E001800000000000E000000000000000200500000000000B6
:201A2000000000000000000000000000000000000000000000000000840081080440000055
:201A400048000140000004012310000100080000010000480040040000840841040000A0BE
:201A600009000A000420000444000000080008000014014004000A01000000000000000073
:201A80000000000000000000000000000000000000000000012800800040000000008000DD
:201AA0006614000000000000000001000000000000000000000000000000000000000000AB
:201AC000000000000000000000000000000000000000000000000000000000000000000006
:201AE000000000000000000000000000000000000000000000000000AF00CD002F0000003B
:201B000000002F004A00CF00000000000000F0001800000000000000000000000000000075
:201B2000000000000000000000000000000000000000000000000000000020000010000075
:201B400010000000000000000000000000000000000000000000000000000008000000006D
:201B6000000000000000000000000000000000000000000000000000000000000000000065
:201B800000000000000000000000000200080000000000000400000000000000000000082F
:201BA00000000000000000000004000000000080000000000000000000102000100000025F
:201BC000000000000000000004000008000000000004008000000008000800000000000065
:201BE0000400000010040000040000080000000000000000000000009000400000000000F1
:201C0000100000000000000000000000C0008000800000008000200000001000E000000064
:201C2000000020000000400000000000000000000000000000000000000000000000000044
:201C4000000000000000000000000000000000000000000000000000000000000000000084
:201C6000000000000000000000000000000000000000000000000000000000000000000064
:201C8000000000000000000000000000000000000000000000000000000000001000000034
:201CA00000040000000000000000000000000000000000000000000000000000000000041C
:201CC000000000000005008000000000000000000001000000000000000800000400000072
:201CE0000000000000000000000000000000000000000000000000000000000000000000E4
:201D00000000000000000000000000000000000080004000000000000000000000001000F3
:201D20000000000000000000000000000000000000000000000000000000000000000000A3
:201D4000000000000000000000000000000000000000000100010000000000000000000081
:201D6000000000000000000000000000000000000000000000000000000000000000000063
:201D8000000000000000000000000000000000000000000000000000000000000000000043
:201DA000000000000000000000000000000000000000000000000000000000000000000122
:201DC0000000000000000000000000000000000000000000000000000008000004000000F7
:201DE00080080000000000000000000000000000000000000000000000000000000030002B
:201E00000000000000000000000000000000000000000000000000000000000010000000B2
:201E20000000A0000000000000000000000000000000000000000000000000000000000002
:201E4000000000000000000000000000000000000000000000000000000000000000000082
:201E6000000000000000000000000000000000000000000000000000000000000000000062
:201E800000000000000000000000000004000000000000000000000000000000000000003E
:201EA000000000000000000000000000000000000000000000000000000000000000000022
:201EC000000000000000008000000000000000000000000000000080000000008000000082
:201EE00000004000000000000000000800000000000000000000000000000000000000009A
:201F0000000000000000000000000000400000000000000000000000000000000000000081
:201F2000000000000000800000000000000000000000000000000000000000000000000021
:201F4000000000000000000000000000000000000000000000000000000000000000000081
:201F6000000000000000000000000000000000000000000000000000000000000000000061
:201F80000000000000000000000000000000000000008200000800000000000000000800AF
:201FA000000000000000000000000000000000000000000000000000000000000000010020
:201FC0000000000000080800000000000000000000000000000000800000000080000008E9
:201FE0000000000000000000000000000000000000000000000000000000000000000000E1
:202000000000000000000000000000008000C00080000000000000000000000000004000C0
:202020000000000000000000000000000000000000000000000000000000000000000000A0
:20204000000000000000000000000000000000000000000000000000000000000000000080
:20206000000000000000000080000008000000800000000000000000000000000000000058
:20208000000000000000000000000000000000000000000000000000000000000000000040
:2020A000000000000000000000000000000000000000000000000000000000000000000020
:2020C000000000000000000000000000000000000000000000000000000000000000000000
:2020E0000000000000000000000000000000000000000000000000000000000000000000E0
:2021000000000000700000000000000000000000000000000000000000000000000000004F
:20212000000000000000000000000000000000000000000000000000400000E1E160E1005C
:2021400000000000620000E7E703E700000000000020200020000000003B3B30300000002F
:202160004000689292109210000000004900007930093900020000000000000000000000AB
:00000001FF
