:400000000080002011000000190900001909000008B5044B1A6803F53F5302331A6000F083FC00BFFA4600400800022300000876080003230000107608000423000028762A
:4000400008000523000030760500062300002070050007230000307005000823000060700500FE23000070703000FE220000405180010B220000000A80010C220000000CC3
:4000800080010D220000000E80010E220000001A80000F220000004380001022000000488000FE220000004C07001223000000520700132300001052070014230000185208
:4000C00006001523000060520700162300007852080017230000C85A4000182300000064200019230000706440001A23000000652000FE230000706508001C230000005103
:4001000080001D230000000080001E230000800080001F2300000002800020230000800280002123000000048000222300008004800023230000000680002423000080068B
:400140008000252300000008800026230000800880002723000000148000282300008014800029230000001680002A230000801680002B230000001880002C23000080188F
:4001800010002D230000105010002E230000005080002F230000004D800030230000804D800031230000804C80003223000000478000332300008047800034230000004699
:4001C0008000352300008046800036230000004580003723000080458000382300000044800039230000804480003A230000801B80003B230000001580003C230000801506
:4002000080003D230000001980003E230000801980003F23000000178000402300008017800041230000000980004223000080098000432300000007800044230000800722
:40024000800045230000800B80004623000000058000472300008005800048230000800D800049230000000380004A230000800380004B230000800F80004C23000000016A
:4002800080004D230000800180004E230000004980004F2300008049800050230000804880005123000080438000522300000042800053230000804280005423000000413F
:4002C000800055230000804180005623000000408000FE230000804001000000010100000000480140010000000048004001000000002001400100000000200040000000D3
:4003000010B5054C237833B9044B13B10448AFF300800123237010BD4081FF1F0000000068140000084B10B51BB108490848AFF300800848036803B910BD074B002BFBD08D
:40034000BDE81040184700BF000000004481FF1F68140000C880FF1F0000000008B501F03FF80A4B1B780BB901200AE0022B01D1202006E0032B01D1402002E0042B04D19E
:400380008020BDE8084000F0EBBE08BD6E81FF1F10B50C4600F0E6FF00F098FF204600F063FF002010BD000038B5334B1C781D4634B900F0DBFE314B1880314B1C7003E016
:4003C00000F0D4FE2F4B18802D782B4C05BB2B4B1B88102B10D1012323702B4B188800F0BFFE2A4B188800F0AFFE294B188800F0ABFE234B1D7037E0202B01D1022332E0D9
:40040000402B01D103232EE0802B2DD104232AE0012D08D11A4A1378012B8ABF002301332370137020E0022D03D1164B0020198804E0032D05D1134B01201988FFF7A8FFCD
:4004400010E0042D0ED10F4B124A1B88124D180A002110702B7000F0A3FC287800F006FD00F0E0FC0023237000F068FE00F084FEBDE8384000F09ABF6E81FF1F8681FF1F62
:400480008481FF1F8081FF1F7481FF1F7081FF1F8281FF1F8881FF1F7681FF1F38B500F02DFE00F063FD102000F030FD00F028FDC007FBD5142000F0A9FA002400F032FD20
:4004C0001028E5B20DD0052D0BD8142000F09EFA002000F01BFD00F013FDC107FBD50134ECE7052D1FD8142000F090FA002000F00DFD00F005FDC207FBD500F013FD000239
:4005000084B2142000F082FA002000F0FFFC00F0F7FCC307FBD500F005FD204484B2282000F074FA04E0282000F070FA4FF47044204638BD80B500F0CDFD4FF4FA6000F0D7
:400540004FFA012000F068FD002000F0D7FD002000F06CFE032000F0CBFD00F077FA00F03BFD00F003FD00F0E3FC00F0EDFC00F0EBFE00F0ABFE00F083FE00F08DFE00F014
:4005800047FE002000F0ECFD00F0AEFA224B00241C70224B1C7062B6214800F00DFF214800F0F2FE204D214B0F22214E214FDFF888801A802C800020FFF770FF3080012025
:4005C000FFF76CFF38800220FFF768FFA8F800004FF4AF6000F01AFA00F018FD012817D12C880134A4B2B4F5FA6F2C80E3D172B600F01CFE002000F07BFD44F6206000F042
:40060000EFF9022000F008FD204600F0E9F9D2E700232B80CFE700BF6E81FF1F8481FF1F5D030000A90300006C81FF1F8681FF1F7481FF1F7081FF1F8281FF1F70B572B68B
:40064000884B61221A700321A3F5F063864A19808648182313700B220280837082808371028140F65F10824A824E137050801371814B02221A7008224FF040231A7083F818
:4006800000127E4B7E491B781925DBB20B707D4B00241A8041F2512223F8022C3278782002F0010242EA440303F0030400F0A0FE013D50D0032CF1D1734A4FF48073138043
:4006C000724907231370482000230B7088700221137002F8031C6E494FF42C700A7842F01F020A705F4A812111706A490A7842F004020A70684A10211360684A1170A2F51D
:40070000BE6201211170537202F5FE621080644801704470634CA0F5FF70A0F8004247F60804A0F8024203805F4B4FF480401880A3F2DD53092018700A201874112083F827
:4007400040001B2083F85000BFF35F8F153B1970BFF35F8F00E0FEE7118889B20029FBD15248534A534C50F8041F89B222F8081BA242F8D1BFF35F8F01221A70BFF35F8F39
:400780004D4A1378DD07FCD44C4A1378DC07FCD44B4A1378D807FCD44A4A1378D907FCD4494A1378DB07FCD440F20312474B484D1A80484A03F530438E331A60464A474CBE
:4007C000137843F002031370137C43F0020313742B78A2F5863243F040032B70413A137843F0100313703E4A3E4B07CA03C31A803D4AB83307CA03C31A803C4A3C4B03CBD3
:400800001060516003CB42F8E00C42F8DC1C93E8070003C4374B2280374AA4F6785407CA03C31A80354A137843F008031370344B01221A70334B344A1B78DBB203F00701DE
:400840001B0911705370314B02221A70304A20231370D3702F4B44221A7095E80F0007C4238070BD0048004082400040844000408E400040254200400043004008010049BA
:40088000A1460040224200400440004006400040A2430040E84600406081FF1F00760040027800402800000006760040681400000C780040BC7A0040187000402870004027
:4008C0003870004068700040787000404A580040A0430040040424A40350014020510040981D004800510040A41D0048F2510040B01D004830510040CC1D004822430040F0
:4009000004000840CF0100496E5800403D510040C85A00407658004008B500F079FD03680C2B00D1FEE7FEE780B51148114B0025C0B1A3F1100192C922460439161BB7425F
:4009400004D051F8046F42F8046BF7E7114653F8046C8C1AA64202D041F8045BF9E701381033E5E700F05AFDFFF7E4FDFEE700BF01000000FC150000104A114B10B41A6066
:40098000104A114C1368114843F4007313600023032B98BF54F823204FEA830188BF0C4A0133302B4250F3D10A4B1A780A4B1A700A4B064A10BC1A60FFF740BE0004FA0571
:4009C0000CED00E014ED00E0000000000080FF1F19090000BC760040C080FF1F08ED00E038B50446084DB4F5004F05D9286800F0FFFCA4F50044F6E7034B58686043BDE8EB
:400A0000384000F0F5BC00BFCC80FF1F024B1B7A584300F0EDBC00BFCC80FF1F054A00F01F00126800F1100352F8230042F82310704700BF08ED00E000F01F0000F1604094
:400A4000490100F56440C9B201707047044A137843F010031370137C43F0100313747047A243004038B5134B002401251C701D7400F0C6FC104A137843F01003137000F014
:400A8000C3FC0E4B0F221A7008221A740C4B07211D602046FFF7D0FF0A492046FFF7BEFF094B10221A70094B1C70094B1C70094B1C7038BD75640040956400402765004055
:400AC00080E100E00D0B00008981FF1F8E81FF1F9081FF1F8C81FF1F024A137843F00203137070477564004010B5064C23781BB9FFF7B8FF01232370FFF7EEFF024B01224F
:400B00001A6010BD6481FF1F00E100E030B59649964B1B780A78DBB212F0400F0A4600F01C81D80740F1058109784539052900F20081DFE811F006006E00FE00FE000600C1
:400B4000C10003F0DF0103F00A03082B35D113788548452B25D1864B1B789BB1854B864C1B681B78DBB22370844B06241C70FF2403F8614C002403F8214C814B01241C7009
:400B8000462318E07F4B1B7803F0020303F0FF048BB37D4C237843F00A0323706023037025E0764B02241C70FF2403F8614C002403F8214C4A230370BAE00A2B40F0B88038
:400BC000714B187840F0A00018706E48007800F0020000F0FF0470B110781C7810F0080F14BF09200A202043187060231370674B012018609CE06648037843F0200303701A
:400C00005E4B52201870FF2003F8610C03F8214C8EE003F0020101F0FF0400292DD158485349057809788D4214D2524D01782D68C9B2695C504DC9B22970504906250D70D5
:400C4000FF2501F8615C01F8214C01780131C9B201706EE04B49097801F0020101F0FF0421B14948017841F00A014CE04848017841F020010170522052E042490878424908
:400C800000F0020000F0FF0520B1087840F09A00087039E03E4C207840F020002070374852240470FF2400F8614C00F8215C087840F0900008703CE0364C374825682E4C1E
:400CC00001782478C9B2E4B26C5401780131C9B20170324900780978884209D2274902200870FF2001F8610C002001F8210C20E02449097801F0020101F0FF0451B1224847
:400D0000017841F009010170602111701F49012008600EE01E48017841F020010170122016490870FF2001F8610C01F8214C00E00B46990616D51378134913F0080F0878DB
:400D400014BF0123022303430B7011490B7803F0DF030B701023137030BD0B78DB065CBF10230B7030BD00BF8981FF1F656400408F81FF1F9481FF1F04640040756400409A
:400D80008C81FF1F8D81FF1F8E81FF1F80E100E0856400409881FF1F9081FF1F9C81FF1F30B51B4A1378102B2CD11A4B1C7814F0100F1C464FF0010326D1174D98402B6018
:400DC000C0B211B11843492300E045231370134B8221187083F87110FF211033197010490020087019780029FCD12378DB07FCD5084B1B7803F00A030A2B07D1102313704D
:400E0000032030BD022030BD184630BD002030BD8981FF1F6564004080E100E004640040546400400D4B1A78520714D50C4A52211170FF21613A11700A4900200870117803
:400E40000029FCD1084A102111701A7812F0210FFBD0002070470220704700BF6564004075640040546400408981FF1F134B1A7812F0040F1A461ED0062103F8610C1974C9
:400E8000FF21513B19700E490020087019780029FCD10C4B462119701178C907FCD5074A60211278197002F0020202F0FF0002B97047032070470220704700BF656400405D
:400EC000546400408981FF1F08B500F099FA0B4A137843F02003137012F8043C43F0100302F8043C12F8013C43F0100302F8013C00F08AFABDE8084000F07CB89865004089
:400F0000014B1878704700BF64650040034A13785B07FCD5024B1870704700BF6465004044650040014B1878704700BF54650040034A044913789B0601D50B78FAE770470C
:400F4000676500405465004008B500F059FA064B1A7842F001021A701A7802F0FE021A70BDE8084000F050BA9465004008B50B4A0B4913789B0601D50B78FAE700F040FAA6
:400F8000084B1A7842F001021A701A7802F0FE021A70BDE8084000F037BA00BF67650040546500409465004008B5074B0F221A70FFF7DCFF054B064A1B78064B1B780023DF
:400FC0001370D37008BD00BF8865004064650040846500406765004010B5054C23781BB9FFF7E2FF01232370BDE81040FFF76CBF6581FF1F044A137843F002031370137CEC
:4010000043F0020313747047A2430040014B1878704700BF61640040014B1870704700BF79650040044A137843F002031370137C43F0020313747047A74300400F49012812
:401040000B7803F0FC0200F0030343EA02030B70A1F59051A1F10F01094A05D1094B1B78DBB20B70084B04E0084B1B78DBB20B70074B1B78DBB21370704700BF41580040BF
:40108000334600401101004915010049AF010049B701004908B50020FFF7D0FF0C4B1A7802F0DF021A701A7802F0FB021A701A7842F008021A7093F88E2202F0E70283F8E7
:4010C0008E2293F88E2242F0080283F88E2208BD4158004010B5054C23781BB9FFF7DAFF01232370BDE81040FFF79CBF6681FF1F014B1870704700BF78640040014B187070
:40110000704700BF7264004008B500F079F90A4A1378033A43F02003D37092F8033143F0100382F80331137843F010031370BDE8084000F069B900BF99640040014B187872
:40114000704700BF66640040034A13789B07FCD5024B1880704700BF6965004048640040014B1880704700BF08640040014B188880B2704758640040034A044913781B0731
:4011800001D50B88FAE77047666400405864004008B50F4A0F4913781B0701D50B88FAE700F02EF90C4B1A7842F003021A701A7802F0FC021A705A7842F003025A705A7851
:4011C00002F0FC025A70BDE8084000F01DB900BF66640040586400409864004008B5084B0F221A70FFF7D4FF064B074A1B78074B6FF481711B78002313700A44137008BD42
:401200008964004069650040896500406664004010B5054C23781BB9FFF7E0FF01232370BDE81040FFF770BF6781FF1F014B1870704700BF7364004008B500F0E1F8094AD0
:40124000137843F020031370D37843F01003D370D37943F01003D37100F0D6F8BDE8084000F086B890640040034A13785B07FCD5024B1880704700BF6364004046640040FC
:40128000034A044913789B0601D50B88FAE77047676400405664004008B500F0B1F80A4B1A7842F001021A701A7802F0FE021A705A7842F001025A705A7802F0FE025A70F9
:4012C000BDE8084000F0A0B89664004008B50F4A0F4913789B0601D50B88FAE700F090F80C4B1A7842F001021A701A7802F0FE021A705A7842F001025A705A7802F0FE02D8
:401300005A70BDE8084000F07FB800BF67640040566400409664004008B5074B1F221A70FFF7D4FF054B064A1B78064B1B7800231370137108BD00BF80640040636400403E
:40134000836400406764004010B5054C23781BB9FFF7E2FF01232370BDE81040FFF76CBF6881FF1F014B1870704700BF75650040044A137843F008031370137C43F0080340
:4013800013747047A2430040064A0423136002F688321268E0219064034A1170A2F202321360704780E100E002E400E0014B04221A60704780E200E0074A0223136002F632
:4013C00088321268E0215064044A11706FF440710A441360704700BF80E100E001E400E0014B02221A60704780E200E0000000000230800803D000BF01380046FCD17047B2
:40140000EFF3108072B6704780F31088704700BF014B1868704700BF3C81FF1F0E4B70B51E460E4C0025E41AA410A54204D056F8253098470135F8E700F0C6F8084B094C02
:401440001E46E41AA4100025A54204D056F8253098470135F8E770BDD4150000D4150000D4150000DC15000000000000F5020000ED020000E5020000DD020000D802000080
:40148000D8020000D8020000D80200006081FF1F6081FF1F6081FF1F6081FF1F6081FF1F6081FF1F6081FF1F6081FF1F0000004808000048100000481800004820000048EE
:4014C00030000048380800487808004898080048D80800482800004838000048B800004838010048B801004838020048B802004838030048B803004838040048B804004810
:4015000038050048B805004838060048B806004838070048B8070048F8080048080900481809004898090048180A0048980A0048180B0048980B0048180C0048980C004812
:40154000180D0048980D0048180E0048980E0048180F0048980F00481810004898100048181100489811004818120048981200481813004898130048181400489814004863
:4015800018150048981500481816004898160048181700489817004818180048981800481819004898190048181A0048981A0048181B0048981B0048181C0048981C0048A3
:4015C000181D004843000000F8B500BFF8BC08BC9E4670472503000079090000F8B500BFF8BC08BC9E4670470103000000160000C880FF1F7800000060000000000000002B
:40160000000000000000E02EC05D00001800000000366E010000000000000000000000000000000000000000000000000000000000000000C41500000000000000000000E9
:4016400000000000000000000000000000000000000000000000000000000000000000000000000000000000000000000000000000000000DC80FF1F0000000000000000F0
:40168000000000000000000000000000000000000000000000000000000000000000000000000000000000000000000000000000000000000000000000000000000000002A
:4016C00000000000000000000000000000000000000000000000000000000000000000000000000000000000000000000000000000000000000000000000000000000000EA
:4017000000000000000000000000000000000000000000000000000000000000000000000000000000000000000000000000000000000000000000000000000000000000A9
:401740000000000000000000000000000000000000000000000000000000000000000000000000000000000000000000000000000000000000000000000000000000000069
:020000040003F7
:0200000480007A
:4000000060C00000000000008080001068000000203100000901000064A600000000000020000000000000003F000000000000000000000000000004211BD800131B6400BA
:40004000001B0000FC1B0300981A02013820C000000000009A04001A9A0400709842020402009800020400680F00E0601301001E00080A80000000100000000000000000AD
:400080000000000000000000000000000000022004040004333000010000000000000000000000000000000000000000000000000000000000000000000E00300133280C08
:4000C00001000E00002A40540000000186800156874610A9870010008340341300FF00000000100082000500800000000FFF70000200A00000000100410000000002000034
:4001000001FFFFFF0000000000000000000000000404040400040001800040404040800080008000800080000000000000000000000000000000000040001D00E204000069
:40014000010000000000020200040800920460005D00A2003D00C2000D000000010200010000FF000400E001000000040000FF030008000000004004000000000000000033
:400180000000000000000000000000000000080004040004404000010000000000000000000000000000000000000000000000000000000000000000488402000184000057
:4001C00001800004428409000301000090600B00400414801F0000804F5600090007013840040B00030A2010007FE0801F0800020802000000000454000000000000000051
:400200000000000000000000000000000900000004040004303000010000000000000000000000000000000000000000000000000000000000000000080007000100000038
:400240003A0004000300000003000000C000070010000700FF0000000500780001000000010000002200050000007F0080000000200000000000040032000000040B00D083
:4002800021FF7FFF42A070000C0000000000000004000400000000010009400930090000000000000000000000000000000000000000000000000000003101000009022051
:4002C000040000800029045002040000CC401328A97C54001A006004FF0100104D0292000009B510A5084A110004FF03000000F800080000000004040000000000000000E4
:4003000000000000000000000000F600200004000404000400000001000000000000000000000000000000000000000000000000000000000000000001000200000400008F
:4003400000020000000000000000000000000000030000000000000000000000020001000000000000000001010000010002020482000000000041404503200000000000FF
:4003800000FFFFFF02007008040000002000000004040404002300010000C00040011011C00100114001400100000000000000000000000000000000141CE922001800069F
:4003C00000004040002A0010000100003532CA080E3F00000006000000220000930424000001001E00220018101FC0000F00206020020000000041004503200000BEFDC0BC
:400400002FFFFFFF2300F008040000004000000004040404013300010000C00040011011C00100114001400100000000000000000000000000000000000001030C00300036
:400440000800340000000000240018001400280003010000030000000000030003000000000000000000000001003C020200000100000800000011400206200003000000F5
:4004800000FFFFFF0200700C8C10000000000800040424042128000100000000000000004001C0010000000000000000000000000000000000000000000000000002020895
:4004C000000000000000000000200002030200100000003C00020004000000030000000000000000000000000000023E0101000000000000000014040602600003FCBD0EF4
:400500001FFFFFFF2300F00C8C10000000000224040424248088080100000000000000004001C0010000000000000000000000000000000000000000000000201390240272
:40054000000400084000009400000008000000400EFF00004400090065901A01000F00000000009800C00000003F00C00F00700020028000000000002103600004BEFD0C13
:400580001FFFFFFF2200F008040000000900000004040404031100010000C00040011011C00100114001400100000000000000000000000000000000001200010001001237
:4005C00000000000000000130201040602001433000101040000000000000000000000000000001B00000800080710080610012000000002000000100000000000000000F9
:400600000000000000000000000000000000000004040004000000010000000000000000000000000000000000000000000000000000000000000000000000310300043243
:40064000070F0030060001380000000F0000000F00300008001000600030000400100040000F000000200010047002000100000F2A00000200001540000000000000000065
:400680000000000000000000000000000000080004040004002000010000000000000000000000000000000000000000000000000000000000000000905600098180080409
:4006C0000401010001000E80058400000004000025074038258440000060000090840000010A0210040401800F008080707F1000A8200200000050041200000000020005EC
:4007000011FFFFFF42A070000810000040000000040404041010000100484048804880480000000000000000000000000000000000000000000000000D9A8000119822027C
:4007400002210DD88D980002423808C062021498409A00008D00000000FC00038D0200008D1300640000000000E080130F0F70000000A02200000400000000000000000038
:4007800000000000000000000000000000000224040400041110000100000000000000000000000000000000000000000000000000000000000000000002000D00000000D6
:4007C0000005000A00000000000900060600000000000200080000000003000C000007000000000000000000080F0100040002000000000200005100000000000000000044
:400800000000000000000000000000004100000004040004322000010000000000000000000000000000000000000000000000000000000000000000000000000000000018
:40084000000000000000000000000000000000000000000000000000001900000400000000000000000000000000000000000000000000000000000000000000000000005B
:4008800003000000000000001F00000000007800000F0000000000000000000000000000000000000000000000000000000000000000000000000000000000000000000F80
:4008C0000000000000000000000000000000000800000000000000000000000000000000000100000000000000000000000000000F470000000000000F000000000000008A
:4009000000000F000E0000001F0000000000000019000F0006000000000000000000000000000000000000000000000000000000000000000000000000000000000000004D
:400940000000000000000000000000000000000000000000000000000000000000000000000000000000000000000000000000000000000000000000000000000000000077
:400980000000000000000000000000000000008000000002000000000000000000000000000000000000000000000000000000000000008000000000000000020000000033
:4009C00000000000000000000004000000000000000000000000000000000000000000000000000000000000000000000000000000000000010004000000000000000000EE
:400A0000040000000000000000000000000000000000000000000000000000000000000200000000000000000000000000040000000000800000000000000000000000002C
:400A40000000000000000040000000000000000000000000000000000000000000000000000000000000000000000000000000000000000000000000000000000000000036
:400A80000000000000000000000000000000000000000000000000000000000000000000000000000000000000000000000000000000000000000000000000000000000036
:400AC00000000000000000000000000000000000000000000004000000000000000000000000000000000000000000000000000000000000000000000000000000000000F2
:400B000000000000000000000000000000000000000000000000000000000000000000000000000100000081000000400000000200000000000000000000000000000001F0
:400B40000000000000000000000000000000000000000000000000000000000000000000000000000000010000000000000000000000000000000000030000000800000069
:400B80000000000000000000000000000000000000000000000000000000000000000000000000000000000000000000000000000000000000000000000000000000000035
:400BC00000000000000000000000000000000000000000000000000000000000000000000000000000000000000000002000000000000000000000000000000000000000D5
:400C00000000000000000000000000000000000000000000000000000000000008000000000000001000000000000040200000020000000008000000200000000000000111
:400C400000000000000000000000000020810000000000000000000000000000000000000000000000000000000000000200000000000000000000000000000002000000CF
:400C800000000A0000000200000000000000000000000000000000000000000000800000200000000000004000020000000000000000000000000000000000000000000046
:400CC000000000000000000000000000000000000000000000000000000000000000000000000000000000008000000000000000000000000000000000000002080000006A
:400D00000000000000000000100000000000000000000000000000000000000000000000000000008000000000000000000000020000000000000000200000000000000001
:400D40000000000000000000000000000000000000000000000000000100060008000000000000000000000000000000040002000100000004000000000000000200000057
:400D80000000000000000000000000000000000000000000000000000000000000000000000000000000000000000000000000000000000000000000000000000000000033
:400DC00000000000000000000000000000000000000000000000000000000000000000000000000000000000000000000000000000000000000000000000000000000000F3
:400E00000000000000000000000000000000000000000000000000010000000020000000000000000000000000000000000000000000000000000000000000000000000091
:400E4000000000000000000000000000000000000000000000000000000000000000000000000000000000000000000000000000000000000000040000000000000000006E
:400E800000000000000000000000000000000000000000000000000000000000002000001000000000000100000000000000000000000100000000001000000000200000D0
:400EC0008000210000004000020010410000000000000000000000000000000000000000000000000000000000000000000000000000000000000000000000000000C000FE
:400F0000200080000000A000000000000000000000000000000000000401014000000000000005000002200480000000204800000010054002004018000A02000050090004
:400F400082200400000000080008210000002900220008800288000408010044041800080005001000000000400410000000000021440000000000000000000201004000B7
:400F80000000000004000001000000000000000000000000000000000042000000051000000040100400000022010280884040208A600D04041110098004200100000A4894
:400FC000020240000080000009010000000000200000000000000000050073008800000000002F00E700DF000F00040000000F0008000000000000000800000000000000DC
:4010000020004C0000000100000000000000000000000000000000000000000002100220000018062220220010000000000000140040101220100040000100000001122063
:4010400000000100280000400001000000002204000220000000461000000000000000000000000000000000000000000000000000600800000020100000002000000008A8
:401080000100000801104E1500000000800002000000000000000000080120200000000800100000000104000000000E0002001010206100000000200000000003000002F5
:4010C000000000008000000080000000000000020000000000000000F000F700640000000000E100E100F5000000000000000E0022000000000000000800C00040000000B4
:40110000000000000000C200000000000000000000000000000000000020A0020810000180000481000000000880000400800040240031022002002000180000020080404E
:4011400009090000104000482204400000201A408021400800801C0100000110000000000000000400000000000004000000000000000000008000000008500000008000EE
:40118000000000000000000000000000000000000000000000800100A00400040000000010100004000800400000048104816020124001100C00800808443001A0000042BA
:4011C000000001001000210000000100008084000000000000000000EF000B00070000000000FF00FF00FF000C000000000010001E00000000000000000005000000A100DA
:40120000000000000000000000000000000000000000000000000000000000201000402008000000220001100000000000000005040800105820040400081000000080109A
:40124000002100080000000000001045000000100004000000000001040800000028000084001002000000200000402800000000000000004000240004000000100000050C
:4012800020040145012000000000000000000000880000008000000000000000000080000008000001100000000000000402000008012100000000000000000001000000D1
:4012C0000000000000000000000000000000000000000000000000007400F40030000000000001002F00820066002400000070007400000000001A0000000000000000001C
:401300000000000000000000000000000000000000000000000000000001000802000000080008040000000421800000000000040040080900010200000002010804600022
:4013400001180200C004440000002A40000000002004008100100800202000016020000100048040000000C002005180000000000000000000000100000850000080040825
:4013800000000000000000000000000000000000000000000000000000000000000000040000020000010008221004800C80622522180A5404040008086818000200E0C281
:4013C0000080000800041044000184020040100000000000000000001A0046002400000000001F000F006F00E7001800000080007E000000000000000000100000006800A0
:40140000000000000000000000000000000000000000000000000000000000000100000000000000040000000000000000020000080121000000000000000000000000007B
:40144000000000000001000000000000080100000000000000000000000000000000000000000000000000000000000000000000000000000000000000000000080040001A
:401480000000100000000000000000000000000000000000000000000A2002000000A60080022208000224010084050188080100201000002000000000000000004200507A
:4014C0000000000000400054080000080A00204000000000A08004010400400800000000000800000040020000010200000000000000000000811800000000004400000241
:4015000000000000001C0000000000000400A6000000000000000000020000084000000000000000000000000200048208022805282008048004260001281C08460642C043
:40154000002100000200000002040000000008000000000000000000FF00FF00FF0000000000F000F000F000070000000000F000B000000000000000000000000000400086
:401580000000000000000200000000000000000000000000000000000000000000000000000000000000000000000000000000000000210008000000000000000000000000
:4015C0000000000008000000000020000000010000000000000000000000000000000000000000000000000000000000000000000000000000000000000000004000000082
:4016000000000000C0000000000000000000000000000000000000008A40440008084600880224000002240100280A010842200000200408004000000008810820C0000037
:401640002000006620008000000005900000000580150000008000040004100000000000000000000000000000000000000000000085100000008000000080000000800068
:40168000000040000100000500000000000000000000000000000000100000000080000800000100000040008015008200400401000000100A48C0002130142642800240FE
:4016C000000000000000000000000002040000000000000000000000FF00FF00FF00000000005F00CF005F000000000000001F001800000000000000000020000000000003
:4017000000000000000008000000000000000000000000000000000000000000000000000000000000000000000000000000000000000000000000000000000000000000A1
:401740000000000000000000000000000000000000000000000000000000000000000000000000000000000000000000000000000000000000000000020000000000000067
:40178000000000000000000000000000000000000000000000000000040201000058000000005100000024010A05000008404000040210260210084100288000001010005E
:4017C000000001620008004000088001080012008015000080000401000000000080808000000000200000000000000000000000000000000000008002000000000000005F
:4018000008154001000000004000010000000000000000000000000000004010000800000000000000000000000000000000000000000000000000000000000000000000B1
:40184000000000000000000000000000000000000000000000000000ED00ED00DF0000000000CB00EB00DF0090000000000010000800000000000000020000000000000070
:4018800000000000000000000000000000000000000000000000000000000020001000001000000000000000000000000000000000000000000000100000000000000000D8
:4018C0000000000000000000000000000000000000000000000000000000000000000000000000000000000000100000000000000000008000000000000000200000100028
:401900000000000000000000000020000000000000000000000000000010008010000020000000000000000000200000000000200000300000000000000000100000000047
:401940000100000000000000000000102000000000000000000000009000400000008000000000000000000000000000A0000000C000000080000000000080007000000016
:401980000000800000000000000000000000000000000000000000000000000000000000000018000000000000200000010000000000200020000000000000100000080016
:4019C00004000000000000000000000000000000000000000000000000000000000000000000000000000000000000000000000000000000000000000000000000000000E3
:401A000000000000000080000000000000000000000000000000000000000000000000000010000000002010000000000900000000000000200000000000000000000800B5
:401A40000000000000000000000000000000000000000000000000000000000000000000000000000000000000000000000000000000000000000000000000000000000066
:401A80000000000000000000000000000000000000000000000000000000000000000000000000000000000000000000000000000000000000000000000000000000000026
:401AC0000000000000000000000000000000000000000000000000000000000000000000000000000000000004000000800000000000000000000000000000000000000062
:401B0000000000000000000000000000000000000000000000000000000000000040000000000000000000100000000001000000000000002040001080000000000008005C
:401B400000000000000000000000000000000000000000000000000000000000000000000000000000000000000000006000000000000000000000000000000000001000F5
:401B80000000000000000000000000000000000000000000000000000000000000000000000000000000000000000000000000000000000000000000000000000000000025
:401BC00000000000000000000000000000000000000000000000000000000000000000000000000000000000000000100000000000000000010000000000080020000000AC
:401C000000000000000000000000000000000000000000000000000080000000000000000000001000000000000000000000000000000000004000100000000000000000C4
:401C4000000000000000040000000000000000000000000000000000000000000000000000000000000000000000000020008000C0000000000000000000200000000000E0
:401C80000000000000001000000000000000000000000000000000000000000000000000000000000000000000000000000000000000000000000000000000000000000014
:401CC0000000000000000000004004000000001000000000000000000000000000000000000000000000000000000000000000000000000000000000000000000000000090
:401D000000000000000000000000000000000000000000000000000000000000000000000000000000000000000000000000000000000000000000000000000000000000A3
:401D400000000000000000000000000000000000000000000000000000000000000000000000000070000000000000000000000000000000000000000000000000000000F3
:401D8000000000000000000000000000000000000000000000000000400000E1E160E10000000000620000E7E703E700000000000020200020000000000B0B000000000050
:401DC000400068929210921000000000490000793009390002000000000000000000000000000000000000000000000000000000000000000000000000000000000000002F
:401E000000000000000000000000000000000000000000000000000000000000000000000000000000000000000000000000000000000000000000000000000000000000A2
:401E40000000000000000000000000000000000000000000000000000000000000000000000000000000000000000000000000000000000000000000000000000000000062
:401E80000000000000000000000000000000000000000000000000000000000000000000000000000000000000000000000000000000000000000000000000000000000022
:401EC00000000000000000000000000000000000000000000000000000000000000000000000000000000000000000000000000000000000000000000000000000000000E2
:0200000490006A
:0400000000004004B8
:0200000490105A
:04000000BC90ACAF55
:0200000490303A
:0200000073F893
:0200000490402A
:4000000000000000000000000000000000000000000000000000000000000000000000000000000000000000000000000000000000000000000000000000000000000000C0
:400040000000000000000000000000000000000000000000000000000000000000000000000000000000000000000000000000000000000000000000000000000000000080
:400080000000000000000000000000000000000000000000000000000000000000000000000000000000000000000000000000000000000000000000000000000000000040
:4000C0000000000000000000000000000000000000000000000000000000000000000000000000000000000000000000000000000000000000000000000000000000000000
:0200000490501A
:0C00000000012E16106900012E1E846104
:00000001FF