:200000005500000000000000C0A10000000000001400000000000000908100000300000002
:200020009188000009000000839A0000000000002000000000000000FFEF0E000000000065
:2000400000800000000000000000D200008000000000000000004E00008000000000000000
:2000600000004B000000000000000084001F00003500400101010E00754F0000754000147F
:200080006440110B004200091003E0200003000024485102010102001190880B001F0FE03A
:2000A0000000F0402088880000001044000000000000000000000000000000000000F60096
:2000C00020000400040400043330000100000000000000000000000000000000000000008C
:2000E0000000000000000000000000000000000000FF94000F000000FF0E00300033400CA2
:20010000004698A9002A2054900002010400080000400813C000000090800156C0003FFF9B
:200120000000000008000000000000000000000000000000000000000000000000000000B7
:20014000000008000404000433100001000000000000000000000000000000000000000047
:20016000000000000000000000000000000000003E000000034004000000000000490006AB
:200180003002000D05130A2C00000000040009000065001A000000001000200020000F00E7
:2001A000100F00702A0000A0000011003406200005DEC0BF3BFFFFFF2200F00804000000C3
:2001C0000900040004040404555500010000C00040011011C00100114001400100000000E1
:2001E0000000000000000000000000000004B5004D029200CC0013B5A91A54601AA96054E3
:20020000FFA5004A0000020102FF000000CC0413A5004A02044D0092000001040000FFFF32
:200220000000000000000000000004040000000000000000000000000000000000000000B6
:200240004000040004040004005000010000000000000000000000000000000000000000FD
:200260000000000000000000000000000000000001000800000078000100400000000100BB
:20028000010020000100400001001000780104000000780078000000020000007800030001
:2002A0000400000108000000000005400000000000000000000000000000000000000000EC
:2002C0002000040004040004041000010000000000000000000000000000000000000000D9
:2002E00000000000000000000000000002843800110002804D80000402560D090D8440009D
:2003000000842000020734384D0100004D0400004D0A00100060000000040080007F3080AB
:2003200040080F02000280000000105400000000000000000000000000000000000000007E
:200340000000022804040004555000010000000000000000000000000000000000000000C1
:20036000000000000000000000000000C4001030100000040900C60FD40000020000000FA2
:20038000980F2300C1000608D4200000E70018001000C401C4001008000F00000000980F6A
:2003A000782007100000A000000000140000000000000000000000000000000000000000DA
:2003C0000000080004040004151000010000000000000000000000000000000000000000E3
:2003E00000000000000000000000000000BC0100000100080080000000050008000000802A
:2004000005020000001500280004070900050010001900000000004000200014018002035C
:20042000047C0000000800000000110400000000000000000000000000000000000000001F
:2004400041000000040400043110000100000000000000000000000000000000000000000D
:20046000000000000000000000000000016106020100320000610008000000000000000076
:200480001261010400001B1E0000130000000000000013400000008101100461071F208088
:2004A0001020084000000200000010510206200001BD0CFE37FFFFFF2200F00C8C10000083
:2004C00000000000040424008408000100000000000000004001C001000000000000000061
:2004E0000000000000000000000000000D0000000409E000010200040000FF00E209000011
:200500005D00A2003D00C20040081D00000002000100000000000800920260040008000766
:200520000001FF00002A000000004014260000000005002021FFFFFF42A07000081000006A
:200540000000000004040400400400010048404880488048000000000000000000000000EA
:20056000000000000000000000000000000000030008087000004080901B0120FF0200016A
:20058000908002000001200604090844003394080F10002BC0380003003898030000C078AA
:2005A0003F07008020800028000000000000000000000000000000000000000000000000AD
:2005C000200004000404000444400001000000000000000000000000000000000000000066
:2005E0000000000000000000000000000003000000000000000000000000010003000004F0
:200600000000000000010002000000030000000000000000000000000004000000000104CB
:200620000202000100A80000000014500000000000000000000000000000000000000000A9
:200640000000022C0404002430800801000000000000000000000000000000000000000087
:2006600000000000000000000000000090040B014220094040110B08481102021F0500004A
:2006800001040001000001104F01000E0305200001050000402014C003000000E0800060C0
:2006A0001F10400F8200008000004100000000000000000000000000000000000000000079
:2006C0000000080004040004441000010000000000000000000000000000000000000000B1
:2006E000000000000000000000000000C0000700220005000300000008000700FF000001FA
:200700003A0004000100000003000000050078000100000001000000100007008000000081
:200720007F0000010200000000001000000000000000000000000000000000000000F60031
:20074000000000000404000444400001000000000000000000000000000000000000000008
:20076000000000000000000000000000FF0100000E003000008400004684A900000A011029
:20078000400713382A84540033040C0000600000008000048004568000560009FF7F00085F
:2007A0000080000200020000000000545301200004BECDF02FFFFFFF2200F0080400000024
:2007C0000900040004040404646600010000C00040011011C00100114001400100000000BB
:2007E0000000000000000000000000000000800000002600060260040600000002020C0CC5
:20080000000026000400030000001000000026000000060000000001020048000E00100600
:20082000E008010100002200000000000000000000000000000000000000000000000000AC
:2008400000000000040400003300000100000000000000000000000000000000000000005C
:2008600000000000000000000000000032010804000140062A00100006120001010000336B
:2008800001001E1B040000002200000018000600220018001C0122123F0000131F200007B7
:2008A0006010000802000008000000102500000001DB000003FF7FFF42A070000C000000C7
:2008C000000000000404040433030001000940093009000000000000000000000000000046
:2008E00000000000000000000000000010E207000840071D0101000003920060C0000708CD
:20090000050078FF220405E03A000402035D00A2013D00C201010000FF0D000000FF7F0082
:20092000800000002000000000000401000000000000000000000000000000000000000012
:2009400000000000040400000300000100000000000000000000000000000000000000008B
:200960000000000000000000000000000000000019086200040000000000000000000000F0
:2009800000090000100268044C02300400000000000000002E095100000000000000780747
:2009A0000708000100A8280000000044120000000005000211FFFFFF42A070000810000082
:2009C0000000022404040404366300010048404880488048000000000000000000000000E7
:2009E00000000000000000000000000004050000220018000100000001001E023F0400014E
:200A00001C042201060000002A001000220000000000400018000600320008006004000134
:200A20001F020000200A0000000000054300000001B00D0006FF7FFF42A070000C00000084
:200A40000000040004040404440400010009400930090000000000000000000000000000AE
:200A6000000000000000000000000000003D800005060A0800000000080025000F014020FF
:200A8000060A2014002010010000620001000200000800120100240001000200001E1F01FC
:200AA0000020E000002A800000000014000000000000000000000000000000000000000078
:200AC0000000040004040004640000010000000000000000000000000000000000000000A1
:200AE0000000000000000000000000000DD4100002E764181D00000041D402001D98002394
:200B0000001020C4020968C602C10D061D00000000C410101D10000000C4001000006078F8
:200B200010980F0700008088000010000000000000000000000000000000000000000000DF
:200B400040000400040400046660000100000000000000000000000000000000000000007E
:200B6000000000000000000000000000000000000000000000000000000000000000000075
:200B80000000000000000000000000000000000000000000000F0000000000000000000046
:200BA00000000000000800000000000000000000000000000000000000000000000000002D
:200BC000780F00470000000700000000000000000000000000000000000000000000000040
:200BE00000000000000000000000000000000000000004000F0400000000000000000000DE
:200C00000000000008000000000000000000000000000000000000000000000000000000CC
:200C2000000000000F00000000000000580100000000000000005801580100003A0100005F
:200C4000000000002A013A00180112000000000000000000000000000000000000080000FC
:200C6000000000000000000000000000000000000000000000000000000000000000000074
:200C8000000000000000000000000000000000000000000000000000000000000000000054
:200CA000000000000000000000000000000000000000000000000000000000000000200014
:200CC000000000800000000000000000000400000000000000000000000000000000000090
:200CE000000000000000208000000000000000000000000000000000000000000400000050
:200D000000000040000000000000000000000000080000000000000000000000000000008B
:200D20000000000000000000010004000000000000000000080000000100000000000000A5
:200D400000000000000000000000000000000000000000000000000000000008000000008B
:200D60000000000000000000000000800000000000000000000000000000000000000000F3
:200D8000020000000000000000000000000000000000000000000000000000000000000051
:200DA0000000400000000000080000000100000000000000000000000000000000000000EA
:200DC00000000000000000000000000000000000020040800000000200000004010000004A
:200DE0000000000008002002040000400000000000000080100000040000002000000000D1
:200E00000000000000000000000000000000010000000100000000000100000000000000CF
:200E20000200030000000000000000000000060000000000000000000000000000000000A7
:200E4000000000000000000000000000000000200000000000000000000000000000000072
:200E6000000000000000000000000000000000000000000000000000000000000000000072
:200E8000000000000000000000000000000000000000000000000000000000000000000052
:200EA000000000000000000000000000000000000000000000000000000000000000000032
:200EC0000000000000000000000000000000000000002000000000000900000010000000D9
:200EE000000000000000000604000040000000000000008000000000000040800000000068
:200F00000000000000000000000000000800000000000000000000000000000000000000C9
:200F20000000000000000000000000000200000008000000000000000000000000000000A7
:200F4000000000000000000000000000000000000000000000000000000000000000000091
:200F6000000000000000000000000000000000000000000000000000000000000000000071
:200F80000000000000000000000000000000000080000000000000000000000000000000D1
:200FA000200000000000000000000000000000000000000000000000000000000000000011
:200FC00000000000000000000000000000000000200001000100000080000001100002005C
:200FE000000000010000000604000040000040000100000000000000000000000000000065
:201000000400000000000000000000000000000000000000000000000000000001000000CB
:20102000020000000000000000000000090000000800000000000800000000000000000095
:201040000000000000000000000000001100000008000004000002000000800000000000F1
:20106000000000000000000000000000400000000000000000000000000000000000000030
:20108000000000000000000000000000000000000000000000000000000000000000100040
:2010A0000000000000000040000000010000000004000000010000000000000000000000EA
:2010C0000000000000000000000000000000000000000000000010004100000000000000BF
:2010E0000000000000000002000000000000000000000000000000000000000000000000EE
:201100000000000000000000000000000F00060000000000020000000000000000000000B8
:20112000050001000100020000000000000002000400080000000000000000000000000098
:2011400000000000000000000000000000000000000000000000000000000000000000008F
:2011600000000002000000000000000000000000000000000000000000000000000000006D
:2011800000000000000000000000000000000000000000000000000000000000000000004F
:2011A00000000000000000000000000000000000000000000000000000000000000000002F
:2011C0000000000000000000000000200000000000000020000000000000000000000000CF
:2011E0000000000000000000000000000000000000000000000000000000000000000000EF
:201200000000000000000000000000000000000004000000000000000000000000000000CA
:201220000000000000000000000001000000000000000000000000000000000000000000AD
:2012400000000000000000000000000000080280000080260820820001002500000041103D
:20126000002100080008020000002110080104000A0880200000002024008000000810016E
:2012800000008026080200008001040000000000040008000000000000000000000000000D
:2012A000000000001000400000000000000100000090022008002001000000000000000002
:2012C000000000000000000000000000001040000000040040901008050000220001841016
:2012E000080202001900C90400090221602002A00C0000000001000400000180020808000A
:20130000002002080000000000000000FD00FF007B00000000007200F700D30000000000F0
:2013200000000C00F1000000000000000000D400800030002000C00000004000000000000C
:20134000000000000000000000000000000800428010009000010A2000A0401000200000E8
:20136000900001000000000208904005040500410048000808420400000000042000820867
:20138000000020220022008020000000260200000000000000060200000000008100200078
:2013A000000000000085002000000000000000810000000000000000000000000000000007
:2013C0000000000000000000000000000100004200860000A00000400601820880200AB079
:2013E0000000000AB84805D0000000081031000004C820020000040050000010000024004F
:20140000000048100000000000000000FD00FF00B200000000002F008F002D000F000800C4
:2014200000000F0009000000000000000000A000040008000200450000000200000000009F
:20144000000000000000000000000000002880020800080008108200400000048000111053
:20146000000000200020000100000424240200000080001800000000004080080800000174
:2014800000001880008200000008000000444000048000000000800000040000000040005E
:2014A000000000088010000000000000000000400000000C022000002041000400000000C1
:2014C000400000000000000040800100004200001010100071010020001000100088C0108F
:2014E000440400408C0011000008400080340A820440000188000000000008000400004026
:201500000000080000000000000000006F00CF004F00000000002000730049003B0000001F
:2015200000000C0021000000000000000A0080000200E00000002100C00009000000000028
:2015400000000000000000000000000018830200008608009000601480008028240081008F
:201560009010010000040010000080200000008004060001840020210000800490000A00A8
:2015800000000009B0800901008800010002800000800020000000000200800A00000000D1
:2015A00000000000000000000000000000000000000000000000000001000000000000002A
:2015C0000000000000000000000010200800000000300020205040400300000020810204E9
:2015E000040048228008296000000009F0110200040880224204102010010800001400000F
:20160000004400000000000000000000FF00FF00FF00000000003F00CF00DF00300010005C
:20162000000000000000000000000000000061000A0004000000600000002A0000000000B1
:20164000000000000000000000000000000846000401000002408831100802008020010879
:2016600002000004000000800019020000140200000020A20004040128400000020060100E
:201680000000042000000028000011000010000000000090002000046110020802000000AC
:2016A00040000A0020000010000000000000000000000000000000000000000000000000B0
:2016C0000000000040000200000001000000020008000401000002020000400000D0D328A9
:2016E000C20400051024110C6018400080340402440000050000005900200100040004048D
:201700001020850000000000000000003F00EF00AF000000000078006900A6003400240058
:201720000000000000000000000010004800B000100000009000200040002A000000000077
:201740000000000000000000000000000000400002101200000021000000220800000000DA
:20176000040080040000A0100010248000042204002444008080006800A040200008A200D9
:201780000000600900900980A800088100000000000000000020080000000000000000006E
:2017A000000000001004800000100060020040200000000100600000020010000000000050
:2017C000000000000000000000010040001000840208000040000040000000402200030045
:2017E00044000C220400F32440880000F00109080430B682220048000004000000000005B3
:20180000000500020000000000000000F800E5007000000000007F00FF00FF0000000000F7
:2018200000001E00120000000000000048000100100008000800240000000C0000000000DF
:20184000000000000000000000000000000802088000000040008028000080000000050584
:201860000000000000000408000800200004740000441800080801010200000008026000E2
:201880000100802042280000000200000000C000000000000000000000000000000000007B
:2018A00000000000000028420000000000500080000200000A000000004019000000000089
:2018C0000000000000004281000001800000006000005000111240200008880000A04022FF
:2018E000620484000844101E20084100801300024040000500404014000001000400000068
:2019000000001008000000000000000087001F000F00000000001F00BF008F00000000008D
:2019200000000F008D00000000009000720000002000C20000000000000090000000000097
:20194000000000000000000000000000002800020040801408010AA0000846000220001551
:201960000004000100240001005800000080000018004040400200000000448400000000C3
:20198000040011500000000000908A000000000010000008000000000000000000000000B0
:2019A00000000000000200000000000020A200001000000008802000011442040000000050
:2019C000000002010404000000000000004000400008000000300040000611002028830919
:2019E0005C800C120000702808990100F04008080C04F60000924000000000020002011086
:201A0000010004000000000000000000F700FF003F0000000000F100F000F00000000000BB
:201A2000000001004F0000000000000013000400000018004000280000002100000000009E
:201A4000000000000000000000000000400808406208004008208A60402012424800010835
:201A6000020048080010000200404010004000000010621200000000000000580002000054
:201A80000008610040000181000044210000000000000000000000000000000000000000B6
:201AA000000000000000000020400000001010000400000200200800000000008A041108D1
:201AC000000000000000000000000000000002040240690000000C1802030000000000002C
:201AE00000040000000000000000000000000000400000000000000000040000400000005E
:201B0000000000000000000000000000FF00FF00FF0000000000E000F100F0000000000007
:201B2000000030003000000000000000100060000000C000000000000000200000000000F5
:201B400000000000000000000000000088000840002400005004004008000400821020003F
:201B60001080200100000008000440100004000000400009080104020000040000A0050053
:201B8000002010090041081040001060000000000000001500000000012040060000000087
:201BA0000000121400900454800210041002000A01000080000000000000000000000000E4
:201BC0000000000041004200000000008448000100000A0400010100002400002030000031
:201BE000440000C20000602040800100F20008000404A40000000040002001080200008805
:201C00000010000100000000000000006F006F009F00000000004F00EF002F00E0003000B9
:201C20000000F0009F000000000000000000430000000200000000000000020000000000CE
:201C4000000000000000000000000000000000000000000000000000000000000000000084
:201C6000000000000000000000000000000000000000000000000000000000000000000064
:201C8000000000000000000000000000000000000000000000000000000000000000000044
:201CA00000000000000000000000000000000000080000000000000000000000000000001C
:201CC00000000000000000000000000088080008002801000008014000088A000000312017
:201CE0000040902000000D082000C00080000121000808004088A000008800000000A901B3
:201D00000000A901605401004008000000000000000000000000000000000000000000001C
:201D200000000000021040080000008004000081000040002024000000000000920020000E
:201D400000000000000000000000000000000000000004000000044000000000000000003B
:201D6000000000000000000000000000000000000000000000000000000000000000000063
:201D8000000000000000000000000000E700FD00F700000000005F00FF005F0000000000AB
:201DA00000001F001D00000000000000000000000800A0000000000000000000000000003F
:201DC00000000000000000000000000000000040000000080040000000000000000000007B
:201DE0000000000000000000000000000001000000000000000000000000000000000000E2
:201E00000000000000000000000000000000000000000000000000000000000000000000C2
:201E2000000040001000000200000000000000000840000000000000000000000002000006
:201E400000020000000000000000000000200040004200000040000200000000000000009C
:201E600000020000180040000000000800020000002000000000001000004000000000008E
:201E8000000002000000000000000000900040000000000040000000000000000000000030
:201EA000C000C0008000000080002000400020008000100000003000000000000000000062
:201EC000000000000000000000000000000000000000000000000000000000000000000002
:201EE000000000000000000000000000000000000080000000000000000000000000000062
:201F00000000000000000000000000000000000000000000000000000000000000000000C1
:201F2000000000000000000000000000000000000000100000000000000000000000000091
:201F400000000000000000000000000000020000000100081000000008000000000000005E
:201F60000000000000001000000002100000000000A0000008000000000010000000104037
:201F8000001000000000000000000000000000000000000020000000000000000000000011
:201FA000000000008000000000000000100080004000000000008000000010000000000041
:201FC000000000000000000000000000000000000000000000000000000000000000000001
:201FE0000000000000080000000200000000000000000000000000000000000000000000D7
:202000000000000000000000000000000000000000000000000000000000000000000000C0
:2020200000000000000000000000000000000200000010000000000000000000001000007E
:20204000001000000000000000000000000000000000000000000000000A00000000000066
:202060000000004000000000000002100000020008A0100000000000400004000000080008
:20208000000000000000000000000000000000000000300000000000000000000000000010
:2020A00000000000C0000000600000000000000000000000000000000000100000000000F0
:2020C000000000000000000000000000000000000000000000000000000000000000000000
:2020E0000000000000000000000000000000000000000000000000000000000000000000E0
:202100000000000000000000000000000000000000000000000000000000000008000000B7
:2021200000000800000000000400000004000200000000000000000000000000000000008D
:2021400000000000000000000000000002004000004000000000000000C00000000000003D
:202160000080884000000000404002100000020002201000000000080000000010400000F9
:2021800000020000000000000000000000000000000000000000000000000000000000003D
:2021A00060008000400000000000000000002000000090000000200000000000000000002F
:2021C0000000000000000000000000000000000000020000000000000000000000000000FD
:2021E0000000000000000000000000000000000000000000000000000000000000000410CB
:20220000000810000000004000000000000000000000000000000000000000000000000066
:202220000000000000008000000000080040100010000000000000000000000000000000B6
:20224000000000000000000000000000000000000000100000000000000800000000000066
:20226000008000000000000040000200000002000260000000000010000000000000000028
:20228000000000000000000000000000200000000000000000000000F0001000000000001E
:2022A0008000C000C0000000000000000000400000000000000020000000000000000000BE
:2022C0000000000000000000000000000000000000000000000000000000000000000000FE
:2022E00000000000000000000000000000000000000000000000000000000000420000009C
:20230000000000140080020000810000002000000000000000000000000000000000000086
:2023200000000000000000000000000000000000000000000000000000000000000000009D
:20234000000000000000000000000000000000000000000000010200004000040000000036
:2023600000000000000000000000000000000000000000000000000000000000000000005D
:20238000000000000000000000000000000000000000000000000000F000F000100000004D
:2023A00000000000000000000000000000000000000000000000000000000000000000001D
:2023C00000000000000000000000000002F1F100F1000C00609F9F009F000000002020009F
:2023E00020001D00803F3F003400000003006C909300931000000000090040B0B900B900CE
:2024000006000000010018010800180100000000000000000000000000000000000000007B
:00000001FF
