:400000000080002011000000BD0A0000BD0A000080B500AF024A034B1B68136000F058FDBC760040FA4600400100000000200040010000000020014001000000004800408A
:400040000100000000480140010000000100000008000223000008760800032300001076080004230000287608000523000030760500062300002070050007230000307065
:4000800005000823000060700500FE23000070703000FE22000040518001FE220000000E07000C230000005207000D230000085207000E230000105207000F230000185254
:4000C000060010230000605207001123000078520C0012230000004F0C00132300000C4F0C0014230000184F080015230000285B400016230000006420001723000070646B
:4001000040001823000000652000FE230000706508001A230000005180001B230000000080001C230000800080001D230000000280001E230000800280001F23000000046B
:4001400080002023000080048000212300000006800022230000800680002323000000088000242300008008800025230000000A800026230000800A800027230000000C0B
:40018000800028230000800C800029230000001480002A230000801480002B230000001680002C230000801680002D230000001880002E230000801880002F230000001A21
:4001C000800030230000801A10003123000010501000322300000050800033230000004D800034230000804D800035230000004C800036230000804C800037230000004768
:400200008000382300008047800039230000004680003A230000804680003B230000004580003C230000804580003D230000004480003E230000804480003F230000001BCA
:40024000800040230000801B80004123000000158000422300008015800043230000001980004423000080198000452300000017800046230000801780004723000000099C
:400280008000482300008009800049230000000780004A230000800780004B230000000B80004C230000800B80004D230000000580004E230000800580004F230000000D86
:4002C000800050230000800D80005123000000038000522300008003800053230000800F800054230000000180005523000080018000562300000049800057230000804914
:400300008000582300000048800059230000804880005A230000004380005B230000804380005C230000004280005D230000804280005E230000004180005F2300008041AD
:4003400080006023000000408000FE230000804010B5054C237833B9044B13B10448AFF300800123237010BD5881FF1F0000000018130000084B10B51BB108490848AFF3EE
:4003800000800848036803B910BD074B002BFBD0BDE81040184700BF000000005C81FF1F18130000C880FF1F0000000080B582B000AF4FF4FA6000F027FF00F027F800F0CA
:4003C00059F800F099FC0F4B1B780121184600F05DFD0D4B1B780121184600F057FD00BF00F0A8FC034603F00103002BF8D00023FB7102E0FB790133FB71FB79072BF9D93E
:40040000FEE700BF8D81FF1F8081FF1F80B500AF4FF4804341F6FF720121012000F0D6FC03461A46104B1A7000F052FE03461A460E4B1A700D4B18780123FE22082100F097
:4004400075FE0A4B1B780A4A91B246F24242184600F0ACFE044B1A78044B1B781946104600F0C8FD00BF80BD8081FF1F8C81FF1FCC80FF1F80B500AF41F6FF734FF4804267
:400480000121012000F0BAFB03461A46104B1A7000F01EFE03461A460E4B1A700D4B18780223FE22082100F041FE0A4B1B780A4A92B246F25241184600F078FE044B1A78B9
:4004C000044B1B781946104600F094FD00BF80BD8D81FF1F8181FF1F8481FF1F80B582B000AF786039603A680021786800F00BFF00BF0837BD4680BD80B584B000AFF860A7
:40050000B9607A607A68B968F86800F0F1FE00BF1037BD4680BD00BF80B483B000AF0346FB71FEE780B582B000AF454B00221A60444B10221A70444B01221A70434B002258
:400540001A70434B4FF440721A80424B01221A70414B03221A70414B414A92B21A80414B47F608021A80404B00221A803F4B4FF480421A803E4B09221A703E4B0A221A7010
:400580003D4B0B221A703D4B19221A70BFF35F8F3B4B01221A70BFF35F8F00BF2C4B1B889BB2002BFAD100237B600DE07B68DA00344B13441946344A7B6852F823309BB2F8
:4005C0000B807B6801337B607B685F2BEED9BFF35F8F2B4B01221A70BFF35F8F00BF2B4B1B78DBB203F00103002BF8D100BF284B1B78DBB203F00103002BF8D100BF254B3B
:400600001B78DBB203F00103002BF8D100BF224B1B78DBB203F00103002BF8D100BF1F4B1B78DBB203F00103002BF8D106224FF090411B48FFF760FF00BF0837BD4680BD16
:400640007881FF1F007600401070004019700040007800400278004003780040047800405000000006780040047600400676004029700040397000406970004079700040B3
:40068000147000400C7800402813000018700040287000403870004068700040787000401051014080B582B000AF4F4B00221A804E4B50221A704E4B01221A804D4B1822E4
:4006C0001A704D4B01221A804C4B18221A704C4B03221A804B4B18221A704B4B03221A804A4B18221A704A4B0B221A80494B18221A70494B0B221A80484B18221A70484B69
:400700000C221A80474B18221A70082246494748FFF7F2FE464B02221A704FF0402308221A70444B03221A70434B444A1278D2B21A70434B08221A80424B41F251221A80C7
:400740000023FB7019237B6013E0FB785B00DAB23D4B1B78DBB203F00103DBB21343DBB203F00303FB70782000F086FD7B68013B7B607B68002B02D0FB78032BE5D17B68F5
:40078000002B02D10320FFF7C7FE304B4FF480721A802E4B07221A702D4B00221A702D4B48221A70294B00221A702B4B02221A702A4B04221A702A4B1B78294BFF221A70C7
:4007C000284A284B1B78DBB243F00303DBB21370254A254B1B78DBB263F07F03DBB2137000BF0837BD4680BD80400040824000408440004086400040884000408A4000406B
:400800008C4000408E40004090400040924000409440004096400040984000409A4000409C4000409E40004004240048004100400043004000420040A14600400801004977
:40084000224200402042004025420040044000400640004008400040014000400B400040A2430040A1430040A043004080B582B000AF244B1B78FB71234B1B78BB71234B62
:400880001B787B71224AFB7903F00703DBB21370204AFB791B09DBB213701B4ABB7943F00303DBB21370194A7B7943F00303DBB21370194B06221A70184B40221A70184B70
:4008C00040221A70174B20221A70174B20221A70164B40221A70164B20221A70154B41221A700A2000F0B2FC084A7B791370064ABB791370104B44221A7000BF0837BD4605
:4009000080BD00BFCF010049F8460040F94600406E5800406F5800403D510040095900400B590040D85A0040DB5A0040005B00402B5B0040585B00407658004080B500AF57
:4009400072B6404B61221A70FFF7ACFE3D4B81221A703D4A3C4B1B78DBB243F00403DBB21370FFF7DFFD394B0A221A70384B40F203321A80374B01221A7004213648FFF792
:40098000ADFD04213548FFF7A9FD04213448FFF7A5FD04213348FFF7A1FD334B334A1A60334A334B1B78DBB243F00203DBB21370304A304B1B78DBB243F00203DBB21370AD
:4009C0002D4A2D4B1B78DBB243F04003DBB213702A4A2A4B1B78DBB243F01003DBB21370082227492748FFF787FD082226492748FFF782FD082226492648FFF77DFD082262
:400A000025492648FFF778FD0A2225492548FFF773FD0A2224492548FFF76EFD244A244B1B78DBB243F00803DBB21370214B01221A70FFF71BFF0E220F491F48FFF75CFDE9
:400A400000BF80BD00480040E8460040835800404E580040075B004000760040087600401076004018760040D80A0140040400E40350014013500140A0430040C24300402A
:400A8000CC23004802510040D4230048C2510040DC230048F2510040E423004812510040EC23004820510040F8230048305100402243004004000840B043004080B500AFEA
:400AC00000F0EAFB03461B680C2B00D1FEE7FEE780B586B000AF224B7B61224B3B61204B7B6135E03B691B68FB603B695B68BB603B699B683B6000237B600CE0FB681A68A6
:400B0000BB681A60BB680433BB60FB680433FB607B6804337B607A683B689A42EED13B69DB683B6000237B6008E0BB6800221A60BB680433BB607B6804337B607A683B6883
:400B40009A42F2D13B6910333B617B69013B7B617B69002BC6D100F0A5FBFFF727FCFEE701000000D014000080B582B000AF194B194A1A60194A194B1B6843F40073136080
:400B800000237B600FE07B68032B04D8144A7B6852F8233000E0134B13497A6841F822307B6801337B607B682F2BECD90F4B1B78DAB20F4B1A700F4B0B4A1A60FFF7BEFE4A
:400BC00000F036F90C4B00221A6000BF0837BD4680BD00BF0CED00E00004FA0514ED00E000000000BD0A00000080FF1FBC760040C480FF1F08ED00E0C080FF1F90B585B043
:400C000002AF0446084611461A462346FB710346BB710B46BB8013467B80104B00221A700E4B1878BA79F9790023019300230093002300F0FDF9094B1B787A88B9881846F7
:400C400000F09CF9054B1B780221184600F064F9024B1B7818460C37BD4690BDD480FF1F80B500AF084B0F221A7000F07FF800F061F800F06DF8054B04221A70044B202273
:400C80001A7000BF80BD00BF85640040826400408364004080B582B000AF00F0F5FA0346FB71124A114B1B78DBB243F02003DBB213700F4A0E4B1B78DBB243F01003DBB2EC
:400CC00013700C4A0B4B1B78DBB243F01003DBB21370FB79184600F0DBFA00F01FF800F023F800BF0837BD4680BD00BF95640040926400409364004080B500AF064B1B783B
:400D0000002B04D1FFF7ACFF034B01221A70FFF7C1FF00BF80BD00BF7C81FF1F80B400AF00BFBD4680BC704780B400AF00BFBD4680BC704780B483B000AF044B1B78FB71F7
:400D4000FB7918460C37BD4680BC70476264004080B483B000AF044B1B78FB71FB7918460C37BD4680BC70476364004080B582B000AF01E0124B1B78124B1B78DBB203F095
:400D80002003002BF6D100F07FFA0346FB710E4A0D4B1B78DBB243F00103DBB213700A4A094B1B78DBB223F00103DBB21370FB79184600F06DFA00BF0837BD4680BD00BFD4
:400DC00052640040636400409264004090B585B002AF0446084611461A462346FB710346BB710B46BB8013467B80104B02221A700E4B1878BA79F979002301930023009318
:400E0000002300F015F9094B1B787A88B988184600F0B4F8054B1B780221184600F07CF8024B1B7818460C37BD4690BDD580FF1F80B483B000AF134B7F221A70124B8022C3
:400E40001A707F23FB710CE0FB79DB0003F1804303F5F043FA79013AD2B21A70FB79013BFB71FB79002BEFD1FB79DB0003F1804303F5F04300221A7000BF0C37BD4680BC68
:400E8000704700BFD980FF1FD880FF1F80B485B000AF03460A46FB711346BB710123FB60FB79172B2FD8BB79002B0ED0FB791A01184B1344FA791101164A0A441278D2B22A
:400EC00042F02002D2B21A700DE0FB791A01114B1344FA7911010F4A0A441278D2B222F02002D2B21A70FB791A010A4B1344FA791101084A0A441278D2B242F00102D2B2BE
:400F00001A700023FB60FB6818461437BD4680BC704700BF1070004080B485B000AF03460A46FB711346BB710123FB60FB79172B1BD8FB791A01104B13441B78DBB223F0EA
:400F40000E03FB72FB791A010B4B1344BA795200D2B252B202F00E0251B297F90B200A4352B2D2B21A700023FB60FB6818461437BD4680BC704700BF1070004080B485B023
:400F800000AF0346FB710B46BB8013467B800123FB60BB8841F6FF72934202D14FF40053BB807B8841F6FF72934202D14FF400537B80FB79172B17D8FB79DB0003F180437B
:400FC00003F5EC430433BB60BB68BA881A80FB79DB0003F1804303F5EC430633BB60BB687A881A800023FB60FB6818461437BD4680BC704780B485B000AF03460A46FB719C
:401000001346BB710123FB60FB79172B07D8FB791A01064B1344BA795A720023FB60FB6818461437BD4680BC704700BF1070004090B484B000AF0446084611461A46234603
:40104000FB710346BB710B467B7113463B710123FB60FB79172B34D8FB79DB0003F1804303F5EC43BA7902F07F02D1B27A79D201D2B20A43D2B21A70FB79DB0003F180430B
:4010800003F5EC433A7E1201D1B23A7902F00F02D2B20A43D2B25A70FB79DB0003F1804303F5EC433A7F02F00F02D2B29A70FB79DB0003F1804303F5EC430022DA700023B3
:4010C000FB60FB6818461037BD4690BC704700BF80B582B000AFFF23FB7100F0D5F80346BB71104B1B78182B12D90F4B1B78FB710C4B1B78013BDAB20A4B1A70FB79DB009D
:4011000003F1804303F5F0431B78DAB2064B1A70BB79184600F0BCF8FB7918460837BD4680BD00BFD880FF1FD980FF1F90B484B000AF0446084611461A462346FB7103460C
:40114000BB800B46BB711346FB700123FB6097F90730002B23DBBB8823F47F6323F00F039BB2002B1BD1FB79DB0003F1804303F5F043BB60BB68BA881A80FB79DB0003F131
:40118000804303F5F043BA799A70FB79DB0003F1804303F5F043FA78DA700023FB60FB6818461037BD4690BC704700BF80B485B000AF0346FB710B46BB8013467B800123FB
:4011C000FB6097F90730002B17DBFB79DB0003F1804303F5F0430433BB60BB68BA881A80FB79DB0003F1804303F5F0430633BB60BB687A881A800023FB60FB681846143760
:40120000BD4680BC704700BF80B582B000AF786008E00C4B1B68184600F02EF87B68A3F500437B607B68B3F5004FF2D8064B1B687A6802FB03F3184600F01EF800BF08378D
:40124000BD4680BDEC80FF1FE480FF1F80B582B000AF0346FB80FB88054A127802FB03F3184600F009F800BF0837BD4680BD00BFE880FF1F000000000230800803D000BFDB
:4012800001380046FCD17047EFF3108072B6704780F31088704700BF014B1868704700BF5081FF1F0E4B70B51E460E4C0025E41AA410A54204D056F8253098470135F8E7C3
:4012C00000F0F4F8084B094C1E46E41AA4100025A54204D056F8253098470135F8E770BDB8140000B8140000B8140000C014000010B5431E0A44914204D011F8014B03F80D
:40130000014FF8E710BD03460244934202D003F8011BFAE77047000000000000035B00402443004040000000280000003000000038000000400000004800000048000000E7
:4013400048000000480000007881FF1F7881FF1F080000481000004818000048200000482800004830000048400000484C00004858000048640000486C0B0048AC0B004831
:40138000CC0B00480C0C0048380000486C000048EC0000486C010048EC0100486C020048EC0200486C030048EC0300486C040048EC0400486C050048EC0500486C060048E6
:4013C000EC0600486C070048EC0700486C080048EC0800486C090048EC0900486C0A0048EC0A00482C0C00483C0C00484C0C0048CC0C00484C0D0048CC0D00484C0E00489B
:40140000CC0E00484C0F0048CC0F00484C100048CC1000484C110048CC1100484C120048CC1200484C130048CC1300484C140048CC1400484C150048CC1500484C1600484C
:40144000CC1600484C170048CC1700484C180048CC1800484C190048CC1900484C1A0048CC1A00484C1B0048CC1B00484C1C0048CC1C00484C1D0048CC1D00484C1E00488C
:40148000CC1E00484C1F0048CC1F00484C200048CC2000484C210048CC2100484C220048CC2200484C23004843000000F8B500BFF8BC08BC9E46704775030000690B0000F1
:4014C000F8B500BFF8BC08BC9E46704751030000E0140000C880FF1F9000000038000000000000000001020304050607FFFF0000807F00000F00000000366E01C05D00000D
:40150000180000000000E02E0000000000000000000000000000000000000000000000000000000000000000A81400000000000000000000000000000000000000000000C9
:4015400000000000000000000000000000000000000000000000000000000000000000000000000000000000F080FF1F0000000000000000000000000000000000000000DD
:40158000000000000000000000000000000000000000000000000000000000000000000000000000000000000000000000000000000000000000000000000000000000002B
:4015C00000000000000000000000000000000000000000000000000000000000000000000000000000000000000000000000000000000000000000000000000000000000EB
:4016000000000000000000000000000000000000000000000000000000000000000000000000000000000000000000000000000000000000000000000000000000000000AA
:40164000000000000000000000000000000000000000000000000000000000000000000000000000000000000000000000000000000000000000000000000000000000006A
:020000040003F7
:0200000480007A
:400000005500000000000000C0A1000000000000140000000000000090810000030000009188000009000000839A0000000000002000000000000000FFEF0E000000000087
:4000400000800000000000000000D200008000000000000000004E00008000000000000000004B000000000000000084001F00003500400101010E00754F000075400014DF
:400080006440110B004200091003E0200003000024485102010102001190880B001F0FE00000F0402088880000001044000000000000000000000000000000000000F60070
:4000C00020000400040400043330000100000000000000000000000000000000000000000000000000000000000000000000000000FF94000F000000FF0E00300033400C0E
:40010000004698A9002A2054900002010400080000400813C000000090800156C0003FFF000000000800000000000000000000000000000000000000000000000000000073
:400140000000080004040004331000010000000000000000000000000000000000000000000000000000000000000000000000003E00000003400400000000000049000653
:400180003002000D05130A2C00000000040009000065001A000000001000200020000F00100F00702A0000A0000011003406200005DEC0BF3BFFFFFF2200F008040000004B
:4001C0000900040004040404555500010000C00040011011C001001140014001000000000000000000000000000000000004B5004D029200CC0013B5A91A54601AA96054A5
:40020000FFA5004A0000020102FF000000CC0413A5004A02044D0092000001040000FFFF00000000000000000000040400000000000000000000000000000000000000000A
:40024000400004000404000400500001000000000000000000000000000000000000000000000000000000000000000000000000010008000000780001004000000001001A
:40028000010020000100400001001000780104000000780078000000020000007800030004000001080000000000054000000000000000000000000000000000000000008F
:4002C000200004000404000404100001000000000000000000000000000000000000000000000000000000000000000002843800110002804D80000402560D090D84400058
:4003000000842000020734384D0100004D0400004D0A00100060000000040080007F308040080F02000280000000105400000000000000000000000000000000000000004C
:400340000000022804040004555000010000000000000000000000000000000000000000000000000000000000000000C4001030100000040900C60FD40000020000000FC6
:40038000980F2300C1000608D4200000E70018001000C401C4001008000F00000000980F782007100000A000000000140000000000000000000000000000000000000000E7
:4003C000000008000404000415100001000000000000000000000000000000000000000000000000000000000000000000BC010000010008008000000005000800000080F0
:400400000502000000150028000407090005001000190000000000400020001401800203047C0000000800000000110400000000000000000000000000000000000000009F
:4004400041000000040400043110000100000000000000000000000000000000000000000000000000000000000000000161060201003200006100080000000000000000E7
:400480001261010400001B1E0000130000000000000013400000008101100461071F20801020084000000200000010510206200001BD0CFE37FFFFFF2200F00C8C100000AF
:4004C00000000000040424008408000100000000000000004001C00100000000000000000000000000000000000000000D0000000409E000010200040000FF00E209000056
:400500005D00A2003D00C20040081D0000000200010000000000080092026004000800070001FF00002A000000004014260000000005002021FFFFFF42A0700008100000F5
:400540000000000004040400400400010048404880488048000000000000000000000000000000000000000000000000000000030008087000004080901B0120FF020001B9
:40058000908002000001200604090844003394080F10002BC0380003003898030000C0783F07008020800028000000000000000000000000000000000000000000000000FC
:4005C000200004000404000444400001000000000000000000000000000000000000000000000000000000000000000000030000000000000000000000000100030000043B
:4006000000000000000100020000000300000000000000000000000000040000000001040202000100A800000000145000000000000000000000000000000000000000009A
:400640000000022C0404002430800801000000000000000000000000000000000000000000000000000000000000000090040B014220094040110B08481102021F05000037
:4006800001040001000001104F01000E0305200001050000402014C003000000E08000601F10400F82000080000041000000000000000000000000000000000000000000DF
:4006C0000000080004040004441000010000000000000000000000000000000000000000000000000000000000000000C0000700220005000300000008000700FF00000191
:400700003A000400010000000300000005007800010000000100000010000700800000007F0000010200000000001000000000000000000000000000000000000000F600D9
:400740000000000004040004444000010000000000000000000000000000000000000000000000000000000000000000FF0100000E003000008400004684A900000A011098
:40078000400713382A84540033040C0000600000008000048004568000560009FF7F00080080000200020000000000545301200004BECDF02FFFFFFF2200F008040000002A
:4007C0000900040004040404646600010000C00040011011C001001140014001000000000000000000000000000000000000800000002600060260040600000002020C0C67
:40080000000026000400030000001000000026000000060000000001020048000E001006E008010100002200000000000000000000000000000000000000000000000000D4
:40084000000000000404000033000001000000000000000000000000000000000000000000000000000000000000000032010804000140062A00100006120001010000332F
:4008800001001E1B040000002200000018000600220018001C0122123F0000131F2000076010000802000008000000102500000001DB000003FF7FFF42A070000C00000026
:4008C000000000000404040433030001000940093009000000000000000000000000000000000000000000000000000010E207000840071D0101000003920060C0000708FB
:40090000050078FF220405E03A000402035D00A2013D00C201010000FF0D000000FF7F008000000020000000000004010000000000000000000000000000000000000000BD
:4009400000000000040400000300000100000000000000000000000000000000000000000000000000000000000000000000000019086200040000000000000000000000E4
:4009800000090000100268044C02300400000000000000002E09510000000000000078070708000100A8280000000044120000000005000211FFFFFF42A070000810000072
:4009C000000002240404040436630001004840488048804800000000000000000000000000000000000000000000000004050000220018000100000001001E023F0400011E
:400A00001C042201060000002A00100022000000000040001800060032000800600400011F020000200A0000000000054300000001B00D0006FF7FFF42A070000C000000E2
:400A40000000040004040404440400010009400930090000000000000000000000000000000000000000000000000000003D800005060A0800000000080025000F01402017
:400A8000060A2014002010010000620001000200000800120100240001000200001E1F010020E000002A80000000001400000000000000000000000000000000000000001E
:400AC00000000400040400046400000100000000000000000000000000000000000000000000000000000000000000000DD4100002E764181D00000041D402001D9800231F
:400B0000001020C4020968C602C10D061D00000000C410101D10000000C400100000607810980F070000808800001000000000000000000000000000000000000000000002
:400B4000400004000404000466600001000000000000000000000000000000000000000000000000000000000000000000000000000000000000000000000000000000005E
:400B80000000000000000000000000000000000000000000000F0000000000000000000000000000000800000000000000000000000000000000000000000000000000001E
:400BC000780F00470000000700000000000000000000000000000000000000000000000000000000000000000000000000000000000004000F040000000000000000000009
:400C00000000000008000000000000000000000000000000000000000000000000000000000000000F00000000000000580100000000000000005801580100003A01000057
:400C4000000000002A013A001801120000000000000000000000000000000000000800000000000000000000000000000000000000000000000000000000000000000000DC
:400C80000000000000000000000000000000000000000000000000000000000000000000000000000000000000000000000000000000000000000000000000000000200014
:400CC00000000080000000000000000000040000000000000000000000000000000000000000000000002080000000000000000000000000000000000000000004000000CC
:400D0000000000400000000000000000000000000800000000000000000000000000000000000000000000000100040000000000000000000800000001000000000000005D
:400D400000000000000000000000000000000000000000000000000000000008000000000000000000000000000000800000000000000000000000000000000000000000EB
:400D800002000000000000000000000000000000000000000000000000000000000000000000400000000000080000000100000000000000000000000000000000000000E8
:400DC0000000000000000000000000000000000002004080000000020000000401000000000000000800200204000040000000000000008010000004000000200000000008
:400E000000000000000000000000000000000100000001000000000001000000000000000200030000000000000000000000060000000000000000000000000000000000A4
:400E40000000000000000000000000000000002000000000000000000000000000000000000000000000000000000000000000000000000000000000000000000000000052
:400E80000000000000000000000000000000000000000000000000000000000000000000000000000000000000000000000000000000000000000000000000000000000032
:400EC000000000000000000000000000000000000000200000000000090000001000000000000000000000060400004000000000000000800000000000004080000000002F
:400F0000000000000000000000000000080000000000000000000000000000000000000000000000000000000000000002000000080000000000000000000000000000009F
:400F40000000000000000000000000000000000000000000000000000000000000000000000000000000000000000000000000000000000000000000000000000000000071
:400F80000000000000000000000000000000000080000000000000000000000000000000200000000000000000000000000000000000000000000000000000000000000091
:400FC00000000000000000000000000000000000200001000100000080000001100002000000000100000006040000400000400001000000000000000000000000000000B0
:401000000400000000000000000000000000000000000000000000000000000001000000020000000000000000000000090000000800000000000800000000000000000090
:401040000000000000000000000000001100000008000004000002000000800000000000000000000000000000000000400000000000000000000000000000000000000091
:4010800000000000000000000000000000000000000000000000000000000000000010000000000000000040000000010000000004000000010000000000000000000000DA
:4010C000000000000000000000000000000000000000000000001000410000000000000000000000000000020000000000000000000000000000000000000000000000009D
:401100000000000000000000000000000F00060000000000020000000000000000000000050001000100020000000000000002000400080000000000000000000000000081
:40114000000000000000000000000000000000000000000000000000000000000000000000000002000000000000000000000000000000000000000000000000000000006D
:40118000000000000000000000000000000000000000000000000000000000000000000000000000000000000000000000000000000000000000000000000000000000002F
:4011C00000000000000000000000002000000000000000200000000000000000000000000000000000000000000000000000000000000000000000000000000000000000AF
:4012000000000000000000000000000000000000040000000000000000000000000000000000000000000000000001000000000000000000000000000000000000000000A9
:401240000000000000000000000000000008028000008026082082000100250000004110002100080008020000002110080104000A0880200000002024008000000810011D
:4012800000008026080200008001040000000000040008000000000000000000000000000000000010004000000000000001000000900220080020010000000000000000C1
:4012C0000000000000000000000000000010400000000400409010080500002200018410080202001900C90400090221602002A00C00000000010004000001800208080012
:40130000002002080000000000000000FD00FF007B00000000007200F700D3000000000000000C00F1000000000000000000D400800030002000C00000004000000000002F
:40134000000000000000000000000000000800428010009000010A2000A04010002000009000010000000002089040050405004100480008084204000000000420008208C2
:401380000000202200220080200000002602000000000000000602000000000081002000000000000085002000000000000000810000000000000000000000000000000032
:4013C0000000000000000000000000000100004200860000A00000400601820880200AB00000000AB84805D0000000081031000004C82002000004005000001000002400BB
:40140000000048100000000000000000FD00FF00B200000000002F008F002D000F00080000000F0009000000000000000000A0000400080002004500000002000000000097
:40144000000000000000000000000000002880020800080008108200400000048000111000000020002000010000042424020000008000180000000000408008080000013B
:401480000000188000820000000800000044400004800000000080000004000000004000000000088010000000000000000000400000000C022000002041000400000000D3
:4014C000400000000000000040800100004200001010100071010020001000100088C010440400408C0011000008400080340A8204400001880000000000080004000040A9
:401500000000080000000000000000006F00CF004F00000000002000730049003B00000000000C0021000000000000000A0080000200E00000002100C0000900000000007C
:4015400000000000000000000000000018830200008608009000601480008028240081009010010000040010000080200000008004060001840020210000800490000A00AC
:4015800000000009B0800901008800010002800000800020000000000200800A000000000000000000000000000000000000000000000000000000000100000000000000B0
:4015C0000000000000000000000010200800000000300020205040400300000020810204040048228008296000000009F011020004088022420410201001080000140000ED
:40160000004400000000000000000000FF00FF00FF00000000003F00CF00DF0030001000000000000000000000000000000061000A0004000000600000002A000000000043
:40164000000000000000000000000000000846000401000002408831100802008020010802000004000000800019020000140200000020A2000404012840000002006010FD
:40168000000004200000002800001100001000000000009000200004611002080200000040000A002000001000000000000000000000000000000000000000000000000012
:4016C0000000000040000200000001000000020008000401000002020000400000D0D328C20400051024110C6018400080340402440000050000005900200100040004042C
:401700001020850000000000000000003F00EF00AF000000000078006900A600340024000000000000000000000010004800B000100000009000200040002A000000000006
:401740000000000000000000000000000000400002101200000021000000220800000000040080040000A0100010248000042204002444008080006800A040200008A2002A
:401780000000600900900980A80008810000000000000000002008000000000000000000000000001004800000100060020040200000000100600000020010000000000075
:4017C000000000000000000000010040001000840208000040000040000000402200030044000C220400F32440880000F00109080430B682220048000004000000000005EF
:40180000000500020000000000000000F800E5007000000000007F00FF00FF000000000000001E00120000000000000048000100100008000800240000000C00000000000E
:4018400000000000000000000000000000080208800000004000802800008000000005050000000000000408000800200004740000441800080801010200000008026000DE
:401880000100802042280000000200000000C0000000000000000000000000000000000000000000000028420000000000500080000200000A0000000040190000000000BC
:4018C0000000000000004281000001800000006000005000111240200008880000A04022620484000844101E2008410080130002404000050040401400000100040000005F
:4019000000001008000000000000000087001F000F00000000001F00BF008F000000000000000F008D00000000009000720000002000C2000000000000009000000000005D
:40194000000000000000000000000000002800020040801408010AA0000846000220001500040001002400010058000000800000180040404002000000004484000000008D
:40198000040011500000000000908A00000000001000000800000000000000000000000000000000000200000000000020A2000010000000088020000114420400000000B9
:4019C00000000201040400000000000000400040000800000030004000061100202883095C800C120000702808990100F04008080C04F60000924000000000020002011098
:401A0000010004000000000000000000F700FF003F0000000000F100F000F00000000000000001004F00000000000000130004000000180040002800000021000000000093
:401A4000000000000000000000000000400808406208004008208A604020124248000108020048080010000200404010004000000010621200000000000000580002000003
:401A80000008610040000181000044210000000000000000000000000000000000000000000000000000000020400000001010000400000200200800000000008A04110841
:401AC000000000000000000000000000000002040240690000000C180203000000000000000400000000000000000000000000004000000000000000000400004000000084
:401B0000000000000000000000000000FF00FF00FF0000000000E000F100F00000000000000030003000000000000000100060000000C00000000000000020000000000037
:401B400000000000000000000000000088000840002400005004004008000400821020001080200100000008000440100004000000400009080104020000040000A005000D
:401B800000201009004108104000106000000000000000150000000001204006000000000000121400900454800210041002000A0100008000000000000000000000000026
:401BC0000000000041004200000000008448000100000A04000101000024000020300000440000C20000602040800100F20008000404A40000000040002001080200008831
:401C00000010000100000000000000006F006F009F00000000004F00EF002F00E00030000000F0009F000000000000000000430000000200000000000000020000000000C3
:401C40000000000000000000000000000000000000000000000000000000000000000000000000000000000000000000000000000000000000000000000000000000000064
:401C8000000000000000000000000000000000000000000000000000000000000000000000000000000000000000000000000000080000000000000000000000000000001C
:401CC00000000000000000000000000088080008002801000008014000088A00000031200040902000000D082000C00080000121000808004088A000008800000000A901C6
:401D00000000A90160540100400800000000000000000000000000000000000000000000000000000210400800000080040000810000400020240000000000009200200067
:401D4000000000000000000000000000000000000000040000000440000000000000000000000000000000000000000000000000000000000000000000000000000000001B
:401D8000000000000000000000000000E700FD00F700000000005F00FF005F000000000000001F001D00000000000000000000000800A000000000000000000000000000A7
:401DC000000000000000000000000000000000400000000800400000000000000000000000000000000000000000000000010000000000000000000000000000000000005A
:401E00000000000000000000000000000000000000000000000000000000000000000000000040001000000200000000000000000840000000000000000000000002000006
:401E400000020000000000000000000000200040004200000040000200000000000000000002000018004000000000080002000000200000000000100000400000000000A8
:401E80000000020000000000000000009000400000000000400000000000000000000000C000C0008000000080002000400020008000100000003000000000000000000050
:401EC0000000000000000000000000000000000000000000000000000000000000000000000000000000000000000000000000000080000000000000000000000000000062
:401F00000000000000000000000000000000000000000000000000000000000000000000000000000000000000000000000000000000100000000000000000000000000091
:401F400000000000000000000000000000020000000100081000000008000000000000000000000000001000000002100000000000A0000008000000000010000000104014
:401F80000010000000000000000000000000000000000000200000000000000000000000000000008000000000000000100080004000000000008000000010000000000011
:401FC00000000000000000000000000000000000000000000000000000000000000000000000000000080000000200000000000000000000000000000000000000000000D7
:40200000000000000000000000000000000000000000000000000000000000000000000000000000000000000000000000000200000010000000000000000000001000007E
:40204000001000000000000000000000000000000000000000000000000A0000000000000000004000000000000002100000020008A01000000000004000040000000800EE
:40208000000000000000000000000000000000000000300000000000000000000000000000000000C0000000600000000000000000000000000000000000100000000000C0
:4020C00000000000000000000000000000000000000000000000000000000000000000000000000000000000000000000000000000000000000000000000000000000000E0
:402100000000000000000000000000000000000000000000000000000000000008000000000008000000000004000000040002000000000000000000000000000000000085
:4021400000000000000000000000000002004000004000000000000000C00000000000000080884000000000404002100000020002201000000000080000000010400000B7
:40218000000200000000000000000000000000000000000000000000000000000000000060008000400000000000000000002000000090000000200000000000000000002D
:4021C00000000000000000000000000000000000000200000000000000000000000000000000000000000000000000000000000000000000000000000000000000000410C9
:40220000000810000000004000000000000000000000000000000000000000000000000000000000000080000000000800401000100000000000000000000000000000005E
:402240000000000000000000000000000000000000001000000000000008000000000000008000000000000040000200000002000260000000000010000000000000000010
:40228000000000000000000000000000200000000000000000000000F0001000000000008000C000C00000000000000000004000000000000000200000000000000000009E
:4022C000000000000000000000000000000000000000000000000000000000000000000000000000000000000000000000000000000000000000000000000000420000009C
:402300000000001400800200008100000020000000000000000000000000000000000000000000000000000000000000000000000000000000000000000000000000000066
:402340000000000000000000000000000000000000000000000102000040000400000000000000000000000000000000000000000000000000000000000000000000000016
:40238000000000000000000000000000000000000000000000000000F000F0001000000000000000000000000000000000000000000000000000000000000000000000002D
:4023C00000000000000000000000000002F1F100F1000C00609F9F009F0000000020200020001D00803F3F003400000003006C909300931000000000090040B0B900B90070
:40240000060000000100180108001801000000000000000000000000000000000000000000000000000000000000000000000000000000000000000000000000000000005B
:40244000000000000000000000000000000000000000000000000000000000000000000000000000000000000000000000000000000000000000000000000000000000005C
:40248000000000000000000000000000000000000000000000000000000000000000000000000000000000000000000000000000000000000000000000000000000000001C
:4024C00000000000000000000000000000000000000000000000000000000000000000000000000000000000000000000000000000000000000000000000000000000000DC
:40250000000000000000000000000000000000000000000000000000000000000000000000000000000000000000000000000000000000000000000000000000000000009B
:0200000490006A
:0400000000004004B8
:0200000490105A
:04000000BC90ACAF55
:0200000490303A
:02000000D678B0
:0200000490402A
:4000000000000000000000000000000000000000000000000000000000000000000000000000000000000000000000000000000000000000000000000000000000000000C0
:400040000000000000000000000000000000000000000000000000000000000000000000000000000000000000000000000000000000000000000000000000000000000080
:400080000000000000000000000000000000000000000000000000000000000000000000000000000000000000000000000000000000000000000000000000000000000040
:4000C0000000000000000000000000000000000000000000000000000000000000000000000000000000000000000000000000000000000000000000000000000000000000
:0200000490501A
:0C00000000012E16106900012E1EE6E122
:00000001FF