:400000000080002011000000190700001907000080B500AF024A034B1B68136000F080FBBC760040FA46004010B5054C237833B9044B13B10448AFF300800123237010BD5C
:40004000F080FF1F000000005C0F0000084B10B51BB108490848AFF300800848036803B910BD074B002BFBD0BDE81040184700BF00000000F480FF1F5C0F0000C880FF1FDE
:400080000000000080B582B000AF4FF4FA6000F0E3FE00F027F800F059F800F055FC0F4B1B780121184600F019FD0D4B1B780121184600F013FD00BF00F064FC034603F002
:4000C0000103002BF8D00023FB7102E0FB790133FB71FB79072BF9D9FEE700BF1D81FF1F1081FF1F80B500AF4FF4804341F6FF720121012000F092FC03461A46104B1A701C
:4001000000F00EFE03461A460E4B1A700D4B18780123FE22082100F031FE0A4B1B780A4A91B246F24542184600F068FE044B1A78044B1B781946104600F084FD00BF80BDEC
:400140001081FF1F1C81FF1FCC80FF1F80B500AF41F6FF734FF480420121012000F076FB03461A46104B1A7000F0DAFD03461A460E4B1A700D4B18780223FE22082100F04E
:40018000FDFD0A4B1B780A4A92B246F25541184600F034FE044B1A78044B1B781946104600F050FD00BF80BD1D81FF1F1181FF1F1481FF1F80B582B000AF786039603A687E
:4001C0000021786800F0C1FE00BF0837BD4680BD80B584B000AFF860B9607A607A68B968F86800F0A7FE00BF1037BD4680BD00BF80B483B000AF0346FB71FEE780B487B096
:4002000000AF7860396000233B6100237B6127E07B699B007A6813441B68BB60BB68FB73BB6823F0FF03BB6014E03B695B003A6813441B781A46BB68134419463B695B00E8
:400240003A6813445B780B703B6901333B61FB7B013BFB73FB7B002BE7D17B6901337B617B692A2BD4D900BF1C37BD4680BC704780B582B000AF504B00221A804F4B5022EF
:400280001A704F4B01221A804E4B18221A704E4B01221A804D4B18221A704D4B03221A804C4B18221A704C4B03221A804B4B18221A704B4B0B221A804A4B18221A704A4BA1
:4002C0000B221A80494B18221A70494B0C221A80484B18221A70082247494848FFF778FF474B02221A704FF0402308221A70454B03221A70444B454A1278D2B21A70444B5B
:4003000008221A80434B41F251221A800023FB7019237B6014E0FB785B00DAB23E4B1B78DBB203F00103DBB21343DBB203F00303FB704FF4F07000F0C7FD7B68013B7B6073
:400340007B68002B02D0FB78032BE4D17B68002B02D10320FFF74CFF304B4FF480721A802E4B07221A702E4B00221A702D4B48221A702A4B00221A702B4B02221A702B4B40
:4003800004221A702A4B1B78294BFF221A70294A284B1B78DBB243F00303DBB21370264A254B1B78DBB263F07F03DBB2137000BF0837BD4680BD00BF804000408240004033
:4003C0008440004086400040884000408A4000408C4000408E40004090400040924000409440004096400040984000409A4000409C4000409E400040FC1200480041004038
:400400000043004000420040A146004008010049224200402042004025420040044000400640004008400040014000400B400040A2430040A1430040A043004080B582B0E0
:4004400000AF254B1B78FB71244B1B78BB71244B1B787B71234AFB7903F00703DBB21370214AFB791B09DBB213701C4ABB7943F00303DBB213701A4A7B7943F00303DBB240
:4004800013701A4B42221A70194B40221A70194B40221A70184B40221A70184B20221A70174B20221A70174B80221A70164B20221A70164B80221A700A2000F0EFFC084A7B
:4004C0007B791370054ABB791370114B44221A7000BF0837BD4680BDCF010049F8460040F94600406E5800406F5800400D5100400159004003590040C05A0040C35A004047
:40050000005B0040205B0040235B0040585B00407658004080B586B000AF72B65F4A5F4B1B78DBB243F00403DBB213700023FB7513E0FA7D13465B0013445B00584A13444B
:400540003B613B691A683B699B889BB219461046FFF730FEFB7D0133FB75FB7D082BE8D90023FB751CE0FA7D13469B0013445B004C4A1344FB60FB681B68BB60FB685B6829
:400580007B60FB681A7A5B7A1B0213437B807B881A467968B868FFF71BFEFB7D0133FB75FB7D042BDFD940494FF09040FFF726FE3E4B0A221A703E4B03221A803D4B012254
:4005C0001A7004213C48FFF7F5FD04213B48FFF7F1FD04213A48FFF7EDFD04213948FFF7E9FD394A384B1B78DBB243F00203DBB21370364A354B1B78DBB243F00203DBB2F8
:400600001370334A324B1B78DBB243F04003DBB21370304A2F4B1B78DBB243F01003DBB2137008222C492D48FFF7D2FD0A222C492C48FFF7CDFD08222B492C48FFF7C8FDB2
:400640000A222B492B48FFF7C3FD08222A492B48FFF7BEFD0A222A492A48FFF7B9FD2A4A294B1B78DBB243F00803DBB21370274B61221A70FFF7FCFD244B81221A70244B64
:4006800001221A70FFF7DAFE0E2211492148FFF79FFD00BF1837BD4680BD00BFE84600406C0F0000A40F0000AC0000488358004048580040075B004000760040087600408C
:4006C00010760040187600400350014013500140A0430040C2430040C012004802510040C8120048C0510040D4120048F2510040DC12004810510040E81200482251004029
:40070000F012004830510040224300400048004004000840B043004080B400AFFEE700BF80B586B000AF224B7B61224B3B61204B7B6135E03B691B68FB603B695B68BB60AF
:400740003B699B683B6000237B600CE0FB681A68BB681A60BB680433BB60FB680433FB607B6804337B607A683B689A42EED13B69DB683B6000237B6008E0BB6800221A6025
:40078000BB680433BB607B6804337B607A683B689A42F2D13B6910333B617B69013B7B617B69002BC6D100F09FFBFFF76BFCFEE701000000FC0F000080B582B000AF194B34
:4007C000194A1A60194A194B1B6843F40073136000237B600FE07B68032B04D8144A7B6852F8233000E0134B13497A6841F822307B6801337B607B682F2BECD90F4B1B7815
:40080000DAB20F4B1A700F4B0B4A1A60FFF782FE00F036F90C4B00221A6000BF0837BD4680BD00BF0CED00E00004FA0514ED00E000000000190700000080FF1FBC760040AD
:40084000C480FF1F08ED00E0C080FF1F90B585B002AF0446084611461A462346FB710346BB710B46BB8013467B80104B00221A700E4B1878BA79F97900230193002300933D
:40088000002300F0FDF9094B1B787A88B988184600F09CF9054B1B780221184600F064F9024B1B7818460C37BD4690BDD480FF1F80B500AF084B0F221A7000F07FF800F0E5
:4008C00061F800F06DF8054B04221A70044B20221A7000BF80BD00BF82640040856400408664004080B582B000AF00F0F5FA0346FB71124A114B1B78DBB243F02003DBB296
:4009000013700F4A0E4B1B78DBB243F01003DBB213700C4A0B4B1B78DBB243F01003DBB21370FB79184600F0DBFA00F01FF800F023F800BF0837BD4680BD00BF926400400E
:40094000956400409664004080B500AF064B1B78002B04D1FFF7ACFF034B01221A70FFF7C1FF00BF80BD00BF0C81FF1F80B400AF00BFBD4680BC704780B400AF00BFBD4647
:4009800080BC704780B483B000AF044B1B78FB71FB7918460C37BD4680BC70476564004080B483B000AF044B1B78FB71FB7918460C37BD4680BC70476664004080B582B0EC
:4009C00000AF01E0124B1B78124B1B78DBB203F02003002BF6D100F07FFA0346FB710E4A0D4B1B78DBB243F00103DBB213700A4A094B1B78DBB223F00103DBB21370FB795A
:400A0000184600F06DFA00BF0837BD4680BD00BF55640040666400409564004090B585B002AF0446084611461A462346FB710346BB710B46BB8013467B80104B02221A701B
:400A40000E4B1878BA79F9790023019300230093002300F015F9094B1B787A88B988184600F0B4F8054B1B780221184600F07CF8024B1B7818460C37BD4690BDD580FF1F2A
:400A800080B483B000AF134B7F221A70124B80221A707F23FB710CE0FB79DB0003F1804303F5F043FA79013AD2B21A70FB79013BFB71FB79002BEFD1FB79DB0003F18043A6
:400AC00003F5F04300221A7000BF0C37BD4680BC704700BFD980FF1FD880FF1F80B485B000AF03460A46FB711346BB710123FB60FB79172B2FD8BB79002B0ED0FB791A01D1
:400B0000184B1344FA791101164A0A441278D2B242F02002D2B21A700DE0FB791A01114B1344FA7911010F4A0A441278D2B222F02002D2B21A70FB791A010A4B1344FA79FF
:400B40001101084A0A441278D2B242F00102D2B21A700023FB60FB6818461437BD4680BC704700BF1070004080B485B000AF03460A46FB711346BB710123FB60FB79172B9C
:400B80001BD8FB791A01104B13441B78DBB223F00E03FB72FB791A010B4B1344BA795200D2B252B202F00E0251B297F90B200A4352B2D2B21A700023FB60FB68184614375E
:400BC000BD4680BC704700BF1070004080B485B000AF0346FB710B46BB8013467B800123FB60BB8841F6FF72934202D14FF40053BB807B8841F6FF72934202D14FF4005307
:400C00007B80FB79172B17D8FB79DB0003F1804303F5EC430433BB60BB68BA881A80FB79DB0003F1804303F5EC430633BB60BB687A881A800023FB60FB6818461437BD46C9
:400C400080BC704780B485B000AF03460A46FB711346BB710123FB60FB79172B07D8FB791A01064B1344BA795A720023FB60FB6818461437BD4680BC704700BF1070004096
:400C800090B484B000AF0446084611461A462346FB710346BB710B467B7113463B710123FB60FB79172B34D8FB79DB0003F1804303F5EC43BA7902F07F02D1B27A79D201D5
:400CC000D2B20A43D2B21A70FB79DB0003F1804303F5EC433A7E1201D1B23A7902F00F02D2B20A43D2B25A70FB79DB0003F1804303F5EC433A7F02F00F02D2B29A70FB79DA
:400D0000DB0003F1804303F5EC430022DA700023FB60FB6818461037BD4690BC704700BF80B582B000AFFF23FB7100F0D5F80346BB71104B1B78182B12D90F4B1B78FB71F8
:400D40000C4B1B78013BDAB20A4B1A70FB79DB0003F1804303F5F0431B78DAB2064B1A70BB79184600F0BCF8FB7918460837BD4680BD00BFD880FF1FD980FF1F90B484B00C
:400D800000AF0446084611461A462346FB710346BB800B46BB711346FB700123FB6097F90730002B23DBBB8823F47F6323F00F039BB2002B1BD1FB79DB0003F1804303F569
:400DC000F043BB60BB68BA881A80FB79DB0003F1804303F5F043BA799A70FB79DB0003F1804303F5F043FA78DA700023FB60FB6818461037BD4690BC704700BF80B485B097
:400E000000AF0346FB710B46BB8013467B800123FB6097F90730002B17DBFB79DB0003F1804303F5F0430433BB60BB68BA881A80FB79DB0003F1804303F5F0430633BB6004
:400E4000BB687A881A800023FB60FB6818461437BD4680BC704700BF80B582B000AF786008E00C4B1B68184600F02EF87B68A3F500437B607B68B3F5004FF2D8064B1B683F
:400E80007A6802FB03F3184600F01EF800BF0837BD4680BDEC80FF1FE480FF1F80B582B000AF0346FB80FB88054A127802FB03F3184600F009F800BF0837BD4680BD00BF3A
:400EC000E880FF1F000000000230800803D000BF01380046FCD17047EFF3108072B6704780F31088704700BF0E4B70B51E460E4C0025E41AA410A54204D056F825309847FB
:400F00000135F8E700F068F8084B094C1E46E41AA4100025A54204D056F8253098470135F8E770BDE40F0000E40F0000E40F0000EC0F000010B5431E0A44914204D011F8F2
:400F4000014B03F8014FF8E710BD03460244934202D003F8011BFAE77047000000000000035B00402443004040000000004F00402400405100403000800001400004000546
:400F80000140000B00140140000480180140800300400140000A004C014000021050014010000000605200402811004806000000014030110048800080040140B0110048D4
:400FC00080000018014030120048800000500140B012004810000000F8B500BFF8BC08BC9E4670474D000000B9070000F8B500BFF8BC08BC9E46704729000000101000000F
:40100000C880FF1F280000003000000000000000000000000001020304050607FFFF0000807F00000F00000000366E01C05D0000180000000000E02E0000000000000000E2
:401040000000000000000000000000000000000000000000000000000000000000000000000000000000000000000000000000000000000000000000000000000000000070
:401080000000000000000000000000000000000000000000000000000000000000000000000000000000000000000000000000000000000000000000000000000000000030
:4010C00000000000000000000000000000000000000000000000000000000000000000000000000000000000000000000000000000000000000000000000000000000000F0
:4011000000000000000000000000000000000000000000000000000000000000000000000000000000000000000000000000000000000000000000000000000000000000AF
:020000040003F7
:0200000480007A
:40000000064F00400B520040015B00400864004003650040120001403B01014053020140490301400F04014053050140650601404B0701405E08014061090140490A014099
:40004000510B0140540C01405E0D0140560E01403D0F01405F1401405815014058160140531701401718014052190140621A01405F1B01400F4001401A4101401042014055
:400080001B4301400844014014450140124601400E4701401C480140294901400F4C01400D4D0140065001400451014001800A630D80166319802236012408A009200CA008
:4000C00010CA1189189019A01C04781479022784270F2C0F37083C08800F820F84478C7824042A04880785FF89468BA98D2A8F549133930C9580975699409B13A301A50E2D
:40010000A730B3FFD904DC40DF010040010102600308080109880A42102011101281184019021B282002214D228023402430280129022F50310832B1341035013604391653
:400140003A403C103E8840444104480549045080522153066202682069156A407180820487028A808B048E08C00FC20DC40FCAC9CCEFCE7FD007D20CD801E008E260E60EF9
:4001800001D4049405C40669071009980B2311C113061420150916D017C6185519101AAA1BC41C0E1DD4243325E726C4271829102DC42F10337834F03598360F3707388094
:4001C0003A203B8856025728580459045B045C555D505F018084840A85158610870A88018C078D038E388F1C900491029280930D945696099C84A060A109A316A484A88090
:40020000AA04AC04B002B10FB27FB310B480B808BB02BE11BF04D409D604D804D904DB04DC66DD60DF01001001450508080809800A400E0A0F1010A0111013401704181421
:400240001B011E021F10220625102604270529022D082F0A32023614374139CC3B083D283E02584059055A20638267306D086E246F5276028340881889028A018D408E01E3
:400280009020919992E09340940499069C10A0A0A180A404A602AA40AF50B410B501B720C02FC2EDC42FCA71CCF1CEEAD60FD849E202E6C0EA08EE03000306030701220265
:4002C0003002320137013E055441580459045B045C105D105F010005020C0408052006080D080E081040150418101A401D681F1020012402262A2C802D0C2E802F12361665
:40030000374838043D203E063F224482452047084C854D404F2556685708580859105A405C025D605F04601065406740680469806D808002814082208448854087408C10DF
:400340009020928496029A029B519D08A110A214A302A708A814A901AC40AE04B004B304C06CC260C428CAD0CCF0CEE2D0F0D220D6FED892E001E608E820EC0100040301CC
:40038000040705FF063809800B560C040D330F0C1001110E1330152A1604175418561A091C041D461FA92060240A2610280429402B132C04307F31FF38025440560458043E
:4003C00059045B045C355D505F01810F85C089908A108B028C088E258F40900192029680970898059A0A9B209DFF9E62A001A202A398A401A504A624A708A80FAA40AB94DF
:40040000AC06AD90AE20AF01B1C0B33FB41FB6E0B908BA80C065C520C750C822C9FFCAFFCBFFCC42CDA0CE70D008D110D804D904DA04DC34DD03DF01E148E240E348E4806F
:40044000E548E680E74800A004080680070108040A060B800D200EA00F0210981180164017581A061E802040231024802501288929042B082F083258348136083840392836
:400480003A013C103D413E0849224A01520165016624670180888101831084408740880489408A018CC08D0890089280930196029AE49B599D10A128A210A301A880AC043B
:4004C000B404C0B3C2FFC4FFCA2FCCDECEFFD20CD8F0E20BE409E610EA81EE10000D03040401054D0792085D09CC0AA20B130E080F011004110212E0143D15FF16C2180161
:400500001B021E021FB5211A22FF236024E22504284029A92A1D2B542C922DA52E602F4A33FF36FF3E403F045608580459045B045D105F01800882708340840285188601B3
:40054000870689048C338D068E089010911C922B93229401952A9606971099019C809D229E03A038A101A203A31EA489A532A644A708A81BA93FAA20AC38AD22AE03AF18F0
:40058000B080B160B207B51FB678B802B920BA88D804D904DC44DF01000802010380052006400722088109400A100C090D800E040F021004110612021484150416091704B4
:4005C00019011A101B801F40208022132608280929012B102C412D202E042F05300431803211348835043726382039823B083EA83F22424043025E40654078407A0280022D
:4006000083048540864088488A088B408D428E2190409183920494849612970299249A819B239C219E549F08A1CDA308A401A6A2A780AA08AB10AD10AEA0AF40B523B630EC
:40064000C0FDC2FDC4FFCAFFCCFFCEFFD610D810E060E408E6E0EA81EE500003012202200305044205010609080109080B070C400D030E0B10401105121413781448157F1E
:400680001602180119011C4F1D401F07200321102307253A26012704281F29012C902D032E0B317F32E0341F38083E043F0152F65604580459045B045C045D405F018308C3
:4006C00085018901900291029304A902AA03AB04B001B202B308B707B980BE04BF40D608D804D904DB04DC41DD10DF010259030209010A060B200E40100411841302160820
:4007000019201B281E401F0421012504270129102A412B202D203004310432013350360239843B223C023F184540477058805A205D105F48610265406628680469047190F5
:4007400072847320808085408F0290409181933094849612970899049B029C219D209E54A148A304A404A788AA14AB01AD88AF80B101B301C00FC21FC44FCA2FCC8FCEEF81
:40078000D67CD871E001E440E601E888EC05002302040581074008400B300D080F101310140E157F19201A101B041C051E3A1F282120230225812C042D1E2E393040320FEA
:4007C00033803430357E3701380839A83E013F04402345024750482149FF4AFF4BFF4C424DA04E705008511054205604580459045A045B045C465D145F0161486240634830
:400800006480654866806748880F8F01900992069501A501A80AAA05B008B201B402B604B701B8AABE55D420D604D804D904DB04DC40DD40DF010010068409040A830B10C7
:400840000E280F021110160219801A201B221C101E281F0121402302240A2540271029042C022D042E0133083481352439803D883F2047184C014D444F0854025842590840
:400880005A105F0160046140634064206601670A69106A80820483028602872088808A028B108E89904093109488954096029740984299449B089C809D209E58A108A2023E
:4008C000A310A404A708AA01AC40AE45B240B304B509B621B710C052C2E8C482CAD2CCF2CE78D060D68FD8FDE0B4E41CE6C0E850EE40037806400778083109020A020B40D8
:400900000CA50D7810011102120E1308143115781608170119041A101C851E2020842102222123202484250226012740284029022B102CA52F02300F310132403378343088
:4009400035063680388839203A023E403F14580459045B045C445F0185188E0491109308950897109C04A001A202A401A502A602A704A803A902AB05B001B110B301B40233
:40098000B506B604B708B8A2B982BE11BF41D440D604D804D904DB04DC43DD60DF01000802010308048008820A680D401001111212101608170519441A681E821F1020405C
:4009C0002101231825282682288029202A602B102D042F043001312832013705380839463A103E0864086588660269906F058004814085808602871088088A108B408D0426
:400A00008E80C087C28FC47FCA6FCCC7CE4FD8F0E080E270E401E620013D03C20501060209010D920F6012011308150417E0195D1BA21DE2230227FF29402B1D2D0D30027E
:400A4000320135FF3F1040344402450B460D480549FF4A7F4BFF4C424DA04E70500C580459045A045C035D035F01610962406309643065098003812A831084C0850486075B
:400A8000880189018CFF8D328F089005910692789422952296059718980899019A079B1E9C109D3F9E07A003A122A401A518A706A801AB40AC3AAD1CAE04AF22B27FB480F4
:400AC000B51FB760B820B920BE04D604D804D904DB04DC33DF01000401080545060409010C010D480F08154016501710190A1D101F042210240225502620280829042A4123
:400B00002B842C012FA4316932483360351136083740388239803A143B403D203F464004410442404B04508052405D205F8067806C026D10812082108402888189518A2016
:400B40008D038FC09080914892C095019780980899049A159B109C019D01A121A208A301A909AA18AE40AF40B20CC0F4C2F8C4F0CAFFCCFFCEFFD007D630D880E2A0E4148B
:400B8000E608E801EE0400020108031004FF0501070609400AB50B2B0D0B0E040F10101A11301260130314CC15281613175318A519081A4A1B231C4D1D791E921F04220199
:400BC0002380250226022701280429032B102CA92E5433F8350736FF3B203E4052F6580459045B045C305D305F018009810383208409870189018C028D408E048F0B90023B
:400C00009140920493149542970999019C089D1FA103A590A70BA948AB02AD4FB007B208B3E0B401B51FB82AB908BE11BF04D804D904DC33DF01014A03010418050106012E
:400C400008810C010E080F2215401654181019241A401F802134222424042510260C280929052D102E082F8030203248330134813628388039053A103B403C143D013F40F6
:400C80006D046E106F107420765580108110821084088510870189108B018C848D108E409080928094109569962099029C099D34A240A310A608A901AA01AC10AF10B0100D
:400CC000B204B648C0FDC2F9C4F0CAEFCCFFCEFFE001E282E401E64CE808EE0382138401860688018A048E1B96139C129E01A401A632AB01B008B207B410B620B701BA087C
:400D0000BE10D804D904DC44DF010040010A03040550062009080A020C280E0211081402152817021804190A1A021C011D141E021F11200221402402268027A829202E02E9
:400D4000360437203D943E0147804C014E285616578265016D906E097C807D01804082088382854288608E509040914994AC98029B059E449F08A10CA308A405A502A6A038
:400D8000A702A804AA10AC20AD64B001B218C0EFC2E5C4F4CA84CC60CEF0D010D230D880DE90E280E430E640E808EC24EE8001030213040106320B010E13161B18011A06E7
:400DC0001C121E012001220430083210330134073502362039023A203E043F154034440146BD480C49FF4A7F4BFF4C424DA04E70500C580459045A045B045C035D045F0128
:400E0000610962406309643065098144820483208490862887408A018C088D158E429111930494089502967098B899449A019B089C989D049E239F38A115A515A8B8A9115C
:400E4000AA01AB04ACB0AE08AF01B080B13CB278B340B503B607B802B920BA88BB02BE01BF10D420D604D804D904DB04DC33DD30DF01004101080502062A0A050B200CA0BE
:400E80000E2011021402152018401A251D401E201F412122220824082504260127402CA02D802E202F4034223504374039023A103C803D0A3E024140430950105240592088
:400EC0005A205C085D405E1264406520670269106A4078087A1081028208851088C089918D0D900191C092109320942895209640982299049A389B019CC09D409E40A02090
:400F0000A308A522A921AA08AB01AD04B02CB120B220C0FDC2E7C4C8CAF0CCF0CED5D00BD6F0D8B0E054E4A0E640E885EC80EE0233883440370838203B083E284120852097
:400F400087048B088F01CCF0CEF0D010E65030803208358037043A805208538162028120860289808C108F089302942099209C409E289F08A520A780CCF0CE10D480D8406B
:400F8000E2600740510885108608950499209C409EA89F04A480A780B104C020D420E240E6401B041D08600864086840744086808E809120950499209C409E20A180A4808F
:400FC000A508AB44AD80B380B680C630D8C0DC60E410EA80EC80EE401440280477407C018340C404CA08DE0500205602570858286410658081808202842088049401981463
:40100000B050C002D403D607D801E601E804EA0105021B01272044205420803094019A40A808AB08AE40B010C004C608C801D001D402EE014510501084208C0194119A40DB
:401040009C20AB20B301B502D004D404E408EA03268051105680592065016A406F018440870188408D018E409120950499209A809C48A180A304A4C0A680AA20C820D4E0FA
:40108000D880DAC0E240EA200010034007201504220253106180630864106640740183408408864088018B108F209410950498109C08A180A304A602A810AA02AC90C0706C
:4010C000C420C840D420D6C0D8C0DE20E210E480E610E880EA10EC80EE40001008800C1162406712931294309A40A510AB01AF10C002C207D603D801141074028002881078
:40110000A810A910AC80B011C404DE04E204EA04EE04101811011A081B011C181D0100FF01EF020E1055000064410000200000008DC1000640C4001002100DC442D4080085
:401140000DD48000620914C6001000008D98002311E722188D0000008D00000000C4801070070F788000009800000A0A0000100034052000060ECBDF3DFFFFFF2200F0082C
:40118000040000000000022C04040404666600010000C00040011011C00100114001400100000000000000000000000000000000005B0000295B020004020024000000009F
:4011C0000004001A00241008265B1900005B0000000000012404183000000000001A0041001E18010740202000002002000040543206100004DEFB0C1FFFFFFF2200F008F9
:40120000040000000900040004040404555500010000C00040011011C0010011400140010000000000000000000000000000000000610002000040810061780800102061D6
:4012400000000000026105040000101E780080007800004002007C000000080000004000781F068080400120000000000000015105065000010CBEDF3DFFFFFF2200F00CB1
:401280008C1000000000022C040424248388083100000000000000004001C00100000000000000000000000000000000000000007A0100000000000070013A0112005A003B
:4012C000002424002400DB0020008A4565006540000000002017170017000800A000441BBB00B0000000000004DBDB00DB000000040003F0F400F400080000000100180141
:40130000080018010000000000000000000000000000000000000000000000000000000000000000000000000000000000000000000000000000000000000000000000008C
:40134000000000000000000000000000000000000000000000000000000000000000000000000000000000000000000000000000000000000000000000000000000000006D
:40138000000000000000000000000000000000000000000000000000000000000000000000000000000000000000000000000000000000000000000000000000000000002D
:4013C00000000000000000000000000000000000000000000000000000000000000000000000000000000000000000000000000000000000000000000000000000000000ED
:4014000000000000000000000000000000000000000000000000000000000000000000000000000000000000000000000000000000000000000000000000000000000000AC
:0200000490006A
:0400000000004005B7
:0200000490105A
:04000000BC90ACAF55
:0200000490303A
:020000009A2F35
:0200000490402A
:4000000000000000000000000000000000000000000000000000000000000000000000000000000000000000000000000000000000000000000000000000000000000000C0
:400040000000000000000000000000000000000000000000000000000000000000000000000000000000000000000000000000000000000000000000000000000000000080
:400080000000000000000000000000000000000000000000000000000000000000000000000000000000000000000000000000000000000000000000000000000000000040
:4000C0000000000000000000000000000000000000000000000000000000000000000000000000000000000000000000000000000000000000000000000000000000000000
:0200000490501A
:0C00000000012E16106900012E21AA98A4
:00000001FF